{
  "contractName": "CompetingTennisPlayer",
  "abi": [
    {
      "constant": true,
      "inputs": [
        {
          "name": "interfaceId",
          "type": "bytes4"
        }
      ],
      "name": "supportsInterface",
      "outputs": [
        {
          "name": "",
          "type": "bool"
        }
      ],
      "payable": false,
      "stateMutability": "view",
      "type": "function"
    },
    {
      "constant": true,
      "inputs": [],
      "name": "xpGainWin",
      "outputs": [
        {
          "name": "",
          "type": "uint8"
        }
      ],
      "payable": false,
      "stateMutability": "view",
      "type": "function"
    },
    {
      "constant": true,
      "inputs": [
        {
          "name": "tokenId",
          "type": "uint256"
        }
      ],
      "name": "getApproved",
      "outputs": [
        {
          "name": "",
          "type": "address"
        }
      ],
      "payable": false,
      "stateMutability": "view",
      "type": "function"
    },
    {
      "constant": false,
      "inputs": [
        {
          "name": "to",
          "type": "address"
        },
        {
          "name": "tokenId",
          "type": "uint256"
        }
      ],
      "name": "approve",
      "outputs": [],
      "payable": false,
      "stateMutability": "nonpayable",
      "type": "function"
    },
    {
      "constant": true,
      "inputs": [
        {
          "name": "",
          "type": "uint256"
        }
      ],
      "name": "enlistedPlayers",
      "outputs": [
        {
          "name": "",
          "type": "bool"
        }
      ],
      "payable": false,
      "stateMutability": "view",
      "type": "function"
    },
    {
      "constant": false,
      "inputs": [
        {
          "name": "from",
          "type": "address"
        },
        {
          "name": "to",
          "type": "address"
        },
        {
          "name": "tokenId",
          "type": "uint256"
        }
      ],
      "name": "transferFrom",
      "outputs": [],
      "payable": false,
      "stateMutability": "nonpayable",
      "type": "function"
    },
    {
      "constant": false,
      "inputs": [
        {
          "name": "from",
          "type": "address"
        },
        {
          "name": "to",
          "type": "address"
        },
        {
          "name": "tokenId",
          "type": "uint256"
        }
      ],
      "name": "safeTransferFrom",
      "outputs": [],
      "payable": false,
      "stateMutability": "nonpayable",
      "type": "function"
    },
    {
      "constant": true,
      "inputs": [],
      "name": "xpGainLose",
      "outputs": [
        {
          "name": "",
          "type": "uint8"
        }
      ],
      "payable": false,
      "stateMutability": "view",
      "type": "function"
    },
    {
      "constant": true,
      "inputs": [
        {
          "name": "tokenId",
          "type": "uint256"
        }
      ],
      "name": "ownerOf",
      "outputs": [
        {
          "name": "",
          "type": "address"
        }
      ],
      "payable": false,
      "stateMutability": "view",
      "type": "function"
    },
    {
      "constant": true,
      "inputs": [
        {
          "name": "owner",
          "type": "address"
        }
      ],
      "name": "balanceOf",
      "outputs": [
        {
          "name": "",
          "type": "uint256"
        }
      ],
      "payable": false,
      "stateMutability": "view",
      "type": "function"
    },
    {
      "constant": false,
      "inputs": [],
      "name": "renounceOwnership",
      "outputs": [],
      "payable": false,
      "stateMutability": "nonpayable",
      "type": "function"
    },
    {
      "constant": true,
      "inputs": [],
      "name": "owner",
      "outputs": [
        {
          "name": "",
          "type": "address"
        }
      ],
      "payable": false,
      "stateMutability": "view",
      "type": "function"
    },
    {
      "constant": true,
      "inputs": [],
      "name": "isOwner",
      "outputs": [
        {
          "name": "",
          "type": "bool"
        }
      ],
      "payable": false,
      "stateMutability": "view",
      "type": "function"
    },
    {
      "constant": true,
      "inputs": [],
      "name": "conditionCostToPlay",
      "outputs": [
        {
          "name": "",
          "type": "uint8"
        }
      ],
      "payable": false,
      "stateMutability": "view",
      "type": "function"
    },
    {
      "constant": false,
      "inputs": [
        {
          "name": "to",
          "type": "address"
        },
        {
          "name": "approved",
          "type": "bool"
        }
      ],
      "name": "setApprovalForAll",
      "outputs": [],
      "payable": false,
      "stateMutability": "nonpayable",
      "type": "function"
    },
    {
      "constant": false,
      "inputs": [
        {
          "name": "from",
          "type": "address"
        },
        {
          "name": "to",
          "type": "address"
        },
        {
          "name": "tokenId",
          "type": "uint256"
        },
        {
          "name": "_data",
          "type": "bytes"
        }
      ],
      "name": "safeTransferFrom",
      "outputs": [],
      "payable": false,
      "stateMutability": "nonpayable",
      "type": "function"
    },
    {
      "constant": false,
      "inputs": [
        {
          "name": "_xp",
          "type": "uint256"
        },
        {
          "name": "_name",
          "type": "string"
        },
        {
          "name": "_age",
          "type": "uint8"
        },
        {
          "name": "_height",
          "type": "uint8"
        },
        {
          "name": "_condition",
          "type": "uint8"
        },
        {
          "name": "_agility",
          "type": "uint8"
        },
        {
          "name": "_power",
          "type": "uint8"
        },
        {
          "name": "_stamina",
          "type": "uint8"
        },
        {
          "name": "_technique",
          "type": "uint8"
        },
        {
          "name": "_to",
          "type": "address"
        }
      ],
      "name": "newPlayer",
      "outputs": [
        {
          "name": "",
          "type": "uint256"
        }
      ],
      "payable": false,
      "stateMutability": "nonpayable",
      "type": "function"
    },
    {
      "constant": true,
      "inputs": [
        {
          "name": "owner",
          "type": "address"
        },
        {
          "name": "operator",
          "type": "address"
        }
      ],
      "name": "isApprovedForAll",
      "outputs": [
        {
          "name": "",
          "type": "bool"
        }
      ],
      "payable": false,
      "stateMutability": "view",
      "type": "function"
    },
    {
      "constant": false,
      "inputs": [
        {
          "name": "newOwner",
          "type": "address"
        }
      ],
      "name": "transferOwnership",
      "outputs": [],
      "payable": false,
      "stateMutability": "nonpayable",
      "type": "function"
    },
    {
      "constant": true,
      "inputs": [
        {
          "name": "",
          "type": "uint256"
        }
      ],
      "name": "players",
      "outputs": [
        {
          "name": "xp",
          "type": "uint256"
        },
        {
          "name": "name",
          "type": "string"
        },
        {
          "name": "age",
          "type": "uint8"
        },
        {
          "name": "height",
          "type": "uint8"
        },
        {
          "name": "condition",
          "type": "uint8"
        },
        {
          "name": "agility",
          "type": "uint8"
        },
        {
          "name": "power",
          "type": "uint8"
        },
        {
          "name": "stamina",
          "type": "uint8"
        },
        {
          "name": "technique",
          "type": "uint8"
        }
      ],
      "payable": false,
      "stateMutability": "view",
      "type": "function"
    },
    {
      "anonymous": false,
      "inputs": [
        {
          "indexed": true,
          "name": "playerId",
          "type": "uint256"
        }
      ],
      "name": "Enlist",
      "type": "event"
    },
    {
      "anonymous": false,
      "inputs": [
        {
          "indexed": true,
          "name": "playerId",
          "type": "uint256"
        }
      ],
      "name": "Delist",
      "type": "event"
    },
    {
      "anonymous": false,
      "inputs": [
        {
          "indexed": true,
          "name": "playerId",
          "type": "uint256"
        },
        {
          "indexed": true,
          "name": "opponentId",
          "type": "uint256"
        },
        {
          "indexed": true,
          "name": "winner",
          "type": "uint256"
        }
      ],
      "name": "MatchPlayed",
      "type": "event"
    },
    {
      "anonymous": false,
      "inputs": [
        {
          "indexed": true,
          "name": "previousOwner",
          "type": "address"
        },
        {
          "indexed": true,
          "name": "newOwner",
          "type": "address"
        }
      ],
      "name": "OwnershipTransferred",
      "type": "event"
    },
    {
      "anonymous": false,
      "inputs": [
        {
          "indexed": true,
          "name": "from",
          "type": "address"
        },
        {
          "indexed": true,
          "name": "to",
          "type": "address"
        },
        {
          "indexed": true,
          "name": "tokenId",
          "type": "uint256"
        }
      ],
      "name": "Transfer",
      "type": "event"
    },
    {
      "anonymous": false,
      "inputs": [
        {
          "indexed": true,
          "name": "owner",
          "type": "address"
        },
        {
          "indexed": true,
          "name": "approved",
          "type": "address"
        },
        {
          "indexed": true,
          "name": "tokenId",
          "type": "uint256"
        }
      ],
      "name": "Approval",
      "type": "event"
    },
    {
      "anonymous": false,
      "inputs": [
        {
          "indexed": true,
          "name": "owner",
          "type": "address"
        },
        {
          "indexed": true,
          "name": "operator",
          "type": "address"
        },
        {
          "indexed": false,
          "name": "approved",
          "type": "bool"
        }
      ],
      "name": "ApprovalForAll",
      "type": "event"
    },
    {
      "constant": false,
      "inputs": [
        {
          "name": "_id",
          "type": "uint256"
        }
      ],
      "name": "enlist",
      "outputs": [],
      "payable": false,
      "stateMutability": "nonpayable",
      "type": "function"
    },
    {
      "constant": false,
      "inputs": [
        {
          "name": "_id",
          "type": "uint256"
        }
      ],
      "name": "delist",
      "outputs": [],
      "payable": false,
      "stateMutability": "nonpayable",
      "type": "function"
    },
    {
      "constant": false,
      "inputs": [
        {
          "name": "_id",
          "type": "uint256"
        },
        {
          "name": "_opponentId",
          "type": "uint256"
        }
      ],
      "name": "playMatch",
      "outputs": [],
      "payable": false,
      "stateMutability": "nonpayable",
      "type": "function"
    }
  ],
  "bytecode": "0x608060405260078054601460ff199091161761ff001916610a001762ff0000191662050000179055620000597f01ffc9a700000000000000000000000000000000000000000000000000000000620000d7602090811b901c565b620000716380ac58cd60e01b620000d760201b60201c565b600062000083620001a660201b60201c565b600580546001600160a01b0319166001600160a01b038316908117909155604051919250906000907f8be0079c531659141344cd1fd0a4f28419497f9722a3daafe3b4186f6b6457e0908290a350620001aa565b7fffffffff0000000000000000000000000000000000000000000000000000000080821614156200016957604080517f08c379a000000000000000000000000000000000000000000000000000000000815260206004820152601c60248201527f4552433136353a20696e76616c696420696e7465726661636520696400000000604482015290519081900360640190fd5b7fffffffff00000000000000000000000000000000000000000000000000000000166000908152602081905260409020805460ff19166001179055565b3390565b61233c80620001ba6000396000f3fe608060405234801561001057600080fd5b506004361061014d5760003560e01c8063715018a6116100c3578063b88d4fde1161007c578063b88d4fde14610380578063c6da6e2b14610446578063daf15ebd14610536578063e985e9c514610559578063f2fde38b14610587578063f71d96cb146105ad5761014d565b8063715018a6146103155780638da5cb5b1461031d5780638f32d59b14610325578063964bc33f1461032d578063a18fc3161461034a578063a22cb465146103525761014d565b806323b872dd1161011557806323b872dd1461022f5780633d8b78941461026557806342842e0e14610282578063561dded1146102b85780636352211e146102c057806370a08231146102dd5761014d565b806301ffc9a714610152578063050fae6a1461018d578063081812fc146101ab578063095ea7b3146101e45780631fb9422514610212575b600080fd5b6101796004803603602081101561016857600080fd5b50356001600160e01b03191661068e565b604080519115158252519081900360200190f35b6101956106b1565b6040805160ff9092168252519081900360200190f35b6101c8600480360360208110156101c157600080fd5b50356106bf565b604080516001600160a01b039092168252519081900360200190f35b610210600480360360408110156101fa57600080fd5b506001600160a01b038135169060200135610726565b005b6101796004803603602081101561022857600080fd5b5035610850565b6102106004803603606081101561024557600080fd5b506001600160a01b03813581169160208101359091169060400135610865565b6102106004803603602081101561027b57600080fd5b50356108c6565b6102106004803603606081101561029857600080fd5b506001600160a01b03813581169160208101359091169060400135610a4c565b610195610a67565b6101c8600480360360208110156102d657600080fd5b5035610a76565b610303600480360360208110156102f357600080fd5b50356001600160a01b0316610ad5565b60408051918252519081900360200190f35b610210610b42565b6101c8610bea565b610179610bfa565b6102106004803603602081101561034357600080fd5b5035610c20565b610195610cdf565b6102106004803603604081101561036857600080fd5b506001600160a01b0381351690602001351515610ce8565b6102106004803603608081101561039657600080fd5b6001600160a01b038235811692602081013590911691604082013591908101906080810160608201356401000000008111156103d157600080fd5b8201836020820111156103e357600080fd5b8035906020019184600183028401116401000000008311171561040557600080fd5b91908080601f016020809104026020016040519081016040528093929190818152602001838380828437600092019190915250929550610dea945050505050565b610303600480360361014081101561045d57600080fd5b8135919081019060408101602082013564010000000081111561047f57600080fd5b82018360208201111561049157600080fd5b803590602001918460018302840111640100000000831117156104b357600080fd5b91908080601f0160208091040260200160405190810160405280939291908181526020018383808284376000920191909152509295505050813560ff908116935060208301358116926040810135821692506060810135821691608082013581169160a081013582169160c0820135169060e001356001600160a01b0316610e4d565b6102106004803603604081101561054c57600080fd5b508035906020013561103c565b6101796004803603604081101561056f57600080fd5b506001600160a01b03813581169160200135166114a0565b6102106004803603602081101561059d57600080fd5b50356001600160a01b03166114ce565b6105ca600480360360208110156105c357600080fd5b5035611535565b604080518a815260ff808a16928201929092528782166060820152868216608082015285821660a082015284821660c082015283821660e082015290821661010082015261012060208083018281528b51928401929092528a516101408401918c019080838360005b8381101561064b578181015183820152602001610633565b50505050905090810190601f1680156106785780820380516001836020036101000a031916815260200191505b509a505050505050505050505060405180910390f35b6001600160e01b0319811660009081526020819052604090205460ff165b919050565b600754610100900460ff1681565b60006106ca82611649565b151561070a57604051600160e51b62461bcd02815260040180806020018281038252602c81526020018061226a602c913960400191505060405180910390fd5b506000908152600260205260409020546001600160a01b031690565b600061073182610a76565b90506001600160a01b03838116908216141561078157604051600160e51b62461bcd0281526004018080602001828103825260218152602001806122bf6021913960400191505060405180910390fd5b806001600160a01b0316610793611666565b6001600160a01b031614806107b457506107b4816107af611666565b6114a0565b15156107f457604051600160e51b62461bcd0281526004018080602001828103825260388152602001806121df6038913960400191505060405180910390fd5b60008281526002602052604080822080546001600160a01b0319166001600160a01b0387811691821790925591518593918516917f8c5be1e5ebec7d5bd14f71427d1e84f3dd0314c0f7b2291e5b200ac8c7c3b92591a4505050565b60086020526000908152604090205460ff1681565b610876610870611666565b8261166a565b15156108b657604051600160e51b62461bcd0281526004018080602001828103825260318152602001806122e06031913960400191505060405180910390fd5b6108c1838383611713565b505050565b336108d082610a76565b6001600160a01b03161461091857604051600160e51b62461bcd0281526004018080602001828103825260218152602001806121926021913960400191505060405180910390fd5b60008181526008602052604090205460ff161561097f5760408051600160e51b62461bcd02815260206004820152601c60248201527f4d757374206e6f7420616c726561647920626520656e6c697374656400000000604482015290519081900360640190fd5b6007546006805460ff909216918390811061099657fe5b600091825260209091206003909102016002015462010000900460ff161015610a095760408051600160e51b62461bcd02815260206004820152601b60248201527f4d757374206265206d617463682066697420746f20656e6c6973740000000000604482015290519081900360640190fd5b600081815260086020526040808220805460ff191660011790555182917ff2ffc74f2561385e2dda97fd2fed03df7841a8aa26fdf1f5fb28c6cc4950dc0191a250565b6108c183838360405180602001604052806000815250610dea565b60075462010000900460ff1681565b6000818152600160205260408120546001600160a01b0316801515610acf57604051600160e51b62461bcd0281526004018080602001828103825260298152602001806122416029913960400191505060405180910390fd5b92915050565b60006001600160a01b0382161515610b2157604051600160e51b62461bcd02815260040180806020018281038252602a815260200180612217602a913960400191505060405180910390fd5b6001600160a01b0382166000908152600360205260409020610acf9061185f565b610b4a610bfa565b1515610ba05760408051600160e51b62461bcd02815260206004820181905260248201527f4f776e61626c653a2063616c6c6572206973206e6f7420746865206f776e6572604482015290519081900360640190fd5b6005546040516000916001600160a01b0316907f8be0079c531659141344cd1fd0a4f28419497f9722a3daafe3b4186f6b6457e0908390a3600580546001600160a01b0319169055565b6005546001600160a01b03165b90565b6005546000906001600160a01b0316610c11611666565b6001600160a01b031614905090565b33610c2a82610a76565b6001600160a01b031614610c7257604051600160e51b62461bcd0281526004018080602001828103825260218152602001806121926021913960400191505060405180910390fd5b60008181526008602052604090205460ff161515600114610cd35760408051600160e51b62461bcd0281526020600482015260106024820152600160821b6f135d5cdd08189948195b9b1a5cdd195902604482015290519081900360640190fd5b610cdc81611863565b50565b60075460ff1681565b610cf0611666565b6001600160a01b0383811691161415610d535760408051600160e51b62461bcd02815260206004820152601960248201527f4552433732313a20617070726f766520746f2063616c6c657200000000000000604482015290519081900360640190fd5b8060046000610d60611666565b6001600160a01b03908116825260208083019390935260409182016000908120918716808252919093529120805460ff191692151592909217909155610da4611666565b60408051841515815290516001600160a01b0392909216917f17307eab39ab6107e8899845ad3d59bd9653f200f220920489ca2b5937696c319181900360200190a35050565b610dfb610df5611666565b8361166a565b1515610e3b57604051600160e51b62461bcd0281526004018080602001828103825260318152602001806122e06031913960400191505060405180910390fd5b610e47848484846118a3565b50505050565b6000610e57610bfa565b1515610ead5760408051600160e51b62461bcd02815260206004820181905260248201527f4f776e61626c653a2063616c6c6572206973206e6f7420746865206f776e6572604482015290519081900360640190fd5b6000600680549050905060066040518061012001604052808e81526020018d81526020018c60ff1681526020018b60ff1681526020018a60ff1681526020018960ff1681526020018860ff1681526020018760ff1681526020018660ff1681525090806001815401808255809150509060018203906000526020600020906003020160009091929091909150600082015181600001556020820151816001019080519060200190610f5f929190612062565b50604082015160029190910180546060840151608085015160a086015160c087015160e08801516101009889015160ff1990961660ff9889161761ff0019169488169098029390931762ff0000191662010000928716929092029190911763ff00000019166301000000918616919091021764ff000000001916640100000000918516919091021765ff0000000000191665010000000000948416949094029390931766ff0000000000001916660100000000000092909316919091029190911790555061102d83826118fa565b9b9a5050505050505050505050565b3361104683610a76565b6001600160a01b03161461108e57604051600160e51b62461bcd0281526004018080602001828103825260218152602001806121926021913960400191505060405180910390fd5b60008281526008602052604090205460ff1615156001146110ef5760408051600160e51b62461bcd0281526020600482015260106024820152600160821b6f135d5cdd08189948195b9b1a5cdd195902604482015290519081900360640190fd5b60008181526008602052604090205460ff16151560011461115a5760408051600160e51b62461bcd02815260206004820152601960248201527f4f70706f6e656e74206d75737420626520656e6c697374656400000000000000604482015290519081900360640190fd5b611199826040518060400160405280601a81526020017f506c61796572206e6f74206d6174636820636f6e646974696f6e000000000000815250611918565b6111d8816040518060400160405280601c81526020017f4f70706f6e656e74206e6f74206d6174636820636f6e646974696f6e00000000815250611918565b60006112b56006848154811015156111ec57fe5b906000526020600020906003020160020160069054906101000a900460ff1660ff166112a960068681548110151561122057fe5b906000526020600020906003020160020160059054906101000a900460ff1660ff166112a960068881548110151561125457fe5b906000526020600020906003020160020160049054906101000a900460ff1660ff1660068981548110151561128557fe5b60009182526020909120600390910201600201546301000000900460ff16906119af565b9063ffffffff6119af16565b905060006112cb6006848154811015156111ec57fe5b600754600680549293506113149261130f9260ff169190889081106112ec57fe5b600091825260209091206003909102016002015462010000900460ff1690611a13565b611a55565b600680548690811061132257fe5b60009182526020909120600390910201600201805462ff000019166201000060ff93841602179055600754600680546113669361130f93169190879081106112ec57fe5b600680548590811061137457fe5b906000526020600020906003020160020160026101000a81548160ff021916908360ff160217905550600080828410156113af5784866113b2565b85855b915091506113f8600760019054906101000a900460ff1660ff166006848154811015156113db57fe5b60009182526020909120600390910201549063ffffffff6119af16565b600680548490811061140657fe5b6000918252602090912060039091020155600754600680546114379262010000900460ff169190849081106113db57fe5b600680548390811061144557fe5b600091825260208220600390910201919091556040518391879189917f9dcee82476e7972008ebee70c4c5b286d94d3dfa4fe0a715f8eec92c75cf54e991a461148d86611a9e565b5061149785611a9e565b50505050505050565b6001600160a01b03918216600090815260046020908152604080832093909416825291909152205460ff1690565b6114d6610bfa565b151561152c5760408051600160e51b62461bcd02815260206004820181905260248201527f4f776e61626c653a2063616c6c6572206973206e6f7420746865206f776e6572604482015290519081900360640190fd5b610cdc81611af2565b600680548290811061154357fe5b9060005260206000209060030201600091509050806000015490806001018054600181600116156101000203166002900480601f0160208091040260200160405190810160405280929190818152602001828054600181600116156101000203166002900480156115f55780601f106115ca576101008083540402835291602001916115f5565b820191906000526020600020905b8154815290600101906020018083116115d857829003601f168201915b5050506002909301549192505060ff80821691610100810482169162010000820481169163010000008104821691640100000000820481169165010000000000810482169166010000000000009091041689565b6000908152600160205260409020546001600160a01b0316151590565b3390565b600061167582611649565b15156116b557604051600160e51b62461bcd02815260040180806020018281038252602c8152602001806121b3602c913960400191505060405180910390fd5b60006116c083610a76565b9050806001600160a01b0316846001600160a01b031614806116fb5750836001600160a01b03166116f0846106bf565b6001600160a01b0316145b8061170b575061170b81856114a0565b949350505050565b826001600160a01b031661172682610a76565b6001600160a01b03161461176e57604051600160e51b62461bcd0281526004018080602001828103825260298152602001806122966029913960400191505060405180910390fd5b6001600160a01b03821615156117b857604051600160e51b62461bcd02815260040180806020018281038252602481526020018061216e6024913960400191505060405180910390fd5b6117c181611b98565b6001600160a01b03831660009081526003602052604090206117e290611bd3565b6001600160a01b038216600090815260036020526040902061180390611bea565b60008181526001602052604080822080546001600160a01b0319166001600160a01b0386811691821790925591518493918716917fddf252ad1be2c89b69c2b068fc378daa952ba7f163c4a11628f55a4df523b3ef91a4505050565b5490565b600081815260086020526040808220805460ff191690555182917f2c525dc2c086b9a2f3b902d229853b5b838fcedc22933c40ed7ebe4890a53a8291a250565b6118ae848484611713565b6118ba84848484611bf3565b1515610e4757604051600160e51b62461bcd0281526004018080602001828103825260328152602001806120f16032913960400191505060405180910390fd5b611914828260405180602001604052806000815250611e3b565b5050565b61192182611a9e565b15156119145780604051600160e51b62461bcd0281526004018080602001828103825283818151815260200191508051906020019080838360005b8381101561197457818101518382015260200161195c565b50505050905090810190601f1680156119a15780820380516001836020036101000a031916815260200191505b509250505060405180910390fd5b600082820183811015611a0c5760408051600160e51b62461bcd02815260206004820152601b60248201527f536166654d6174683a206164646974696f6e206f766572666c6f770000000000604482015290519081900360640190fd5b9392505050565b6000611a0c83836040518060400160405280601e81526020017f536166654d6174683a207375627472616374696f6e206f766572666c6f770000815250611e92565b60006101008210611a9a57604051600160e51b62461bcd0281526004018080602001828103825260258152602001806121496025913960400191505060405180910390fd5b5090565b6007546006805460009260ff16919084908110611ab757fe5b600091825260209091206003909102016002015462010000900460ff1611611aea57611ae282611863565b5060006106ac565b506001919050565b6001600160a01b0381161515611b3c57604051600160e51b62461bcd0281526004018080602001828103825260268152602001806121236026913960400191505060405180910390fd5b6005546040516001600160a01b038084169216907f8be0079c531659141344cd1fd0a4f28419497f9722a3daafe3b4186f6b6457e090600090a3600580546001600160a01b0319166001600160a01b0392909216919091179055565b6000818152600260205260409020546001600160a01b031615610cdc57600090815260026020526040902080546001600160a01b0319169055565b8054611be690600163ffffffff611a1316565b9055565b80546001019055565b6000611c07846001600160a01b0316611ef0565b1515611c155750600161170b565b600060606001600160a01b038616600160e11b630a85bd0102611c36611666565b89888860405160240180856001600160a01b03166001600160a01b03168152602001846001600160a01b03166001600160a01b0316815260200183815260200180602001828103825283818151815260200191508051906020019080838360005b83811015611caf578181015183820152602001611c97565b50505050905090810190601f168015611cdc5780820380516001836020036101000a031916815260200191505b5060408051601f198184030181529181526020820180516001600160e01b03166001600160e01b0319909a16999099178952518151919890975087965094509250829150849050835b60208310611d445780518252601f199092019160209182019101611d25565b6001836020036101000a0380198251168184511680821785525050505050509050019150506000604051808303816000865af19150503d8060008114611da6576040519150601f19603f3d011682016040523d82523d6000602084013e611dab565b606091505b5091509150811515611e0157805115611dc75780518082602001fd5b604051600160e51b62461bcd0281526004018080602001828103825260328152602001806120f16032913960400191505060405180910390fd5b6000818060200190516020811015611e1857600080fd5b50516001600160e01b031916600160e11b630a85bd010214935061170b92505050565b611e458383611f29565b611e526000848484611bf3565b15156108c157604051600160e51b62461bcd0281526004018080602001828103825260328152602001806120f16032913960400191505060405180910390fd5b60008184841115611ee857604051600160e51b62461bcd0281526004018080602001828103825283818151815260200191508051906020019080838360008381101561197457818101518382015260200161195c565b505050900390565b6000813f7fc5d2460186f7233c927e7db2dcc703c0e500b653ca82273b7bfad8045d85a47081811480159061170b575050151592915050565b6001600160a01b0382161515611f895760408051600160e51b62461bcd02815260206004820181905260248201527f4552433732313a206d696e7420746f20746865207a65726f2061646472657373604482015290519081900360640190fd5b611f9281611649565b15611fe75760408051600160e51b62461bcd02815260206004820152601c60248201527f4552433732313a20746f6b656e20616c7265616479206d696e74656400000000604482015290519081900360640190fd5b600081815260016020908152604080832080546001600160a01b0319166001600160a01b03871690811790915583526003909152902061202690611bea565b60405181906001600160a01b038416906000907fddf252ad1be2c89b69c2b068fc378daa952ba7f163c4a11628f55a4df523b3ef908290a45050565b828054600181600116156101000203166002900490600052602060002090601f016020900481019282601f106120a357805160ff19168380011785556120d0565b828001600101855582156120d0579182015b828111156120d05782518255916020019190600101906120b5565b50611a9a92610bf79250905b80821115611a9a57600081556001016120dc56fe4552433732313a207472616e7366657220746f206e6f6e20455243373231526563656976657220696d706c656d656e7465724f776e61626c653a206e6577206f776e657220697320746865207a65726f206164647265737353616665436173743a2076616c756520646f65736e27742066697420696e203820626974734552433732313a207472616e7366657220746f20746865207a65726f20616464726573734d757374206265206f776e6572206f6620706c6179657220746f20656e6c6973744552433732313a206f70657261746f7220717565727920666f72206e6f6e6578697374656e7420746f6b656e4552433732313a20617070726f76652063616c6c6572206973206e6f74206f776e6572206e6f7220617070726f76656420666f7220616c6c4552433732313a2062616c616e636520717565727920666f7220746865207a65726f20616464726573734552433732313a206f776e657220717565727920666f72206e6f6e6578697374656e7420746f6b656e4552433732313a20617070726f76656420717565727920666f72206e6f6e6578697374656e7420746f6b656e4552433732313a207472616e73666572206f6620746f6b656e2074686174206973206e6f74206f776e4552433732313a20617070726f76616c20746f2063757272656e74206f776e65724552433732313a207472616e736665722063616c6c6572206973206e6f74206f776e6572206e6f7220617070726f766564a165627a7a723058202545b7188d77860874d13ae090725e3425073af21547899b60c20ece14c680030029",
  "source": "// Author: Alex Roan\npragma solidity ^0.5.5;\n\nimport \"./TennisPlayerBase.sol\";\nimport \"@openzeppelin/contracts/math/SafeMath.sol\";\nimport \"@openzeppelin/contracts/utils/SafeCast.sol\";\n\ncontract CompetingTennisPlayer is TennisPlayerBase {\n\n    using SafeMath for uint;\n    using SafeCast for uint;\n\n    // conditionCostToPlay\n    uint8 public conditionCostToPlay = 20;\n    // xpGainWin\n    uint8 public xpGainWin = 10;\n    // xpGainLose\n    uint8 public xpGainLose = 5;\n\n    // enlistedPlayers\n    mapping(uint => bool) public enlistedPlayers;\n\n    // enlistEvent\n    event Enlist(uint indexed playerId);\n    // delistEvent\n    event Delist(uint indexed playerId);\n    // matchPlayed\n    event MatchPlayed(uint indexed playerId, uint indexed opponentId, uint indexed winner);\n\n    // Enlist player to compete with others\n    function enlist(uint _id) public {\n        // Only the owner of the player can train\n        require(ownerOf(_id) == msg.sender, \"Must be owner of player to enlist\");\n        // Must not be enlisted already\n        require(enlistedPlayers[_id] == false, \"Must not already be enlisted\");\n        // Match fit check\n        require(players[_id].condition >= conditionCostToPlay, \"Must be match fit to enlist\");\n\n        // Enlist\n        enlistedPlayers[_id] = true;\n        // Emit event\n        emit Enlist(_id);\n    }\n\n    // Delist player from competing with others\n    function delist(uint _id) public {\n        // Only the owner of the player can train\n        require(ownerOf(_id) == msg.sender, \"Must be owner of player to enlist\");\n        // Must be enlisted\n        require(enlistedPlayers[_id] == true, \"Must be enlisted\");\n        // Run delist\n        _delist(_id);\n    }\n\n    // Play match against opponent\n    function playMatch(uint _id, uint _opponentId) public {\n        // Only the owner of the player can train\n        require(ownerOf(_id) == msg.sender, \"Must be owner of player to enlist\");\n        // Must be enlisted\n        require(enlistedPlayers[_id] == true, \"Must be enlisted\");\n        // Opponent must be enlisted\n        require(enlistedPlayers[_opponentId] == true, \"Opponent must be enlisted\");\n        // Ensure player's condition is high enough\n        _requireMatchCondition(_id, \"Player not match condition\");\n        // Ensure opponents's condition is high enough\n        _requireMatchCondition(_opponentId, \"Opponent not match condition\");\n\n        // TODO move this to train?\n        // TODO Better match mechanics\n        uint playerScore = uint(players[_id].agility)\n            .add(uint(players[_id].power))\n            .add(uint(players[_id].stamina))\n            .add(uint(players[_id].technique));\n\n        uint opponentScore = uint(players[_opponentId].agility)\n            .add(uint(players[_opponentId].power))\n            .add(uint(players[_opponentId].stamina))\n            .add(uint(players[_opponentId].technique));\n\n        // condition changes\n        players[_id].condition = uint(players[_id].condition).sub(uint(conditionCostToPlay)).toUint8();\n        players[_opponentId].condition = uint(players[_opponentId].condition).sub(uint(conditionCostToPlay)).toUint8();\n        // determine winner\n        (uint winner, uint loser) = (playerScore >= opponentScore) ? (_id, _opponentId) : (_opponentId, _id);\n        // xp changes\n        players[winner].xp = uint(players[winner].xp).add(uint(xpGainWin));\n        players[loser].xp = uint(players[loser].xp).add(uint(xpGainLose));\n        // emit matchplayed\n        emit MatchPlayed(_id, _opponentId, winner);\n        // check condition again\n        _isMatchCondition(_id);\n        _isMatchCondition(_opponentId);\n    }\n\n    // Perform the delisting\n    function _delist(uint _id) private {\n        // Delist\n        enlistedPlayers[_id] = false;\n        // Emit event\n        emit Delist(_id);\n    }\n\n    // Revert if not match condition\n    function _requireMatchCondition(uint _id, string memory _message) private {\n        if (!_isMatchCondition(_id)) {\n            revert(_message);\n        }\n    }\n\n    // Check player is in match condition, if not, delist\n    function _isMatchCondition(uint _id) private returns (bool) {\n        // Ensure player's condition is high enough\n        // Delist if not\n        if (players[_id].condition <= conditionCostToPlay) {\n            _delist(_id);\n            return false;\n        }\n        return true;\n    }\n}",
  "sourcePath": "/Users/alexroan/Documents/Projects/Blockchain/DApps/tennis-manager/contracts/CompetingTennisPlayer.sol",
  "compiler": {
    "name": "solc",
    "version": "0.5.5+commit.47a71e8f.Emscripten.clang"
  },
  "schemaVersion": "3.0.23",
  "updatedAt": "2020-04-01T10:13:54.992Z",
  "devdoc": {
    "methods": {
      "approve(address,uint256)": {
        "details": "Approves another address to transfer the given token ID The zero address indicates there is no approved address. There can only be one approved address per token at a given time. Can only be called by the token owner or an approved operator.",
        "params": {
          "to": "address to be approved for the given token ID",
          "tokenId": "uint256 ID of the token to be approved"
        }
      },
      "balanceOf(address)": {
        "details": "Gets the balance of the specified address.",
        "params": {
          "owner": "address to query the balance of"
        },
        "return": "uint256 representing the amount owned by the passed address"
      },
      "getApproved(uint256)": {
        "details": "Gets the approved address for a token ID, or zero if no address set Reverts if the token ID does not exist.",
        "params": {
          "tokenId": "uint256 ID of the token to query the approval of"
        },
        "return": "address currently approved for the given token ID"
      },
      "isApprovedForAll(address,address)": {
        "details": "Tells whether an operator is approved by a given owner.",
        "params": {
          "operator": "operator address which you want to query the approval of",
          "owner": "owner address which you want to query the approval of"
        },
        "return": "bool whether the given operator is approved by the given owner"
      },
      "isOwner()": {
        "details": "Returns true if the caller is the current owner."
      },
      "owner()": {
        "details": "Returns the address of the current owner."
      },
      "ownerOf(uint256)": {
        "details": "Gets the owner of the specified token ID.",
        "params": {
          "tokenId": "uint256 ID of the token to query the owner of"
        },
        "return": "address currently marked as the owner of the given token ID"
      },
      "renounceOwnership()": {
        "details": "Leaves the contract without owner. It will not be possible to call `onlyOwner` functions anymore. Can only be called by the current owner.     * NOTE: Renouncing ownership will leave the contract without an owner, thereby removing any functionality that is only available to the owner."
      },
      "safeTransferFrom(address,address,uint256)": {
        "details": "Safely transfers the ownership of a given token ID to another address If the target address is a contract, it must implement {IERC721Receiver-onERC721Received}, which is called upon a safe transfer, and return the magic value `bytes4(keccak256(\"onERC721Received(address,address,uint256,bytes)\"))`; otherwise, the transfer is reverted. Requires the msg.sender to be the owner, approved, or operator",
        "params": {
          "from": "current owner of the token",
          "to": "address to receive the ownership of the given token ID",
          "tokenId": "uint256 ID of the token to be transferred"
        }
      },
      "safeTransferFrom(address,address,uint256,bytes)": {
        "details": "Safely transfers the ownership of a given token ID to another address If the target address is a contract, it must implement {IERC721Receiver-onERC721Received}, which is called upon a safe transfer, and return the magic value `bytes4(keccak256(\"onERC721Received(address,address,uint256,bytes)\"))`; otherwise, the transfer is reverted. Requires the _msgSender() to be the owner, approved, or operator",
        "params": {
          "_data": "bytes data to send along with a safe transfer check",
          "from": "current owner of the token",
          "to": "address to receive the ownership of the given token ID",
          "tokenId": "uint256 ID of the token to be transferred"
        }
      },
      "setApprovalForAll(address,bool)": {
        "details": "Sets or unsets the approval of a given operator An operator is allowed to transfer all tokens of the sender on their behalf.",
        "params": {
          "approved": "representing the status of the approval to be set",
          "to": "operator address to set the approval"
        }
      },
      "supportsInterface(bytes4)": {
        "details": "See {IERC165-supportsInterface}.     * Time complexity O(1), guaranteed to always use less than 30 000 gas."
      },
      "transferFrom(address,address,uint256)": {
        "details": "Transfers the ownership of a given token ID to another address. Usage of this method is discouraged, use {safeTransferFrom} whenever possible. Requires the msg.sender to be the owner, approved, or operator.",
        "params": {
          "from": "current owner of the token",
          "to": "address to receive the ownership of the given token ID",
          "tokenId": "uint256 ID of the token to be transferred"
        }
      },
      "transferOwnership(address)": {
        "details": "Transfers ownership of the contract to a new account (`newOwner`). Can only be called by the current owner."
      }
    }
  },
  "userdoc": {
    "methods": {}
  }
}