{
  "contractName": "CompetingTennisPlayer",
  "abi": [
    {
      "constant": true,
      "inputs": [
        {
          "name": "interfaceId",
          "type": "bytes4"
        }
      ],
      "name": "supportsInterface",
      "outputs": [
        {
          "name": "",
          "type": "bool"
        }
      ],
      "payable": false,
      "stateMutability": "view",
      "type": "function"
    },
    {
      "constant": true,
      "inputs": [],
      "name": "xpGainWin",
      "outputs": [
        {
          "name": "",
          "type": "uint8"
        }
      ],
      "payable": false,
      "stateMutability": "view",
      "type": "function"
    },
    {
      "constant": true,
      "inputs": [
        {
          "name": "tokenId",
          "type": "uint256"
        }
      ],
      "name": "getApproved",
      "outputs": [
        {
          "name": "",
          "type": "address"
        }
      ],
      "payable": false,
      "stateMutability": "view",
      "type": "function"
    },
    {
      "constant": false,
      "inputs": [
        {
          "name": "to",
          "type": "address"
        },
        {
          "name": "tokenId",
          "type": "uint256"
        }
      ],
      "name": "approve",
      "outputs": [],
      "payable": false,
      "stateMutability": "nonpayable",
      "type": "function"
    },
    {
      "constant": true,
      "inputs": [],
      "name": "totalSupply",
      "outputs": [
        {
          "name": "",
          "type": "uint256"
        }
      ],
      "payable": false,
      "stateMutability": "view",
      "type": "function"
    },
    {
      "constant": true,
      "inputs": [
        {
          "name": "",
          "type": "uint256"
        }
      ],
      "name": "enlistedPlayers",
      "outputs": [
        {
          "name": "",
          "type": "bool"
        }
      ],
      "payable": false,
      "stateMutability": "view",
      "type": "function"
    },
    {
      "constant": false,
      "inputs": [
        {
          "name": "from",
          "type": "address"
        },
        {
          "name": "to",
          "type": "address"
        },
        {
          "name": "tokenId",
          "type": "uint256"
        }
      ],
      "name": "transferFrom",
      "outputs": [],
      "payable": false,
      "stateMutability": "nonpayable",
      "type": "function"
    },
    {
      "constant": true,
      "inputs": [
        {
          "name": "owner",
          "type": "address"
        },
        {
          "name": "index",
          "type": "uint256"
        }
      ],
      "name": "tokenOfOwnerByIndex",
      "outputs": [
        {
          "name": "",
          "type": "uint256"
        }
      ],
      "payable": false,
      "stateMutability": "view",
      "type": "function"
    },
    {
      "constant": false,
      "inputs": [
        {
          "name": "from",
          "type": "address"
        },
        {
          "name": "to",
          "type": "address"
        },
        {
          "name": "tokenId",
          "type": "uint256"
        }
      ],
      "name": "safeTransferFrom",
      "outputs": [],
      "payable": false,
      "stateMutability": "nonpayable",
      "type": "function"
    },
    {
      "constant": true,
      "inputs": [
        {
          "name": "index",
          "type": "uint256"
        }
      ],
      "name": "tokenByIndex",
      "outputs": [
        {
          "name": "",
          "type": "uint256"
        }
      ],
      "payable": false,
      "stateMutability": "view",
      "type": "function"
    },
    {
      "constant": true,
      "inputs": [],
      "name": "xpGainLose",
      "outputs": [
        {
          "name": "",
          "type": "uint8"
        }
      ],
      "payable": false,
      "stateMutability": "view",
      "type": "function"
    },
    {
      "constant": true,
      "inputs": [
        {
          "name": "tokenId",
          "type": "uint256"
        }
      ],
      "name": "ownerOf",
      "outputs": [
        {
          "name": "",
          "type": "address"
        }
      ],
      "payable": false,
      "stateMutability": "view",
      "type": "function"
    },
    {
      "constant": true,
      "inputs": [
        {
          "name": "owner",
          "type": "address"
        }
      ],
      "name": "balanceOf",
      "outputs": [
        {
          "name": "",
          "type": "uint256"
        }
      ],
      "payable": false,
      "stateMutability": "view",
      "type": "function"
    },
    {
      "constant": false,
      "inputs": [],
      "name": "renounceOwnership",
      "outputs": [],
      "payable": false,
      "stateMutability": "nonpayable",
      "type": "function"
    },
    {
      "constant": true,
      "inputs": [],
      "name": "owner",
      "outputs": [
        {
          "name": "",
          "type": "address"
        }
      ],
      "payable": false,
      "stateMutability": "view",
      "type": "function"
    },
    {
      "constant": true,
      "inputs": [],
      "name": "isOwner",
      "outputs": [
        {
          "name": "",
          "type": "bool"
        }
      ],
      "payable": false,
      "stateMutability": "view",
      "type": "function"
    },
    {
      "constant": true,
      "inputs": [],
      "name": "conditionCostToPlay",
      "outputs": [
        {
          "name": "",
          "type": "uint8"
        }
      ],
      "payable": false,
      "stateMutability": "view",
      "type": "function"
    },
    {
      "constant": false,
      "inputs": [
        {
          "name": "to",
          "type": "address"
        },
        {
          "name": "approved",
          "type": "bool"
        }
      ],
      "name": "setApprovalForAll",
      "outputs": [],
      "payable": false,
      "stateMutability": "nonpayable",
      "type": "function"
    },
    {
      "constant": false,
      "inputs": [
        {
          "name": "from",
          "type": "address"
        },
        {
          "name": "to",
          "type": "address"
        },
        {
          "name": "tokenId",
          "type": "uint256"
        },
        {
          "name": "_data",
          "type": "bytes"
        }
      ],
      "name": "safeTransferFrom",
      "outputs": [],
      "payable": false,
      "stateMutability": "nonpayable",
      "type": "function"
    },
    {
      "constant": false,
      "inputs": [
        {
          "name": "_xp",
          "type": "uint256"
        },
        {
          "name": "_name",
          "type": "string"
        },
        {
          "name": "_age",
          "type": "uint8"
        },
        {
          "name": "_height",
          "type": "uint8"
        },
        {
          "name": "_condition",
          "type": "uint8"
        },
        {
          "name": "_agility",
          "type": "uint8"
        },
        {
          "name": "_power",
          "type": "uint8"
        },
        {
          "name": "_stamina",
          "type": "uint8"
        },
        {
          "name": "_technique",
          "type": "uint8"
        },
        {
          "name": "_to",
          "type": "address"
        }
      ],
      "name": "newPlayer",
      "outputs": [
        {
          "name": "",
          "type": "uint256"
        }
      ],
      "payable": false,
      "stateMutability": "nonpayable",
      "type": "function"
    },
    {
      "constant": true,
      "inputs": [
        {
          "name": "owner",
          "type": "address"
        },
        {
          "name": "operator",
          "type": "address"
        }
      ],
      "name": "isApprovedForAll",
      "outputs": [
        {
          "name": "",
          "type": "bool"
        }
      ],
      "payable": false,
      "stateMutability": "view",
      "type": "function"
    },
    {
      "constant": false,
      "inputs": [
        {
          "name": "newOwner",
          "type": "address"
        }
      ],
      "name": "transferOwnership",
      "outputs": [],
      "payable": false,
      "stateMutability": "nonpayable",
      "type": "function"
    },
    {
      "constant": true,
      "inputs": [
        {
          "name": "",
          "type": "uint256"
        }
      ],
      "name": "players",
      "outputs": [
        {
          "name": "xp",
          "type": "uint256"
        },
        {
          "name": "name",
          "type": "string"
        },
        {
          "name": "age",
          "type": "uint8"
        },
        {
          "name": "height",
          "type": "uint8"
        },
        {
          "name": "condition",
          "type": "uint8"
        },
        {
          "name": "agility",
          "type": "uint8"
        },
        {
          "name": "power",
          "type": "uint8"
        },
        {
          "name": "stamina",
          "type": "uint8"
        },
        {
          "name": "technique",
          "type": "uint8"
        }
      ],
      "payable": false,
      "stateMutability": "view",
      "type": "function"
    },
    {
      "anonymous": false,
      "inputs": [
        {
          "indexed": true,
          "name": "playerId",
          "type": "uint256"
        }
      ],
      "name": "Enlist",
      "type": "event"
    },
    {
      "anonymous": false,
      "inputs": [
        {
          "indexed": true,
          "name": "playerId",
          "type": "uint256"
        }
      ],
      "name": "Delist",
      "type": "event"
    },
    {
      "anonymous": false,
      "inputs": [
        {
          "indexed": true,
          "name": "playerId",
          "type": "uint256"
        },
        {
          "indexed": true,
          "name": "opponentId",
          "type": "uint256"
        },
        {
          "indexed": true,
          "name": "winner",
          "type": "uint256"
        }
      ],
      "name": "MatchPlayed",
      "type": "event"
    },
    {
      "anonymous": false,
      "inputs": [
        {
          "indexed": true,
          "name": "previousOwner",
          "type": "address"
        },
        {
          "indexed": true,
          "name": "newOwner",
          "type": "address"
        }
      ],
      "name": "OwnershipTransferred",
      "type": "event"
    },
    {
      "anonymous": false,
      "inputs": [
        {
          "indexed": true,
          "name": "from",
          "type": "address"
        },
        {
          "indexed": true,
          "name": "to",
          "type": "address"
        },
        {
          "indexed": true,
          "name": "tokenId",
          "type": "uint256"
        }
      ],
      "name": "Transfer",
      "type": "event"
    },
    {
      "anonymous": false,
      "inputs": [
        {
          "indexed": true,
          "name": "owner",
          "type": "address"
        },
        {
          "indexed": true,
          "name": "approved",
          "type": "address"
        },
        {
          "indexed": true,
          "name": "tokenId",
          "type": "uint256"
        }
      ],
      "name": "Approval",
      "type": "event"
    },
    {
      "anonymous": false,
      "inputs": [
        {
          "indexed": true,
          "name": "owner",
          "type": "address"
        },
        {
          "indexed": true,
          "name": "operator",
          "type": "address"
        },
        {
          "indexed": false,
          "name": "approved",
          "type": "bool"
        }
      ],
      "name": "ApprovalForAll",
      "type": "event"
    },
    {
      "constant": false,
      "inputs": [
        {
          "name": "_id",
          "type": "uint256"
        }
      ],
      "name": "enlist",
      "outputs": [],
      "payable": false,
      "stateMutability": "nonpayable",
      "type": "function"
    },
    {
      "constant": false,
      "inputs": [
        {
          "name": "_id",
          "type": "uint256"
        }
      ],
      "name": "delist",
      "outputs": [],
      "payable": false,
      "stateMutability": "nonpayable",
      "type": "function"
    },
    {
      "constant": false,
      "inputs": [
        {
          "name": "_id",
          "type": "uint256"
        },
        {
          "name": "_opponentId",
          "type": "uint256"
        }
      ],
      "name": "playMatch",
      "outputs": [],
      "payable": false,
      "stateMutability": "nonpayable",
      "type": "function"
    }
  ],
  "bytecode": "0x6080604052600b8054601460ff199091161761ff001916610a001762ff0000191662050000179055620000597f01ffc9a700000000000000000000000000000000000000000000000000000000620000ef602090811b901c565b620000716380ac58cd60e01b620000ef60201b60201c565b6200008963780e9d6360e01b620000ef60201b60201c565b60006200009b620001be60201b60201c565b600980546001600160a01b0319166001600160a01b038316908117909155604051919250906000907f8be0079c531659141344cd1fd0a4f28419497f9722a3daafe3b4186f6b6457e0908290a350620001c2565b7fffffffff0000000000000000000000000000000000000000000000000000000080821614156200018157604080517f08c379a000000000000000000000000000000000000000000000000000000000815260206004820152601c60248201527f4552433136353a20696e76616c696420696e7465726661636520696400000000604482015290519081900360640190fd5b7fffffffff00000000000000000000000000000000000000000000000000000000166000908152602081905260409020805460ff19166001179055565b3390565b6126f280620001d26000396000f3fe608060405234801561001057600080fd5b506004361061018e5760003560e01c806370a08231116100de578063a22cb46511610097578063daf15ebd11610071578063daf15ebd146105c8578063e985e9c5146105eb578063f2fde38b14610619578063f71d96cb1461063f5761018e565b8063a22cb465146103e4578063b88d4fde14610412578063c6da6e2b146104d85761018e565b806370a0823114610381578063715018a6146103a75780638da5cb5b146103af5780638f32d59b146103b7578063964bc33f146103bf578063a18fc316146103dc5761018e565b806323b872dd1161014b57806342842e0e1161012557806342842e0e146103095780634f6ccce71461033f578063561dded11461035c5780636352211e146103645761018e565b806323b872dd1461028a5780632f745c59146102c05780633d8b7894146102ec5761018e565b806301ffc9a714610193578063050fae6a146101ce578063081812fc146101ec578063095ea7b31461022557806318160ddd146102535780631fb942251461026d575b600080fd5b6101ba600480360360208110156101a957600080fd5b50356001600160e01b031916610720565b604080519115158252519081900360200190f35b6101d6610743565b6040805160ff9092168252519081900360200190f35b6102096004803603602081101561020257600080fd5b5035610751565b604080516001600160a01b039092168252519081900360200190f35b6102516004803603604081101561023b57600080fd5b506001600160a01b0381351690602001356107b8565b005b61025b6108e2565b60408051918252519081900360200190f35b6101ba6004803603602081101561028357600080fd5b50356108e9565b610251600480360360608110156102a057600080fd5b506001600160a01b038135811691602081013590911690604001356108fe565b61025b600480360360408110156102d657600080fd5b506001600160a01b03813516906020013561095f565b6102516004803603602081101561030257600080fd5b50356109e1565b6102516004803603606081101561031f57600080fd5b506001600160a01b03813581169160208101359091169060400135610b67565b61025b6004803603602081101561035557600080fd5b5035610b82565b6101d6610bec565b6102096004803603602081101561037a57600080fd5b5035610bfb565b61025b6004803603602081101561039757600080fd5b50356001600160a01b0316610c5a565b610251610cc7565b610209610d6f565b6101ba610d7e565b610251600480360360208110156103d557600080fd5b5035610da4565b6101d6610e63565b610251600480360360408110156103fa57600080fd5b506001600160a01b0381351690602001351515610e6c565b6102516004803603608081101561042857600080fd5b6001600160a01b0382358116926020810135909116916040820135919081019060808101606082013564010000000081111561046357600080fd5b82018360208201111561047557600080fd5b8035906020019184600183028401116401000000008311171561049757600080fd5b91908080601f016020809104026020016040519081016040528093929190818152602001838380828437600092019190915250929550610f6e945050505050565b61025b60048036036101408110156104ef57600080fd5b8135919081019060408101602082013564010000000081111561051157600080fd5b82018360208201111561052357600080fd5b8035906020019184600183028401116401000000008311171561054557600080fd5b91908080601f0160208091040260200160405190810160405280939291908181526020018383808284376000920191909152509295505050813560ff908116935060208301358116926040810135821692506060810135821691608082013581169160a081013582169160c0820135169060e001356001600160a01b0316610fd1565b610251600480360360408110156105de57600080fd5b50803590602001356111c0565b6101ba6004803603604081101561060157600080fd5b506001600160a01b0381358116916020013516611624565b6102516004803603602081101561062f57600080fd5b50356001600160a01b0316611652565b61065c6004803603602081101561065557600080fd5b50356116b9565b604080518a815260ff808a16928201929092528782166060820152868216608082015285821660a082015284821660c082015283821660e082015290821661010082015261012060208083018281528b51928401929092528a516101408401918c019080838360005b838110156106dd5781810151838201526020016106c5565b50505050905090810190601f16801561070a5780820380516001836020036101000a031916815260200191505b509a505050505050505050505060405180910390f35b6001600160e01b0319811660009081526020819052604090205460ff165b919050565b600b54610100900460ff1681565b600061075c826117cd565b151561079c57604051600160e51b62461bcd02815260040180806020018281038252602c8152602001806125f4602c913960400191505060405180910390fd5b506000908152600260205260409020546001600160a01b031690565b60006107c382610bfb565b90506001600160a01b03838116908216141561081357604051600160e51b62461bcd0281526004018080602001828103825260218152602001806126496021913960400191505060405180910390fd5b806001600160a01b03166108256117ea565b6001600160a01b031614806108465750610846816108416117ea565b611624565b151561088657604051600160e51b62461bcd0281526004018080602001828103825260388152602001806125696038913960400191505060405180910390fd5b60008281526002602052604080822080546001600160a01b0319166001600160a01b0387811691821790925591518593918516917f8c5be1e5ebec7d5bd14f71427d1e84f3dd0314c0f7b2291e5b200ac8c7c3b92591a4505050565b6007545b90565b600c6020526000908152604090205460ff1681565b61090f6109096117ea565b826117ee565b151561094f57604051600160e51b62461bcd02815260040180806020018281038252603181526020018061266a6031913960400191505060405180910390fd5b61095a838383611897565b505050565b600061096a83610c5a565b82106109aa57604051600160e51b62461bcd02815260040180806020018281038252602b815260200180612450602b913960400191505060405180910390fd5b6001600160a01b03831660009081526005602052604090208054839081106109ce57fe5b9060005260206000200154905092915050565b336109eb82610bfb565b6001600160a01b031614610a3357604051600160e51b62461bcd02815260040180806020018281038252602181526020018061251c6021913960400191505060405180910390fd5b6000818152600c602052604090205460ff1615610a9a5760408051600160e51b62461bcd02815260206004820152601c60248201527f4d757374206e6f7420616c726561647920626520656e6c697374656400000000604482015290519081900360640190fd5b600b54600a805460ff9092169183908110610ab157fe5b600091825260209091206003909102016002015462010000900460ff161015610b245760408051600160e51b62461bcd02815260206004820152601b60248201527f4d757374206265206d617463682066697420746f20656e6c6973740000000000604482015290519081900360640190fd5b6000818152600c6020526040808220805460ff191660011790555182917ff2ffc74f2561385e2dda97fd2fed03df7841a8aa26fdf1f5fb28c6cc4950dc0191a250565b61095a83838360405180602001604052806000815250610f6e565b6000610b8c6108e2565b8210610bcc57604051600160e51b62461bcd02815260040180806020018281038252602c81526020018061269b602c913960400191505060405180910390fd5b6007805483908110610bda57fe5b90600052602060002001549050919050565b600b5462010000900460ff1681565b6000818152600160205260408120546001600160a01b0316801515610c5457604051600160e51b62461bcd0281526004018080602001828103825260298152602001806125cb6029913960400191505060405180910390fd5b92915050565b60006001600160a01b0382161515610ca657604051600160e51b62461bcd02815260040180806020018281038252602a8152602001806125a1602a913960400191505060405180910390fd5b6001600160a01b0382166000908152600360205260409020610c54906118b6565b610ccf610d7e565b1515610d255760408051600160e51b62461bcd02815260206004820181905260248201527f4f776e61626c653a2063616c6c6572206973206e6f7420746865206f776e6572604482015290519081900360640190fd5b6009546040516000916001600160a01b0316907f8be0079c531659141344cd1fd0a4f28419497f9722a3daafe3b4186f6b6457e0908390a3600980546001600160a01b0319169055565b6009546001600160a01b031690565b6009546000906001600160a01b0316610d956117ea565b6001600160a01b031614905090565b33610dae82610bfb565b6001600160a01b031614610df657604051600160e51b62461bcd02815260040180806020018281038252602181526020018061251c6021913960400191505060405180910390fd5b6000818152600c602052604090205460ff161515600114610e575760408051600160e51b62461bcd0281526020600482015260106024820152600160821b6f135d5cdd08189948195b9b1a5cdd195902604482015290519081900360640190fd5b610e60816118ba565b50565b600b5460ff1681565b610e746117ea565b6001600160a01b0383811691161415610ed75760408051600160e51b62461bcd02815260206004820152601960248201527f4552433732313a20617070726f766520746f2063616c6c657200000000000000604482015290519081900360640190fd5b8060046000610ee46117ea565b6001600160a01b03908116825260208083019390935260409182016000908120918716808252919093529120805460ff191692151592909217909155610f286117ea565b60408051841515815290516001600160a01b0392909216917f17307eab39ab6107e8899845ad3d59bd9653f200f220920489ca2b5937696c319181900360200190a35050565b610f7f610f796117ea565b836117ee565b1515610fbf57604051600160e51b62461bcd02815260040180806020018281038252603181526020018061266a6031913960400191505060405180910390fd5b610fcb848484846118fa565b50505050565b6000610fdb610d7e565b15156110315760408051600160e51b62461bcd02815260206004820181905260248201527f4f776e61626c653a2063616c6c6572206973206e6f7420746865206f776e6572604482015290519081900360640190fd5b6000600a805490509050600a6040518061012001604052808e81526020018d81526020018c60ff1681526020018b60ff1681526020018a60ff1681526020018960ff1681526020018860ff1681526020018760ff1681526020018660ff16815250908060018154018082558091505090600182039060005260206000209060030201600090919290919091506000820151816000015560208201518160010190805190602001906110e392919061239b565b50604082015160029190910180546060840151608085015160a086015160c087015160e08801516101009889015160ff1990961660ff9889161761ff0019169488169098029390931762ff0000191662010000928716929092029190911763ff00000019166301000000918616919091021764ff000000001916640100000000918516919091021765ff0000000000191665010000000000948416949094029390931766ff000000000000191666010000000000009290931691909102919091179055506111b18382611951565b9b9a5050505050505050505050565b336111ca83610bfb565b6001600160a01b03161461121257604051600160e51b62461bcd02815260040180806020018281038252602181526020018061251c6021913960400191505060405180910390fd5b6000828152600c602052604090205460ff1615156001146112735760408051600160e51b62461bcd0281526020600482015260106024820152600160821b6f135d5cdd08189948195b9b1a5cdd195902604482015290519081900360640190fd5b6000818152600c602052604090205460ff1615156001146112de5760408051600160e51b62461bcd02815260206004820152601960248201527f4f70706f6e656e74206d75737420626520656e6c697374656400000000000000604482015290519081900360640190fd5b61131d826040518060400160405280601a81526020017f506c61796572206e6f74206d6174636820636f6e646974696f6e00000000000081525061196f565b61135c816040518060400160405280601c81526020017f4f70706f6e656e74206e6f74206d6174636820636f6e646974696f6e0000000081525061196f565b6000611439600a8481548110151561137057fe5b906000526020600020906003020160020160069054906101000a900460ff1660ff1661142d600a868154811015156113a457fe5b906000526020600020906003020160020160059054906101000a900460ff1660ff1661142d600a888154811015156113d857fe5b906000526020600020906003020160020160049054906101000a900460ff1660ff16600a8981548110151561140957fe5b60009182526020909120600390910201600201546301000000900460ff1690611a06565b9063ffffffff611a0616565b9050600061144f600a8481548110151561137057fe5b600b54600a8054929350611498926114939260ff1691908890811061147057fe5b600091825260209091206003909102016002015462010000900460ff1690611a6a565b611aac565b600a8054869081106114a657fe5b60009182526020909120600390910201600201805462ff000019166201000060ff93841602179055600b54600a80546114ea93611493931691908790811061147057fe5b600a8054859081106114f857fe5b906000526020600020906003020160020160026101000a81548160ff021916908360ff16021790555060008082841015611533578486611536565b85855b9150915061157c600b60019054906101000a900460ff1660ff16600a8481548110151561155f57fe5b60009182526020909120600390910201549063ffffffff611a0616565b600a80548490811061158a57fe5b6000918252602090912060039091020155600b54600a80546115bb9262010000900460ff1691908490811061155f57fe5b600a8054839081106115c957fe5b600091825260208220600390910201919091556040518391879189917f9dcee82476e7972008ebee70c4c5b286d94d3dfa4fe0a715f8eec92c75cf54e991a461161186611af5565b5061161b85611af5565b50505050505050565b6001600160a01b03918216600090815260046020908152604080832093909416825291909152205460ff1690565b61165a610d7e565b15156116b05760408051600160e51b62461bcd02815260206004820181905260248201527f4f776e61626c653a2063616c6c6572206973206e6f7420746865206f776e6572604482015290519081900360640190fd5b610e6081611b49565b600a8054829081106116c757fe5b9060005260206000209060030201600091509050806000015490806001018054600181600116156101000203166002900480601f0160208091040260200160405190810160405280929190818152602001828054600181600116156101000203166002900480156117795780601f1061174e57610100808354040283529160200191611779565b820191906000526020600020905b81548152906001019060200180831161175c57829003601f168201915b5050506002909301549192505060ff80821691610100810482169162010000820481169163010000008104821691640100000000820481169165010000000000810482169166010000000000009091041689565b6000908152600160205260409020546001600160a01b0316151590565b3390565b60006117f9826117cd565b151561183957604051600160e51b62461bcd02815260040180806020018281038252602c81526020018061253d602c913960400191505060405180910390fd5b600061184483610bfb565b9050806001600160a01b0316846001600160a01b0316148061187f5750836001600160a01b031661187484610751565b6001600160a01b0316145b8061188f575061188f8185611624565b949350505050565b6118a2838383611bef565b6118ac8382611d3b565b61095a8282611e32565b5490565b6000818152600c6020526040808220805460ff191690555182917f2c525dc2c086b9a2f3b902d229853b5b838fcedc22933c40ed7ebe4890a53a8291a250565b611905848484611897565b61191184848484611e70565b1515610fcb57604051600160e51b62461bcd02815260040180806020018281038252603281526020018061247b6032913960400191505060405180910390fd5b61196b8282604051806020016040528060008152506120b8565b5050565b61197882611af5565b151561196b5780604051600160e51b62461bcd0281526004018080602001828103825283818151815260200191508051906020019080838360005b838110156119cb5781810151838201526020016119b3565b50505050905090810190601f1680156119f85780820380516001836020036101000a031916815260200191505b509250505060405180910390fd5b600082820183811015611a635760408051600160e51b62461bcd02815260206004820152601b60248201527f536166654d6174683a206164646974696f6e206f766572666c6f770000000000604482015290519081900360640190fd5b9392505050565b6000611a6383836040518060400160405280601e81526020017f536166654d6174683a207375627472616374696f6e206f766572666c6f77000081525061210f565b60006101008210611af157604051600160e51b62461bcd0281526004018080602001828103825260258152602001806124d36025913960400191505060405180910390fd5b5090565b600b54600a805460009260ff16919084908110611b0e57fe5b600091825260209091206003909102016002015462010000900460ff1611611b4157611b39826118ba565b50600061073e565b506001919050565b6001600160a01b0381161515611b9357604051600160e51b62461bcd0281526004018080602001828103825260268152602001806124ad6026913960400191505060405180910390fd5b6009546040516001600160a01b038084169216907f8be0079c531659141344cd1fd0a4f28419497f9722a3daafe3b4186f6b6457e090600090a3600980546001600160a01b0319166001600160a01b0392909216919091179055565b826001600160a01b0316611c0282610bfb565b6001600160a01b031614611c4a57604051600160e51b62461bcd0281526004018080602001828103825260298152602001806126206029913960400191505060405180910390fd5b6001600160a01b0382161515611c9457604051600160e51b62461bcd0281526004018080602001828103825260248152602001806124f86024913960400191505060405180910390fd5b611c9d8161216d565b6001600160a01b0383166000908152600360205260409020611cbe906121a8565b6001600160a01b0382166000908152600360205260409020611cdf906121bf565b60008181526001602052604080822080546001600160a01b0319166001600160a01b0386811691821790925591518493918716917fddf252ad1be2c89b69c2b068fc378daa952ba7f163c4a11628f55a4df523b3ef91a4505050565b6001600160a01b038216600090815260056020526040812054611d6590600163ffffffff611a6a16565b600083815260066020526040902054909150808214611e02576001600160a01b0384166000908152600560205260408120805484908110611da257fe5b906000526020600020015490508060056000876001600160a01b03166001600160a01b0316815260200190815260200160002083815481101515611de257fe5b600091825260208083209091019290925591825260069052604090208190555b6001600160a01b0384166000908152600560205260409020805490611e2b906000198301612415565b5050505050565b6001600160a01b0390911660009081526005602081815260408084208054868652600684529185208290559282526001810183559183529091200155565b6000611e84846001600160a01b03166121c8565b1515611e925750600161188f565b600060606001600160a01b038616600160e11b630a85bd0102611eb36117ea565b89888860405160240180856001600160a01b03166001600160a01b03168152602001846001600160a01b03166001600160a01b0316815260200183815260200180602001828103825283818151815260200191508051906020019080838360005b83811015611f2c578181015183820152602001611f14565b50505050905090810190601f168015611f595780820380516001836020036101000a031916815260200191505b5060408051601f198184030181529181526020820180516001600160e01b03166001600160e01b0319909a16999099178952518151919890975087965094509250829150849050835b60208310611fc15780518252601f199092019160209182019101611fa2565b6001836020036101000a0380198251168184511680821785525050505050509050019150506000604051808303816000865af19150503d8060008114612023576040519150601f19603f3d011682016040523d82523d6000602084013e612028565b606091505b509150915081151561207e578051156120445780518082602001fd5b604051600160e51b62461bcd02815260040180806020018281038252603281526020018061247b6032913960400191505060405180910390fd5b600081806020019051602081101561209557600080fd5b50516001600160e01b031916600160e11b630a85bd010214935061188f92505050565b6120c28383612201565b6120cf6000848484611e70565b151561095a57604051600160e51b62461bcd02815260040180806020018281038252603281526020018061247b6032913960400191505060405180910390fd5b6000818484111561216557604051600160e51b62461bcd028152600401808060200182810382528381815181526020019150805190602001908083836000838110156119cb5781810151838201526020016119b3565b505050900390565b6000818152600260205260409020546001600160a01b031615610e6057600090815260026020526040902080546001600160a01b0319169055565b80546121bb90600163ffffffff611a6a16565b9055565b80546001019055565b6000813f7fc5d2460186f7233c927e7db2dcc703c0e500b653ca82273b7bfad8045d85a47081811480159061188f575050151592915050565b61220b828261221e565b6122158282611e32565b61196b81612357565b6001600160a01b038216151561227e5760408051600160e51b62461bcd02815260206004820181905260248201527f4552433732313a206d696e7420746f20746865207a65726f2061646472657373604482015290519081900360640190fd5b612287816117cd565b156122dc5760408051600160e51b62461bcd02815260206004820152601c60248201527f4552433732313a20746f6b656e20616c7265616479206d696e74656400000000604482015290519081900360640190fd5b600081815260016020908152604080832080546001600160a01b0319166001600160a01b03871690811790915583526003909152902061231b906121bf565b60405181906001600160a01b038416906000907fddf252ad1be2c89b69c2b068fc378daa952ba7f163c4a11628f55a4df523b3ef908290a45050565b600780546000838152600860205260408120829055600182018355919091527fa66cc928b5edb82af9bd49922954155ab7b0942694bea4ce44661d9a8736c6880155565b828054600181600116156101000203166002900490600052602060002090601f016020900481019282601f106123dc57805160ff1916838001178555612409565b82800160010185558215612409579182015b828111156124095782518255916020019190600101906123ee565b50611af1929150612435565b81548183558181111561095a5760008381526020902061095a9181019083015b6108e691905b80821115611af1576000815560010161243b56fe455243373231456e756d657261626c653a206f776e657220696e646578206f7574206f6620626f756e64734552433732313a207472616e7366657220746f206e6f6e20455243373231526563656976657220696d706c656d656e7465724f776e61626c653a206e6577206f776e657220697320746865207a65726f206164647265737353616665436173743a2076616c756520646f65736e27742066697420696e203820626974734552433732313a207472616e7366657220746f20746865207a65726f20616464726573734d757374206265206f776e6572206f6620706c6179657220746f20656e6c6973744552433732313a206f70657261746f7220717565727920666f72206e6f6e6578697374656e7420746f6b656e4552433732313a20617070726f76652063616c6c6572206973206e6f74206f776e6572206e6f7220617070726f76656420666f7220616c6c4552433732313a2062616c616e636520717565727920666f7220746865207a65726f20616464726573734552433732313a206f776e657220717565727920666f72206e6f6e6578697374656e7420746f6b656e4552433732313a20617070726f76656420717565727920666f72206e6f6e6578697374656e7420746f6b656e4552433732313a207472616e73666572206f6620746f6b656e2074686174206973206e6f74206f776e4552433732313a20617070726f76616c20746f2063757272656e74206f776e65724552433732313a207472616e736665722063616c6c6572206973206e6f74206f776e6572206e6f7220617070726f766564455243373231456e756d657261626c653a20676c6f62616c20696e646578206f7574206f6620626f756e6473a165627a7a723058202ee718d82d7869801509b175e5011cca927374f85c06c1f0605f64cfa87b8b2a0029",
  "source": "// Author: Alex Roan\npragma solidity ^0.5.5;\n\nimport \"./TennisPlayerBase.sol\";\nimport \"@openzeppelin/contracts/math/SafeMath.sol\";\nimport \"@openzeppelin/contracts/utils/SafeCast.sol\";\n\ncontract CompetingTennisPlayer is TennisPlayerBase {\n\n    using SafeMath for uint;\n    using SafeCast for uint;\n\n    // conditionCostToPlay\n    uint8 public conditionCostToPlay = 20;\n    // xpGainWin\n    uint8 public xpGainWin = 10;\n    // xpGainLose\n    uint8 public xpGainLose = 5;\n\n    // enlistedPlayers\n    mapping(uint => bool) public enlistedPlayers;\n\n    // enlistEvent\n    event Enlist(uint indexed playerId);\n    // delistEvent\n    event Delist(uint indexed playerId);\n    // matchPlayed\n    event MatchPlayed(uint indexed playerId, uint indexed opponentId, uint indexed winner);\n\n    // Enlist player to compete with others\n    function enlist(uint _id) public {\n        // Only the owner of the player can train\n        require(ownerOf(_id) == msg.sender, \"Must be owner of player to enlist\");\n        // Must not be enlisted already\n        require(enlistedPlayers[_id] == false, \"Must not already be enlisted\");\n        // Match fit check\n        require(players[_id].condition >= conditionCostToPlay, \"Must be match fit to enlist\");\n\n        // Enlist\n        enlistedPlayers[_id] = true;\n        // Emit event\n        emit Enlist(_id);\n    }\n\n    // Delist player from competing with others\n    function delist(uint _id) public {\n        // Only the owner of the player can train\n        require(ownerOf(_id) == msg.sender, \"Must be owner of player to enlist\");\n        // Must be enlisted\n        require(enlistedPlayers[_id] == true, \"Must be enlisted\");\n        // Run delist\n        _delist(_id);\n    }\n\n    // Play match against opponent\n    function playMatch(uint _id, uint _opponentId) public {\n        // Only the owner of the player can train\n        require(ownerOf(_id) == msg.sender, \"Must be owner of player to enlist\");\n        // Must be enlisted\n        require(enlistedPlayers[_id] == true, \"Must be enlisted\");\n        // Opponent must be enlisted\n        require(enlistedPlayers[_opponentId] == true, \"Opponent must be enlisted\");\n        // Ensure player's condition is high enough\n        _requireMatchCondition(_id, \"Player not match condition\");\n        // Ensure opponents's condition is high enough\n        _requireMatchCondition(_opponentId, \"Opponent not match condition\");\n\n        // TODO move this to train?\n        // TODO Better match mechanics\n        uint playerScore = uint(players[_id].agility)\n            .add(uint(players[_id].power))\n            .add(uint(players[_id].stamina))\n            .add(uint(players[_id].technique));\n\n        uint opponentScore = uint(players[_opponentId].agility)\n            .add(uint(players[_opponentId].power))\n            .add(uint(players[_opponentId].stamina))\n            .add(uint(players[_opponentId].technique));\n\n        // condition changes\n        players[_id].condition = uint(players[_id].condition).sub(uint(conditionCostToPlay)).toUint8();\n        players[_opponentId].condition = uint(players[_opponentId].condition).sub(uint(conditionCostToPlay)).toUint8();\n        // determine winner\n        (uint winner, uint loser) = (playerScore >= opponentScore) ? (_id, _opponentId) : (_opponentId, _id);\n        // xp changes\n        players[winner].xp = uint(players[winner].xp).add(uint(xpGainWin));\n        players[loser].xp = uint(players[loser].xp).add(uint(xpGainLose));\n        // emit matchplayed\n        emit MatchPlayed(_id, _opponentId, winner);\n        // check condition again\n        _isMatchCondition(_id);\n        _isMatchCondition(_opponentId);\n    }\n\n    // Perform the delisting\n    function _delist(uint _id) private {\n        // Delist\n        enlistedPlayers[_id] = false;\n        // Emit event\n        emit Delist(_id);\n    }\n\n    // Revert if not match condition\n    function _requireMatchCondition(uint _id, string memory _message) private {\n        if (!_isMatchCondition(_id)) {\n            revert(_message);\n        }\n    }\n\n    // Check player is in match condition, if not, delist\n    function _isMatchCondition(uint _id) private returns (bool) {\n        // Ensure player's condition is high enough\n        // Delist if not\n        if (players[_id].condition <= conditionCostToPlay) {\n            _delist(_id);\n            return false;\n        }\n        return true;\n    }\n}",
  "sourcePath": "/Users/alexroan/Documents/Projects/Blockchain/DApps/tennis-manager/contracts/CompetingTennisPlayer.sol",
  "compiler": {
    "name": "solc",
    "version": "0.5.5+commit.47a71e8f.Emscripten.clang"
  },
  "schemaVersion": "3.0.23",
  "updatedAt": "2020-04-01T11:20:07.607Z",
  "devdoc": {
    "methods": {
      "approve(address,uint256)": {
        "details": "Approves another address to transfer the given token ID The zero address indicates there is no approved address. There can only be one approved address per token at a given time. Can only be called by the token owner or an approved operator.",
        "params": {
          "to": "address to be approved for the given token ID",
          "tokenId": "uint256 ID of the token to be approved"
        }
      },
      "balanceOf(address)": {
        "details": "Gets the balance of the specified address.",
        "params": {
          "owner": "address to query the balance of"
        },
        "return": "uint256 representing the amount owned by the passed address"
      },
      "getApproved(uint256)": {
        "details": "Gets the approved address for a token ID, or zero if no address set Reverts if the token ID does not exist.",
        "params": {
          "tokenId": "uint256 ID of the token to query the approval of"
        },
        "return": "address currently approved for the given token ID"
      },
      "isApprovedForAll(address,address)": {
        "details": "Tells whether an operator is approved by a given owner.",
        "params": {
          "operator": "operator address which you want to query the approval of",
          "owner": "owner address which you want to query the approval of"
        },
        "return": "bool whether the given operator is approved by the given owner"
      },
      "isOwner()": {
        "details": "Returns true if the caller is the current owner."
      },
      "owner()": {
        "details": "Returns the address of the current owner."
      },
      "ownerOf(uint256)": {
        "details": "Gets the owner of the specified token ID.",
        "params": {
          "tokenId": "uint256 ID of the token to query the owner of"
        },
        "return": "address currently marked as the owner of the given token ID"
      },
      "renounceOwnership()": {
        "details": "Leaves the contract without owner. It will not be possible to call `onlyOwner` functions anymore. Can only be called by the current owner.     * NOTE: Renouncing ownership will leave the contract without an owner, thereby removing any functionality that is only available to the owner."
      },
      "safeTransferFrom(address,address,uint256)": {
        "details": "Safely transfers the ownership of a given token ID to another address If the target address is a contract, it must implement {IERC721Receiver-onERC721Received}, which is called upon a safe transfer, and return the magic value `bytes4(keccak256(\"onERC721Received(address,address,uint256,bytes)\"))`; otherwise, the transfer is reverted. Requires the msg.sender to be the owner, approved, or operator",
        "params": {
          "from": "current owner of the token",
          "to": "address to receive the ownership of the given token ID",
          "tokenId": "uint256 ID of the token to be transferred"
        }
      },
      "safeTransferFrom(address,address,uint256,bytes)": {
        "details": "Safely transfers the ownership of a given token ID to another address If the target address is a contract, it must implement {IERC721Receiver-onERC721Received}, which is called upon a safe transfer, and return the magic value `bytes4(keccak256(\"onERC721Received(address,address,uint256,bytes)\"))`; otherwise, the transfer is reverted. Requires the _msgSender() to be the owner, approved, or operator",
        "params": {
          "_data": "bytes data to send along with a safe transfer check",
          "from": "current owner of the token",
          "to": "address to receive the ownership of the given token ID",
          "tokenId": "uint256 ID of the token to be transferred"
        }
      },
      "setApprovalForAll(address,bool)": {
        "details": "Sets or unsets the approval of a given operator An operator is allowed to transfer all tokens of the sender on their behalf.",
        "params": {
          "approved": "representing the status of the approval to be set",
          "to": "operator address to set the approval"
        }
      },
      "supportsInterface(bytes4)": {
        "details": "See {IERC165-supportsInterface}.     * Time complexity O(1), guaranteed to always use less than 30 000 gas."
      },
      "tokenByIndex(uint256)": {
        "details": "Gets the token ID at a given index of all the tokens in this contract Reverts if the index is greater or equal to the total number of tokens.",
        "params": {
          "index": "uint256 representing the index to be accessed of the tokens list"
        },
        "return": "uint256 token ID at the given index of the tokens list"
      },
      "tokenOfOwnerByIndex(address,uint256)": {
        "details": "Gets the token ID at a given index of the tokens list of the requested owner.",
        "params": {
          "index": "uint256 representing the index to be accessed of the requested tokens list",
          "owner": "address owning the tokens list to be accessed"
        },
        "return": "uint256 token ID at the given index of the tokens list owned by the requested address"
      },
      "totalSupply()": {
        "details": "Gets the total amount of tokens stored by the contract.",
        "return": "uint256 representing the total amount of tokens"
      },
      "transferFrom(address,address,uint256)": {
        "details": "Transfers the ownership of a given token ID to another address. Usage of this method is discouraged, use {safeTransferFrom} whenever possible. Requires the msg.sender to be the owner, approved, or operator.",
        "params": {
          "from": "current owner of the token",
          "to": "address to receive the ownership of the given token ID",
          "tokenId": "uint256 ID of the token to be transferred"
        }
      },
      "transferOwnership(address)": {
        "details": "Transfers ownership of the contract to a new account (`newOwner`). Can only be called by the current owner."
      }
    }
  },
  "userdoc": {
    "methods": {}
  }
}