{
  "contractName": "Game",
  "abi": [
    {
      "constant": false,
      "inputs": [],
      "name": "renounceOwnership",
      "outputs": [],
      "payable": false,
      "stateMutability": "nonpayable",
      "type": "function"
    },
    {
      "constant": true,
      "inputs": [],
      "name": "owner",
      "outputs": [
        {
          "name": "",
          "type": "address"
        }
      ],
      "payable": false,
      "stateMutability": "view",
      "type": "function"
    },
    {
      "constant": true,
      "inputs": [],
      "name": "isOwner",
      "outputs": [
        {
          "name": "",
          "type": "bool"
        }
      ],
      "payable": false,
      "stateMutability": "view",
      "type": "function"
    },
    {
      "constant": true,
      "inputs": [],
      "name": "playerTokenAddress",
      "outputs": [
        {
          "name": "",
          "type": "address"
        }
      ],
      "payable": false,
      "stateMutability": "view",
      "type": "function"
    },
    {
      "constant": false,
      "inputs": [
        {
          "name": "newOwner",
          "type": "address"
        }
      ],
      "name": "transferOwnership",
      "outputs": [],
      "payable": false,
      "stateMutability": "nonpayable",
      "type": "function"
    },
    {
      "inputs": [],
      "payable": false,
      "stateMutability": "nonpayable",
      "type": "constructor"
    },
    {
      "anonymous": false,
      "inputs": [
        {
          "indexed": true,
          "name": "previousOwner",
          "type": "address"
        },
        {
          "indexed": true,
          "name": "newOwner",
          "type": "address"
        }
      ],
      "name": "OwnershipTransferred",
      "type": "event"
    },
    {
      "constant": false,
      "inputs": [
        {
          "name": "_name",
          "type": "string"
        },
        {
          "name": "_age",
          "type": "uint8"
        },
        {
          "name": "_height",
          "type": "uint8"
        }
      ],
      "name": "newPlayer",
      "outputs": [
        {
          "name": "",
          "type": "uint256"
        }
      ],
      "payable": false,
      "stateMutability": "nonpayable",
      "type": "function"
    }
  ],
  "bytecode": "0x60806040526064600255600380546401000000006201000061010060ff60ff199094169390931761ff0019169290921762ff000019169190911763ff000000191663020000001764ff00000000191617905534801561005d57600080fd5b50600061006e61010660201b60201c565b600080546001600160a01b0319166001600160a01b0383169081178255604051929350917f8be0079c531659141344cd1fd0a4f28419497f9722a3daafe3b4186f6b6457e0908290a3506040516100c49061010a565b604051809103906000f0801580156100e0573d6000803e3d6000fd5b50600180546001600160a01b0319166001600160a01b0392909216919091179055610117565b3390565b613061806106df83390190565b6105b9806101266000396000f3fe608060405234801561001057600080fd5b50600436106100625760003560e01c8063715018a6146100675780638da5cb5b146100715780638f32d59b14610095578063b2db50f2146100b1578063daac518a14610179578063f2fde38b14610181575b600080fd5b61006f6101a7565b005b61007961024f565b604080516001600160a01b039092168252519081900360200190f35b61009d61025e565b604080519115158252519081900360200190f35b610167600480360360608110156100c757600080fd5b8101906020810181356401000000008111156100e257600080fd5b8201836020820111156100f457600080fd5b8035906020019184600183028401116401000000008311171561011657600080fd5b91908080601f0160208091040260200160405190810160405280939291908181526020018383808284376000920191909152509295505060ff83358116945060209093013590921691506102829050565b60408051918252519081900360200190f35b610079610445565b61006f6004803603602081101561019757600080fd5b50356001600160a01b0316610454565b6101af61025e565b15156102055760408051600160e51b62461bcd02815260206004820181905260248201527f4f776e61626c653a2063616c6c6572206973206e6f7420746865206f776e6572604482015290519081900360640190fd5b600080546040516001600160a01b03909116907f8be0079c531659141344cd1fd0a4f28419497f9722a3daafe3b4186f6b6457e0908390a3600080546001600160a01b0319169055565b6000546001600160a01b031690565b600080546001600160a01b03166102736104be565b6001600160a01b031614905090565b6000600160009054906101000a90046001600160a01b03166001600160a01b031663c6da6e2b600254868686600360009054906101000a900460ff16600360019054906101000a900460ff16600360029054906101000a900460ff166003809054906101000a900460ff16600360049054906101000a900460ff16336040518b63ffffffff1660e01b8152600401808b8152602001806020018a60ff1660ff1681526020018960ff1660ff1681526020018860ff1660ff1681526020018760ff1660ff1681526020018660ff1660ff1681526020018560ff1660ff1681526020018460ff1660ff168152602001836001600160a01b03166001600160a01b0316815260200182810382528b818151815260200191508051906020019080838360005b838110156103bc5781810151838201526020016103a4565b50505050905090810190601f1680156103e95780820380516001836020036101000a031916815260200191505b509b505050505050505050505050602060405180830381600087803b15801561041157600080fd5b505af1158015610425573d6000803e3d6000fd5b505050506040513d602081101561043b57600080fd5b5051949350505050565b6001546001600160a01b031681565b61045c61025e565b15156104b25760408051600160e51b62461bcd02815260206004820181905260248201527f4f776e61626c653a2063616c6c6572206973206e6f7420746865206f776e6572604482015290519081900360640190fd5b6104bb816104c2565b50565b3390565b6001600160a01b038116151561050c57604051600160e51b62461bcd0281526004018080602001828103825260268152602001806105686026913960400191505060405180910390fd5b600080546040516001600160a01b03808516939216917f8be0079c531659141344cd1fd0a4f28419497f9722a3daafe3b4186f6b6457e091a3600080546001600160a01b0319166001600160a01b039290921691909117905556fe4f776e61626c653a206e6577206f776e657220697320746865207a65726f2061646472657373a165627a7a72305820951a2c12b871e147258adc09673368f32b0de8aaa038ff754f89f4a56011f81600296080604052600b8054601460ff199182161761ff0019908116610a001762ff0000199081166205000017909355600d80546201000060059190941617909116610800179092161763ff000000191663060000001764ff000000001916640f00000000179055620000967f01ffc9a7000000000000000000000000000000000000000000000000000000006200012c602090811b901c565b620000ae6380ac58cd60e01b6200012c60201b60201c565b620000c663780e9d6360e01b6200012c60201b60201c565b6000620000d8620001fb60201b60201c565b600980546001600160a01b0319166001600160a01b038316908117909155604051919250906000907f8be0079c531659141344cd1fd0a4f28419497f9722a3daafe3b4186f6b6457e0908290a350620001ff565b7fffffffff000000000000000000000000000000000000000000000000000000008082161415620001be57604080517f08c379a000000000000000000000000000000000000000000000000000000000815260206004820152601c60248201527f4552433136353a20696e76616c696420696e7465726661636520696400000000604482015290519081900360640190fd5b7fffffffff00000000000000000000000000000000000000000000000000000000166000908152602081905260409020805460ff19166001179055565b3390565b612e52806200020f6000396000f3fe608060405234801561001057600080fd5b50600436106102065760003560e01c806370a082311161011a578063a5cdbb2e116100ad578063daf15ebd1161007c578063daf15ebd146106f7578063e985e9c51461071a578063f2fde38b14610748578063f71d96cb1461076e578063fbfd1e8a1461084f57610206565b8063a5cdbb2e146104e5578063b4d25a84146104ed578063b88d4fde14610545578063c6da6e2b1461060957610206565b80638f32d59b116100e95780638f32d59b1461048a578063964bc33f14610492578063a18fc316146104af578063a22cb465146104b757610206565b806370a082311461044c578063712b49c914610472578063715018a61461047a5780638da5cb5b1461048257610206565b80632f745c591161019d5780634f6ccce71161016c5780634f6ccce7146103e557806352273b2d14610402578063561dded11461040a5780636352211e146104125780636e8eb2221461042f57610206565b80632f745c591461035e578063383778691461038a5780633d8b78941461039257806342842e0e146103af57610206565b806310b0d81e116101d957806310b0d81e146102cb57806318160ddd146102f15780631fb942251461030b57806323b872dd1461032857610206565b806301ffc9a71461020b578063050fae6a14610246578063081812fc14610264578063095ea7b31461029d575b600080fd5b6102326004803603602081101561022157600080fd5b50356001600160e01b031916610857565b604080519115158252519081900360200190f35b61024e61087a565b6040805160ff9092168252519081900360200190f35b6102816004803603602081101561027a57600080fd5b5035610888565b604080516001600160a01b039092168252519081900360200190f35b6102c9600480360360408110156102b357600080fd5b506001600160a01b0381351690602001356108ef565b005b6102c9600480360360408110156102e157600080fd5b508035906020013560ff16610a19565b6102f9610dd9565b60408051918252519081900360200190f35b6102326004803603602081101561032157600080fd5b5035610de0565b6102c96004803603606081101561033e57600080fd5b506001600160a01b03813581169160208101359091169060400135610df5565b6102f96004803603604081101561037457600080fd5b506001600160a01b038135169060200135610e56565b61024e610ed8565b6102c9600480360360208110156103a857600080fd5b5035610ee1565b6102c9600480360360608110156103c557600080fd5b506001600160a01b03813581169160208101359091169060400135611067565b6102f9600480360360208110156103fb57600080fd5b5035611082565b61024e6110ec565b61024e6110fb565b6102816004803603602081101561042857600080fd5b503561110a565b6102c96004803603602081101561044557600080fd5b5035611169565b6102f96004803603602081101561046257600080fd5b50356001600160a01b03166112d0565b61024e61133d565b6102c961134b565b6102816113f3565b610232611402565b6102c9600480360360208110156104a857600080fd5b5035611428565b61024e6114e7565b6102c9600480360360408110156104cd57600080fd5b506001600160a01b03813516906020013515156114f0565b61024e6115f2565b6104f5611602565b60408051602080825283518183015283519192839290830191858101910280838360005b83811015610531578181015183820152602001610519565b505050509050019250505060405180910390f35b6102c96004803603608081101561055b57600080fd5b6001600160a01b03823581169260208101359091169160408201359190810190608081016060820135600160201b81111561059557600080fd5b8201836020820111156105a757600080fd5b803590602001918460018302840111600160201b831117156105c857600080fd5b91908080601f016020809104026020016040519081016040528093929190818152602001838380828437600092019190915250929550611661945050505050565b6102f9600480360361014081101561062057600080fd5b81359190810190604081016020820135600160201b81111561064157600080fd5b82018360208201111561065357600080fd5b803590602001918460018302840111600160201b8311171561067457600080fd5b91908080601f0160208091040260200160405190810160405280939291908181526020018383808284376000920191909152509295505050813560ff908116935060208301358116926040810135821692506060810135821691608082013581169160a081013582169160c0820135169060e001356001600160a01b03166116c4565b6102c96004803603604081101561070d57600080fd5b50803590602001356118af565b6102326004803603604081101561073057600080fd5b506001600160a01b0381358116916020013516611d13565b6102c96004803603602081101561075e57600080fd5b50356001600160a01b0316611d41565b61078b6004803603602081101561078457600080fd5b5035611da8565b604080518a815260ff808a16928201929092528782166060820152868216608082015285821660a082015284821660c082015283821660e082015290821661010082015261012060208083018281528b51928401929092528a516101408401918c019080838360005b8381101561080c5781810151838201526020016107f4565b50505050905090810190601f1680156108395780820380516001836020036101000a031916815260200191505b509a505050505050505050505060405180910390f35b61024e611eb8565b6001600160e01b0319811660009081526020819052604090205460ff165b919050565b600b54610100900460ff1681565b600061089382611ec8565b15156108d357604051600160e51b62461bcd02815260040180806020018281038252602c815260200180612d54602c913960400191505060405180910390fd5b506000908152600260205260409020546001600160a01b031690565b60006108fa8261110a565b90506001600160a01b03838116908216141561094a57604051600160e51b62461bcd028152600401808060200182810382526021815260200180612da96021913960400191505060405180910390fd5b806001600160a01b031661095c611ee5565b6001600160a01b0316148061097d575061097d81610978611ee5565b611d13565b15156109bd57604051600160e51b62461bcd028152600401808060200182810382526038815260200180612cc96038913960400191505060405180910390fd5b60008281526002602052604080822080546001600160a01b0319166001600160a01b0387811691821790925591518593918516917f8c5be1e5ebec7d5bd14f71427d1e84f3dd0314c0f7b2291e5b200ac8c7c3b92591a4505050565b33610a238361110a565b6001600160a01b031614610a815760408051600160e51b62461bcd02815260206004820181905260248201527f4d757374206265206f776e6572206f6620706c6179657220746f20747261696e604482015290519081900360640190fd5b610abc600a83815481101515610a9357fe5b6000918252602090912060026003909202010154600d5460ff6201000090920482169116611ee9565b600a805484908110610aca57fe5b906000526020600020906003020160020160026101000a81548160ff021916908360ff160217905550610b26600a83815481101515610b0557fe5b6000918252602090912060039091020154600d54610100900460ff16611f0b565b600a805484908110610b3457fe5b60009182526020822060039091020191909155816003811115610b5357fe5b1415610bd857610b9c600a83815481101515610b6b57fe5b6000918252602090912060026003909202010154600d5460ff63010000009092048216916201000090910416611f20565b600a805484908110610baa57fe5b906000526020600020906003020160020160036101000a81548160ff021916908360ff160217905550610d8f565b6001816003811115610be657fe5b1415610c6b57610c2f600a83815481101515610bfe57fe5b6000918252602090912060026003909202010154600d5460ff600160201b9092048216916201000090910416611f20565b600a805484908110610c3d57fe5b906000526020600020906003020160020160046101000a81548160ff021916908360ff160217905550610d8f565b6002816003811115610c7957fe5b1415610d0057610cc4600a83815481101515610c9157fe5b6000918252602090912060026003909202010154600d5460ff650100000000009092048216916201000090910416611f20565b600a805484908110610cd257fe5b906000526020600020906003020160020160056101000a81548160ff021916908360ff160217905550610d8f565b6003816003811115610d0e57fe5b1415610d8f57610d57600a83815481101515610d2657fe5b6000918252602090912060026003909202010154600d5460ff600160301b9092048216916201000090910416611f20565b600a805484908110610d6557fe5b906000526020600020906003020160020160066101000a81548160ff021916908360ff1602179055505b817f42076cc90b2fa42c50650fbbbab6c79184379df25c5254258e59154788f768d08260405180826003811115610dc257fe5b60ff16815260200191505060405180910390a25050565b6007545b90565b600c6020526000908152604090205460ff1681565b610e06610e00611ee5565b82611f3b565b1515610e4657604051600160e51b62461bcd028152600401808060200182810382526031815260200180612dca6031913960400191505060405180910390fd5b610e51838383611fe4565b505050565b6000610e61836112d0565b8210610ea157604051600160e51b62461bcd02815260040180806020018281038252602b815260200180612bb0602b913960400191505060405180910390fd5b6001600160a01b0383166000908152600560205260409020805483908110610ec557fe5b9060005260206000200154905092915050565b600d5460ff1681565b33610eeb8261110a565b6001600160a01b031614610f3357604051600160e51b62461bcd028152600401808060200182810382526021815260200180612c7c6021913960400191505060405180910390fd5b6000818152600c602052604090205460ff1615610f9a5760408051600160e51b62461bcd02815260206004820152601c60248201527f4d757374206e6f7420616c726561647920626520656e6c697374656400000000604482015290519081900360640190fd5b600b54600a805460ff9092169183908110610fb157fe5b600091825260209091206003909102016002015462010000900460ff1610156110245760408051600160e51b62461bcd02815260206004820152601b60248201527f4d757374206265206d617463682066697420746f20656e6c6973740000000000604482015290519081900360640190fd5b6000818152600c6020526040808220805460ff191660011790555182917ff2ffc74f2561385e2dda97fd2fed03df7841a8aa26fdf1f5fb28c6cc4950dc0191a250565b610e5183838360405180602001604052806000815250611661565b600061108c610dd9565b82106110cc57604051600160e51b62461bcd02815260040180806020018281038252602c815260200180612dfb602c913960400191505060405180910390fd5b60078054839081106110da57fe5b90600052602060002001549050919050565b600d5462010000900460ff1681565b600b5462010000900460ff1681565b6000818152600160205260408120546001600160a01b031680151561116357604051600160e51b62461bcd028152600401808060200182810382526029815260200180612d2b6029913960400191505060405180910390fd5b92915050565b336111738261110a565b6001600160a01b0316146111d15760408051600160e51b62461bcd02815260206004820152601f60248201527f4d757374206265206f776e6572206f6620706c6179657220746f207265737400604482015290519081900360640190fd5b611206600a828154811015156111e357fe5b6000918252602090912060039091020154600d546301000000900460ff16611f0b565b600a80548390811061121457fe5b6000918252602090912060039091020155600a805461126991908390811061123857fe5b6000918252602090912060026003909202010154600d5460ff62010000909204821691600160201b90910416611f20565b600a80548390811061127757fe5b600091825260208220600260039092020101805460ff93909316620100000262ff0000199093169290921790915560405182917f0594fec9b42ce38ee3c311c4bdd01add00de4138f3f35028275ed5ddcb0ccdf791a250565b60006001600160a01b038216151561131c57604051600160e51b62461bcd02815260040180806020018281038252602a815260200180612d01602a913960400191505060405180910390fd5b6001600160a01b038216600090815260036020526040902061116390612003565b600d54610100900460ff1681565b611353611402565b15156113a95760408051600160e51b62461bcd02815260206004820181905260248201527f4f776e61626c653a2063616c6c6572206973206e6f7420746865206f776e6572604482015290519081900360640190fd5b6009546040516000916001600160a01b0316907f8be0079c531659141344cd1fd0a4f28419497f9722a3daafe3b4186f6b6457e0908390a3600980546001600160a01b0319169055565b6009546001600160a01b031690565b6009546000906001600160a01b0316611419611ee5565b6001600160a01b031614905090565b336114328261110a565b6001600160a01b03161461147a57604051600160e51b62461bcd028152600401808060200182810382526021815260200180612c7c6021913960400191505060405180910390fd5b6000818152600c602052604090205460ff1615156001146114db5760408051600160e51b62461bcd0281526020600482015260106024820152600160821b6f135d5cdd08189948195b9b1a5cdd195902604482015290519081900360640190fd5b6114e481612007565b50565b600b5460ff1681565b6114f8611ee5565b6001600160a01b038381169116141561155b5760408051600160e51b62461bcd02815260206004820152601960248201527f4552433732313a20617070726f766520746f2063616c6c657200000000000000604482015290519081900360640190fd5b8060046000611568611ee5565b6001600160a01b03908116825260208083019390935260409182016000908120918716808252919093529120805460ff1916921515929092179091556115ac611ee5565b60408051841515815290516001600160a01b0392909216917f17307eab39ab6107e8899845ad3d59bd9653f200f220920489ca2b5937696c319181900360200190a35050565b600d546301000000900460ff1681565b606061160d33612047565b80548060200260200160405190810160405280929190818152602001828054801561165757602002820191906000526020600020905b815481526020019060010190808311611643575b5050505050905090565b61167261166c611ee5565b83611f3b565b15156116b257604051600160e51b62461bcd028152600401808060200182810382526031815260200180612dca6031913960400191505060405180910390fd5b6116be84848484612061565b50505050565b60006116ce611402565b15156117245760408051600160e51b62461bcd02815260206004820181905260248201527f4f776e61626c653a2063616c6c6572206973206e6f7420746865206f776e6572604482015290519081900360640190fd5b6000600a805490509050600a6040518061012001604052808e81526020018d81526020018c60ff1681526020018b60ff1681526020018a60ff1681526020018960ff1681526020018860ff1681526020018760ff1681526020018660ff16815250908060018154018082558091505090600182039060005260206000209060030201600090919290919091506000820151816000015560208201518160010190805190602001906117d6929190612afb565b50604082015160029190910180546060840151608085015160a086015160c087015160e08801516101009889015160ff1990961660ff9889161761ff0019169488169098029390931762ff0000191662010000928716929092029190911763ff00000019166301000000918616919091021764ff000000001916600160201b918516919091021765ff0000000000191665010000000000948416949094029390931766ff0000000000001916600160301b9290931691909102919091179055506118a083826120b8565b9b9a5050505050505050505050565b336118b98361110a565b6001600160a01b03161461190157604051600160e51b62461bcd028152600401808060200182810382526021815260200180612c7c6021913960400191505060405180910390fd5b6000828152600c602052604090205460ff1615156001146119625760408051600160e51b62461bcd0281526020600482015260106024820152600160821b6f135d5cdd08189948195b9b1a5cdd195902604482015290519081900360640190fd5b6000818152600c602052604090205460ff1615156001146119cd5760408051600160e51b62461bcd02815260206004820152601960248201527f4f70706f6e656e74206d75737420626520656e6c697374656400000000000000604482015290519081900360640190fd5b611a0c826040518060400160405280601a81526020017f506c61796572206e6f74206d6174636820636f6e646974696f6e0000000000008152506120d6565b611a4b816040518060400160405280601c81526020017f4f70706f6e656e74206e6f74206d6174636820636f6e646974696f6e000000008152506120d6565b6000611b28600a84815481101515611a5f57fe5b906000526020600020906003020160020160069054906101000a900460ff1660ff16611b1c600a86815481101515611a9357fe5b906000526020600020906003020160020160059054906101000a900460ff1660ff16611b1c600a88815481101515611ac757fe5b906000526020600020906003020160020160049054906101000a900460ff1660ff16600a89815481101515611af857fe5b60009182526020909120600390910201600201546301000000900460ff169061216d565b9063ffffffff61216d16565b90506000611b3e600a84815481101515611a5f57fe5b600b54600a8054929350611b8792611b829260ff16919088908110611b5f57fe5b600091825260209091206003909102016002015462010000900460ff16906121ca565b61220c565b600a805486908110611b9557fe5b60009182526020909120600390910201600201805462ff000019166201000060ff93841602179055600b54600a8054611bd993611b829316919087908110611b5f57fe5b600a805485908110611be757fe5b906000526020600020906003020160020160026101000a81548160ff021916908360ff16021790555060008082841015611c22578486611c25565b85855b91509150611c6b600b60019054906101000a900460ff1660ff16600a84815481101515611c4e57fe5b60009182526020909120600390910201549063ffffffff61216d16565b600a805484908110611c7957fe5b6000918252602090912060039091020155600b54600a8054611caa9262010000900460ff16919084908110611c4e57fe5b600a805483908110611cb857fe5b600091825260208220600390910201919091556040518391879189917f9dcee82476e7972008ebee70c4c5b286d94d3dfa4fe0a715f8eec92c75cf54e991a4611d0086612255565b50611d0a85612255565b50505050505050565b6001600160a01b03918216600090815260046020908152604080832093909416825291909152205460ff1690565b611d49611402565b1515611d9f5760408051600160e51b62461bcd02815260206004820181905260248201527f4f776e61626c653a2063616c6c6572206973206e6f7420746865206f776e6572604482015290519081900360640190fd5b6114e4816122a9565b600a805482908110611db657fe5b9060005260206000209060030201600091509050806000015490806001018054600181600116156101000203166002900480601f016020809104026020016040519081016040528092919081815260200182805460018160011615610100020316600290048015611e685780601f10611e3d57610100808354040283529160200191611e68565b820191906000526020600020905b815481529060010190602001808311611e4b57829003601f168201915b5050506002909301549192505060ff80821691610100810482169162010000820481169163010000008104821691600160201b8204811691650100000000008104821691600160301b9091041689565b600d54600160201b900460ff1681565b6000908152600160205260409020546001600160a01b0316151590565b3390565b6000611f04611b8260ff85811690851663ffffffff6121ca16565b9392505050565b6000611f048360ff841663ffffffff6121ca16565b6000611f04611b8260ff85811690851663ffffffff61216d16565b6000611f4682611ec8565b1515611f8657604051600160e51b62461bcd02815260040180806020018281038252602c815260200180612c9d602c913960400191505060405180910390fd5b6000611f918361110a565b9050806001600160a01b0316846001600160a01b03161480611fcc5750836001600160a01b0316611fc184610888565b6001600160a01b0316145b80611fdc5750611fdc8185611d13565b949350505050565b611fef83838361234f565b611ff9838261249b565b610e518282612592565b5490565b6000818152600c6020526040808220805460ff191690555182917f2c525dc2c086b9a2f3b902d229853b5b838fcedc22933c40ed7ebe4890a53a8291a250565b6001600160a01b0316600090815260056020526040902090565b61206c848484611fe4565b612078848484846125d0565b15156116be57604051600160e51b62461bcd028152600401808060200182810382526032815260200180612bdb6032913960400191505060405180910390fd5b6120d2828260405180602001604052806000815250612818565b5050565b6120df82612255565b15156120d25780604051600160e51b62461bcd0281526004018080602001828103825283818151815260200191508051906020019080838360005b8381101561213257818101518382015260200161211a565b50505050905090810190601f16801561215f5780820380516001836020036101000a031916815260200191505b509250505060405180910390fd5b600082820183811015611f045760408051600160e51b62461bcd02815260206004820152601b60248201527f536166654d6174683a206164646974696f6e206f766572666c6f770000000000604482015290519081900360640190fd5b6000611f0483836040518060400160405280601e81526020017f536166654d6174683a207375627472616374696f6e206f766572666c6f77000081525061286f565b6000610100821061225157604051600160e51b62461bcd028152600401808060200182810382526025815260200180612c336025913960400191505060405180910390fd5b5090565b600b54600a805460009260ff1691908490811061226e57fe5b600091825260209091206003909102016002015462010000900460ff16116122a15761229982612007565b506000610875565b506001919050565b6001600160a01b03811615156122f357604051600160e51b62461bcd028152600401808060200182810382526026815260200180612c0d6026913960400191505060405180910390fd5b6009546040516001600160a01b038084169216907f8be0079c531659141344cd1fd0a4f28419497f9722a3daafe3b4186f6b6457e090600090a3600980546001600160a01b0319166001600160a01b0392909216919091179055565b826001600160a01b03166123628261110a565b6001600160a01b0316146123aa57604051600160e51b62461bcd028152600401808060200182810382526029815260200180612d806029913960400191505060405180910390fd5b6001600160a01b03821615156123f457604051600160e51b62461bcd028152600401808060200182810382526024815260200180612c586024913960400191505060405180910390fd5b6123fd816128cd565b6001600160a01b038316600090815260036020526040902061241e90612908565b6001600160a01b038216600090815260036020526040902061243f9061291f565b60008181526001602052604080822080546001600160a01b0319166001600160a01b0386811691821790925591518493918716917fddf252ad1be2c89b69c2b068fc378daa952ba7f163c4a11628f55a4df523b3ef91a4505050565b6001600160a01b0382166000908152600560205260408120546124c590600163ffffffff6121ca16565b600083815260066020526040902054909150808214612562576001600160a01b038416600090815260056020526040812080548490811061250257fe5b906000526020600020015490508060056000876001600160a01b03166001600160a01b031681526020019081526020016000208381548110151561254257fe5b600091825260208083209091019290925591825260069052604090208190555b6001600160a01b038416600090815260056020526040902080549061258b906000198301612b75565b5050505050565b6001600160a01b0390911660009081526005602081815260408084208054868652600684529185208290559282526001810183559183529091200155565b60006125e4846001600160a01b0316612928565b15156125f257506001611fdc565b600060606001600160a01b038616600160e11b630a85bd0102612613611ee5565b89888860405160240180856001600160a01b03166001600160a01b03168152602001846001600160a01b03166001600160a01b0316815260200183815260200180602001828103825283818151815260200191508051906020019080838360005b8381101561268c578181015183820152602001612674565b50505050905090810190601f1680156126b95780820380516001836020036101000a031916815260200191505b5060408051601f198184030181529181526020820180516001600160e01b03166001600160e01b0319909a16999099178952518151919890975087965094509250829150849050835b602083106127215780518252601f199092019160209182019101612702565b6001836020036101000a0380198251168184511680821785525050505050509050019150506000604051808303816000865af19150503d8060008114612783576040519150601f19603f3d011682016040523d82523d6000602084013e612788565b606091505b50915091508115156127de578051156127a45780518082602001fd5b604051600160e51b62461bcd028152600401808060200182810382526032815260200180612bdb6032913960400191505060405180910390fd5b60008180602001905160208110156127f557600080fd5b50516001600160e01b031916600160e11b630a85bd0102149350611fdc92505050565b6128228383612961565b61282f60008484846125d0565b1515610e5157604051600160e51b62461bcd028152600401808060200182810382526032815260200180612bdb6032913960400191505060405180910390fd5b600081848411156128c557604051600160e51b62461bcd0281526004018080602001828103825283818151815260200191508051906020019080838360008381101561213257818101518382015260200161211a565b505050900390565b6000818152600260205260409020546001600160a01b0316156114e457600090815260026020526040902080546001600160a01b0319169055565b805461291b90600163ffffffff6121ca16565b9055565b80546001019055565b6000813f7fc5d2460186f7233c927e7db2dcc703c0e500b653ca82273b7bfad8045d85a470818114801590611fdc575050151592915050565b61296b828261297e565b6129758282612592565b6120d281612ab7565b6001600160a01b03821615156129de5760408051600160e51b62461bcd02815260206004820181905260248201527f4552433732313a206d696e7420746f20746865207a65726f2061646472657373604482015290519081900360640190fd5b6129e781611ec8565b15612a3c5760408051600160e51b62461bcd02815260206004820152601c60248201527f4552433732313a20746f6b656e20616c7265616479206d696e74656400000000604482015290519081900360640190fd5b600081815260016020908152604080832080546001600160a01b0319166001600160a01b038716908117909155835260039091529020612a7b9061291f565b60405181906001600160a01b038416906000907fddf252ad1be2c89b69c2b068fc378daa952ba7f163c4a11628f55a4df523b3ef908290a45050565b600780546000838152600860205260408120829055600182018355919091527fa66cc928b5edb82af9bd49922954155ab7b0942694bea4ce44661d9a8736c6880155565b828054600181600116156101000203166002900490600052602060002090601f016020900481019282601f10612b3c57805160ff1916838001178555612b69565b82800160010185558215612b69579182015b82811115612b69578251825591602001919060010190612b4e565b50612251929150612b95565b815481835581811115610e5157600083815260209020610e519181019083015b610ddd91905b808211156122515760008155600101612b9b56fe455243373231456e756d657261626c653a206f776e657220696e646578206f7574206f6620626f756e64734552433732313a207472616e7366657220746f206e6f6e20455243373231526563656976657220696d706c656d656e7465724f776e61626c653a206e6577206f776e657220697320746865207a65726f206164647265737353616665436173743a2076616c756520646f65736e27742066697420696e203820626974734552433732313a207472616e7366657220746f20746865207a65726f20616464726573734d757374206265206f776e6572206f6620706c6179657220746f20656e6c6973744552433732313a206f70657261746f7220717565727920666f72206e6f6e6578697374656e7420746f6b656e4552433732313a20617070726f76652063616c6c6572206973206e6f74206f776e6572206e6f7220617070726f76656420666f7220616c6c4552433732313a2062616c616e636520717565727920666f7220746865207a65726f20616464726573734552433732313a206f776e657220717565727920666f72206e6f6e6578697374656e7420746f6b656e4552433732313a20617070726f76656420717565727920666f72206e6f6e6578697374656e7420746f6b656e4552433732313a207472616e73666572206f6620746f6b656e2074686174206973206e6f74206f776e4552433732313a20617070726f76616c20746f2063757272656e74206f776e65724552433732313a207472616e736665722063616c6c6572206973206e6f74206f776e6572206e6f7220617070726f766564455243373231456e756d657261626c653a20676c6f62616c20696e646578206f7574206f6620626f756e6473a165627a7a723058203368bd7a70b2b822876fbca5500c97bee8dacd56d966fc7a1f998d3298aea1ae0029",
  "source": "// Author: Alex Roan\npragma solidity ^0.5.5;\n\nimport \"./TennisPlayer.sol\";\nimport \"@openzeppelin/contracts/ownership/Ownable.sol\";\n\ncontract Game is Ownable {\n\n    address public playerTokenAddress;\n\n    uint private xp = 100;\n    uint8 private condition = 255;\n    uint8 private agility = 1;\n    uint8 private power = 1;\n    uint8 private stamina = 2;\n    uint8 private technique = 1;\n\n    constructor() public {\n        playerTokenAddress = address(new TennisPlayer());\n    }\n\n    function newPlayer(string memory _name, uint8 _age, uint8 _height) public returns (uint){\n        return TennisPlayer(playerTokenAddress).newPlayer(\n            xp, _name, _age, _height, condition, agility, power, stamina, technique, msg.sender\n        );\n    }\n\n}",
  "sourcePath": "/Users/alexroan/Documents/Projects/Blockchain/DApps/tennis-manager/contracts/Game.sol",
  "compiler": {
    "name": "solc",
    "version": "0.5.5+commit.47a71e8f.Emscripten.clang"
  },
  "schemaVersion": "3.0.23",
  "updatedAt": "2020-04-09T09:55:13.028Z",
  "networkType": "ethereum",
  "devdoc": {
    "methods": {
      "isOwner()": {
        "details": "Returns true if the caller is the current owner."
      },
      "owner()": {
        "details": "Returns the address of the current owner."
      },
      "renounceOwnership()": {
        "details": "Leaves the contract without owner. It will not be possible to call `onlyOwner` functions anymore. Can only be called by the current owner.     * NOTE: Renouncing ownership will leave the contract without an owner, thereby removing any functionality that is only available to the owner."
      },
      "transferOwnership(address)": {
        "details": "Transfers ownership of the contract to a new account (`newOwner`). Can only be called by the current owner."
      }
    }
  },
  "userdoc": {
    "methods": {}
  }
}