{
  "contractName": "Game",
  "abi": [
    {
      "constant": false,
      "inputs": [],
      "name": "renounceOwnership",
      "outputs": [],
      "payable": false,
      "stateMutability": "nonpayable",
      "type": "function"
    },
    {
      "constant": true,
      "inputs": [],
      "name": "owner",
      "outputs": [
        {
          "name": "",
          "type": "address"
        }
      ],
      "payable": false,
      "stateMutability": "view",
      "type": "function"
    },
    {
      "constant": true,
      "inputs": [],
      "name": "isOwner",
      "outputs": [
        {
          "name": "",
          "type": "bool"
        }
      ],
      "payable": false,
      "stateMutability": "view",
      "type": "function"
    },
    {
      "constant": true,
      "inputs": [],
      "name": "playerTokenAddress",
      "outputs": [
        {
          "name": "",
          "type": "address"
        }
      ],
      "payable": false,
      "stateMutability": "view",
      "type": "function"
    },
    {
      "constant": false,
      "inputs": [
        {
          "name": "newOwner",
          "type": "address"
        }
      ],
      "name": "transferOwnership",
      "outputs": [],
      "payable": false,
      "stateMutability": "nonpayable",
      "type": "function"
    },
    {
      "inputs": [],
      "payable": false,
      "stateMutability": "nonpayable",
      "type": "constructor"
    },
    {
      "anonymous": false,
      "inputs": [
        {
          "indexed": true,
          "name": "previousOwner",
          "type": "address"
        },
        {
          "indexed": true,
          "name": "newOwner",
          "type": "address"
        }
      ],
      "name": "OwnershipTransferred",
      "type": "event"
    },
    {
      "constant": false,
      "inputs": [
        {
          "name": "_name",
          "type": "string"
        },
        {
          "name": "_age",
          "type": "uint8"
        },
        {
          "name": "_height",
          "type": "uint8"
        }
      ],
      "name": "newPlayer",
      "outputs": [
        {
          "name": "",
          "type": "uint256"
        }
      ],
      "payable": false,
      "stateMutability": "nonpayable",
      "type": "function"
    }
  ],
  "bytecode": "0x60806040526064600255600380546401000000006201000061010060ff60ff199094169390931761ff0019169290921762ff000019169190911763ff000000191663020000001764ff00000000191617905534801561005d57600080fd5b50600061006e61010660201b60201c565b600080546001600160a01b0319166001600160a01b0383169081178255604051929350917f8be0079c531659141344cd1fd0a4f28419497f9722a3daafe3b4186f6b6457e0908290a3506040516100c49061010a565b604051809103906000f0801580156100e0573d6000803e3d6000fd5b50600180546001600160a01b0319166001600160a01b0392909216919091179055610117565b3390565b612f85806106df83390190565b6105b9806101266000396000f3fe608060405234801561001057600080fd5b50600436106100625760003560e01c8063715018a6146100675780638da5cb5b146100715780638f32d59b14610095578063b2db50f2146100b1578063daac518a14610179578063f2fde38b14610181575b600080fd5b61006f6101a7565b005b61007961024f565b604080516001600160a01b039092168252519081900360200190f35b61009d61025e565b604080519115158252519081900360200190f35b610167600480360360608110156100c757600080fd5b8101906020810181356401000000008111156100e257600080fd5b8201836020820111156100f457600080fd5b8035906020019184600183028401116401000000008311171561011657600080fd5b91908080601f0160208091040260200160405190810160405280939291908181526020018383808284376000920191909152509295505060ff83358116945060209093013590921691506102829050565b60408051918252519081900360200190f35b610079610445565b61006f6004803603602081101561019757600080fd5b50356001600160a01b0316610454565b6101af61025e565b15156102055760408051600160e51b62461bcd02815260206004820181905260248201527f4f776e61626c653a2063616c6c6572206973206e6f7420746865206f776e6572604482015290519081900360640190fd5b600080546040516001600160a01b03909116907f8be0079c531659141344cd1fd0a4f28419497f9722a3daafe3b4186f6b6457e0908390a3600080546001600160a01b0319169055565b6000546001600160a01b031690565b600080546001600160a01b03166102736104be565b6001600160a01b031614905090565b6000600160009054906101000a90046001600160a01b03166001600160a01b031663c6da6e2b600254868686600360009054906101000a900460ff16600360019054906101000a900460ff16600360029054906101000a900460ff166003809054906101000a900460ff16600360049054906101000a900460ff16336040518b63ffffffff1660e01b8152600401808b8152602001806020018a60ff1660ff1681526020018960ff1660ff1681526020018860ff1660ff1681526020018760ff1660ff1681526020018660ff1660ff1681526020018560ff1660ff1681526020018460ff1660ff168152602001836001600160a01b03166001600160a01b0316815260200182810382528b818151815260200191508051906020019080838360005b838110156103bc5781810151838201526020016103a4565b50505050905090810190601f1680156103e95780820380516001836020036101000a031916815260200191505b509b505050505050505050505050602060405180830381600087803b15801561041157600080fd5b505af1158015610425573d6000803e3d6000fd5b505050506040513d602081101561043b57600080fd5b5051949350505050565b6001546001600160a01b031681565b61045c61025e565b15156104b25760408051600160e51b62461bcd02815260206004820181905260248201527f4f776e61626c653a2063616c6c6572206973206e6f7420746865206f776e6572604482015290519081900360640190fd5b6104bb816104c2565b50565b3390565b6001600160a01b038116151561050c57604051600160e51b62461bcd0281526004018080602001828103825260268152602001806105686026913960400191505060405180910390fd5b600080546040516001600160a01b03808516939216917f8be0079c531659141344cd1fd0a4f28419497f9722a3daafe3b4186f6b6457e091a3600080546001600160a01b0319166001600160a01b039290921691909117905556fe4f776e61626c653a206e6577206f776e657220697320746865207a65726f2061646472657373a165627a7a723058209dc42b1853855a1e4e77e7a4f78ce4a9b92c0ce8ffeb8decbfe30a30bf2caff500296080604052600b8054601460ff199182161761ff0019908116610a001762ff0000199081166205000017909355600d80546201000060059190941617909116610800179092161763ff000000191663060000001764ff000000001916640f00000000179055620000967f01ffc9a7000000000000000000000000000000000000000000000000000000006200012c602090811b901c565b620000ae6380ac58cd60e01b6200012c60201b60201c565b620000c663780e9d6360e01b6200012c60201b60201c565b6000620000d8620001fb60201b60201c565b600980546001600160a01b0319166001600160a01b038316908117909155604051919250906000907f8be0079c531659141344cd1fd0a4f28419497f9722a3daafe3b4186f6b6457e0908290a350620001ff565b7fffffffff000000000000000000000000000000000000000000000000000000008082161415620001be57604080517f08c379a000000000000000000000000000000000000000000000000000000000815260206004820152601c60248201527f4552433136353a20696e76616c696420696e7465726661636520696400000000604482015290519081900360640190fd5b7fffffffff00000000000000000000000000000000000000000000000000000000166000908152602081905260409020805460ff19166001179055565b3390565b612d76806200020f6000396000f3fe608060405234801561001057600080fd5b50600436106101fb5760003560e01c80636e8eb2221161011a578063a22cb465116100ad578063daf15ebd1161007c578063daf15ebd14610694578063e985e9c5146106b7578063f2fde38b146106e5578063f71d96cb1461070b578063fbfd1e8a146107ec576101fb565b8063a22cb465146104ac578063a5cdbb2e146104da578063b88d4fde146104e2578063c6da6e2b146105a6576101fb565b80638da5cb5b116100e95780638da5cb5b146104775780638f32d59b1461047f578063964bc33f14610487578063a18fc316146104a4576101fb565b80636e8eb2221461042457806370a0823114610441578063712b49c914610467578063715018a61461046f576101fb565b80632f745c59116101925780634f6ccce7116101615780634f6ccce7146103da57806352273b2d146103f7578063561dded1146103ff5780636352211e14610407576101fb565b80632f745c5914610353578063383778691461037f5780633d8b78941461038757806342842e0e146103a4576101fb565b806310b0d81e116101ce57806310b0d81e146102c057806318160ddd146102e65780631fb942251461030057806323b872dd1461031d576101fb565b806301ffc9a714610200578063050fae6a1461023b578063081812fc14610259578063095ea7b314610292575b600080fd5b6102276004803603602081101561021657600080fd5b50356001600160e01b0319166107f4565b604080519115158252519081900360200190f35b610243610817565b6040805160ff9092168252519081900360200190f35b6102766004803603602081101561026f57600080fd5b5035610825565b604080516001600160a01b039092168252519081900360200190f35b6102be600480360360408110156102a857600080fd5b506001600160a01b03813516906020013561088c565b005b6102be600480360360408110156102d657600080fd5b508035906020013560ff166109b6565b6102ee610d76565b60408051918252519081900360200190f35b6102276004803603602081101561031657600080fd5b5035610d7d565b6102be6004803603606081101561033357600080fd5b506001600160a01b03813581169160208101359091169060400135610d92565b6102ee6004803603604081101561036957600080fd5b506001600160a01b038135169060200135610df3565b610243610e75565b6102be6004803603602081101561039d57600080fd5b5035610e7e565b6102be600480360360608110156103ba57600080fd5b506001600160a01b03813581169160208101359091169060400135611004565b6102ee600480360360208110156103f057600080fd5b503561101f565b610243611089565b610243611098565b6102766004803603602081101561041d57600080fd5b50356110a7565b6102be6004803603602081101561043a57600080fd5b5035611106565b6102ee6004803603602081101561045757600080fd5b50356001600160a01b031661126d565b6102436112da565b6102be6112e8565b610276611390565b61022761139f565b6102be6004803603602081101561049d57600080fd5b50356113c5565b610243611484565b6102be600480360360408110156104c257600080fd5b506001600160a01b038135169060200135151561148d565b61024361158f565b6102be600480360360808110156104f857600080fd5b6001600160a01b03823581169260208101359091169160408201359190810190608081016060820135600160201b81111561053257600080fd5b82018360208201111561054457600080fd5b803590602001918460018302840111600160201b8311171561056557600080fd5b91908080601f01602080910402602001604051908101604052809392919081815260200183838082843760009201919091525092955061159f945050505050565b6102ee60048036036101408110156105bd57600080fd5b81359190810190604081016020820135600160201b8111156105de57600080fd5b8201836020820111156105f057600080fd5b803590602001918460018302840111600160201b8311171561061157600080fd5b91908080601f0160208091040260200160405190810160405280939291908181526020018383808284376000920191909152509295505050813560ff908116935060208301358116926040810135821692506060810135821691608082013581169160a081013582169160c0820135169060e001356001600160a01b0316611602565b6102be600480360360408110156106aa57600080fd5b50803590602001356117ed565b610227600480360360408110156106cd57600080fd5b506001600160a01b0381358116916020013516611c51565b6102be600480360360208110156106fb57600080fd5b50356001600160a01b0316611c7f565b6107286004803603602081101561072157600080fd5b5035611ce6565b604080518a815260ff808a16928201929092528782166060820152868216608082015285821660a082015284821660c082015283821660e082015290821661010082015261012060208083018281528b51928401929092528a516101408401918c019080838360005b838110156107a9578181015183820152602001610791565b50505050905090810190601f1680156107d65780820380516001836020036101000a031916815260200191505b509a505050505050505050505060405180910390f35b610243611df6565b6001600160e01b0319811660009081526020819052604090205460ff165b919050565b600b54610100900460ff1681565b600061083082611e06565b151561087057604051600160e51b62461bcd02815260040180806020018281038252602c815260200180612c78602c913960400191505060405180910390fd5b506000908152600260205260409020546001600160a01b031690565b6000610897826110a7565b90506001600160a01b0383811690821614156108e757604051600160e51b62461bcd028152600401808060200182810382526021815260200180612ccd6021913960400191505060405180910390fd5b806001600160a01b03166108f9611e23565b6001600160a01b0316148061091a575061091a81610915611e23565b611c51565b151561095a57604051600160e51b62461bcd028152600401808060200182810382526038815260200180612bed6038913960400191505060405180910390fd5b60008281526002602052604080822080546001600160a01b0319166001600160a01b0387811691821790925591518593918516917f8c5be1e5ebec7d5bd14f71427d1e84f3dd0314c0f7b2291e5b200ac8c7c3b92591a4505050565b336109c0836110a7565b6001600160a01b031614610a1e5760408051600160e51b62461bcd02815260206004820181905260248201527f4d757374206265206f776e6572206f6620706c6179657220746f20747261696e604482015290519081900360640190fd5b610a59600a83815481101515610a3057fe5b6000918252602090912060026003909202010154600d5460ff6201000090920482169116611e27565b600a805484908110610a6757fe5b906000526020600020906003020160020160026101000a81548160ff021916908360ff160217905550610ac3600a83815481101515610aa257fe5b6000918252602090912060039091020154600d54610100900460ff16611e49565b600a805484908110610ad157fe5b60009182526020822060039091020191909155816003811115610af057fe5b1415610b7557610b39600a83815481101515610b0857fe5b6000918252602090912060026003909202010154600d5460ff63010000009092048216916201000090910416611e5e565b600a805484908110610b4757fe5b906000526020600020906003020160020160036101000a81548160ff021916908360ff160217905550610d2c565b6001816003811115610b8357fe5b1415610c0857610bcc600a83815481101515610b9b57fe5b6000918252602090912060026003909202010154600d5460ff600160201b9092048216916201000090910416611e5e565b600a805484908110610bda57fe5b906000526020600020906003020160020160046101000a81548160ff021916908360ff160217905550610d2c565b6002816003811115610c1657fe5b1415610c9d57610c61600a83815481101515610c2e57fe5b6000918252602090912060026003909202010154600d5460ff650100000000009092048216916201000090910416611e5e565b600a805484908110610c6f57fe5b906000526020600020906003020160020160056101000a81548160ff021916908360ff160217905550610d2c565b6003816003811115610cab57fe5b1415610d2c57610cf4600a83815481101515610cc357fe5b6000918252602090912060026003909202010154600d5460ff600160301b9092048216916201000090910416611e5e565b600a805484908110610d0257fe5b906000526020600020906003020160020160066101000a81548160ff021916908360ff1602179055505b817f42076cc90b2fa42c50650fbbbab6c79184379df25c5254258e59154788f768d08260405180826003811115610d5f57fe5b60ff16815260200191505060405180910390a25050565b6007545b90565b600c6020526000908152604090205460ff1681565b610da3610d9d611e23565b82611e79565b1515610de357604051600160e51b62461bcd028152600401808060200182810382526031815260200180612cee6031913960400191505060405180910390fd5b610dee838383611f22565b505050565b6000610dfe8361126d565b8210610e3e57604051600160e51b62461bcd02815260040180806020018281038252602b815260200180612ad4602b913960400191505060405180910390fd5b6001600160a01b0383166000908152600560205260409020805483908110610e6257fe5b9060005260206000200154905092915050565b600d5460ff1681565b33610e88826110a7565b6001600160a01b031614610ed057604051600160e51b62461bcd028152600401808060200182810382526021815260200180612ba06021913960400191505060405180910390fd5b6000818152600c602052604090205460ff1615610f375760408051600160e51b62461bcd02815260206004820152601c60248201527f4d757374206e6f7420616c726561647920626520656e6c697374656400000000604482015290519081900360640190fd5b600b54600a805460ff9092169183908110610f4e57fe5b600091825260209091206003909102016002015462010000900460ff161015610fc15760408051600160e51b62461bcd02815260206004820152601b60248201527f4d757374206265206d617463682066697420746f20656e6c6973740000000000604482015290519081900360640190fd5b6000818152600c6020526040808220805460ff191660011790555182917ff2ffc74f2561385e2dda97fd2fed03df7841a8aa26fdf1f5fb28c6cc4950dc0191a250565b610dee8383836040518060200160405280600081525061159f565b6000611029610d76565b821061106957604051600160e51b62461bcd02815260040180806020018281038252602c815260200180612d1f602c913960400191505060405180910390fd5b600780548390811061107757fe5b90600052602060002001549050919050565b600d5462010000900460ff1681565b600b5462010000900460ff1681565b6000818152600160205260408120546001600160a01b031680151561110057604051600160e51b62461bcd028152600401808060200182810382526029815260200180612c4f6029913960400191505060405180910390fd5b92915050565b33611110826110a7565b6001600160a01b03161461116e5760408051600160e51b62461bcd02815260206004820152601f60248201527f4d757374206265206f776e6572206f6620706c6179657220746f207265737400604482015290519081900360640190fd5b6111a3600a8281548110151561118057fe5b6000918252602090912060039091020154600d546301000000900460ff16611e49565b600a8054839081106111b157fe5b6000918252602090912060039091020155600a80546112069190839081106111d557fe5b6000918252602090912060026003909202010154600d5460ff62010000909204821691600160201b90910416611e5e565b600a80548390811061121457fe5b600091825260208220600260039092020101805460ff93909316620100000262ff0000199093169290921790915560405182917f0594fec9b42ce38ee3c311c4bdd01add00de4138f3f35028275ed5ddcb0ccdf791a250565b60006001600160a01b03821615156112b957604051600160e51b62461bcd02815260040180806020018281038252602a815260200180612c25602a913960400191505060405180910390fd5b6001600160a01b038216600090815260036020526040902061110090611f41565b600d54610100900460ff1681565b6112f061139f565b15156113465760408051600160e51b62461bcd02815260206004820181905260248201527f4f776e61626c653a2063616c6c6572206973206e6f7420746865206f776e6572604482015290519081900360640190fd5b6009546040516000916001600160a01b0316907f8be0079c531659141344cd1fd0a4f28419497f9722a3daafe3b4186f6b6457e0908390a3600980546001600160a01b0319169055565b6009546001600160a01b031690565b6009546000906001600160a01b03166113b6611e23565b6001600160a01b031614905090565b336113cf826110a7565b6001600160a01b03161461141757604051600160e51b62461bcd028152600401808060200182810382526021815260200180612ba06021913960400191505060405180910390fd5b6000818152600c602052604090205460ff1615156001146114785760408051600160e51b62461bcd0281526020600482015260106024820152600160821b6f135d5cdd08189948195b9b1a5cdd195902604482015290519081900360640190fd5b61148181611f45565b50565b600b5460ff1681565b611495611e23565b6001600160a01b03838116911614156114f85760408051600160e51b62461bcd02815260206004820152601960248201527f4552433732313a20617070726f766520746f2063616c6c657200000000000000604482015290519081900360640190fd5b8060046000611505611e23565b6001600160a01b03908116825260208083019390935260409182016000908120918716808252919093529120805460ff191692151592909217909155611549611e23565b60408051841515815290516001600160a01b0392909216917f17307eab39ab6107e8899845ad3d59bd9653f200f220920489ca2b5937696c319181900360200190a35050565b600d546301000000900460ff1681565b6115b06115aa611e23565b83611e79565b15156115f057604051600160e51b62461bcd028152600401808060200182810382526031815260200180612cee6031913960400191505060405180910390fd5b6115fc84848484611f85565b50505050565b600061160c61139f565b15156116625760408051600160e51b62461bcd02815260206004820181905260248201527f4f776e61626c653a2063616c6c6572206973206e6f7420746865206f776e6572604482015290519081900360640190fd5b6000600a805490509050600a6040518061012001604052808e81526020018d81526020018c60ff1681526020018b60ff1681526020018a60ff1681526020018960ff1681526020018860ff1681526020018760ff1681526020018660ff1681525090806001815401808255809150509060018203906000526020600020906003020160009091929091909150600082015181600001556020820151816001019080519060200190611714929190612a1f565b50604082015160029190910180546060840151608085015160a086015160c087015160e08801516101009889015160ff1990961660ff9889161761ff0019169488169098029390931762ff0000191662010000928716929092029190911763ff00000019166301000000918616919091021764ff000000001916600160201b918516919091021765ff0000000000191665010000000000948416949094029390931766ff0000000000001916600160301b9290931691909102919091179055506117de8382611fdc565b9b9a5050505050505050505050565b336117f7836110a7565b6001600160a01b03161461183f57604051600160e51b62461bcd028152600401808060200182810382526021815260200180612ba06021913960400191505060405180910390fd5b6000828152600c602052604090205460ff1615156001146118a05760408051600160e51b62461bcd0281526020600482015260106024820152600160821b6f135d5cdd08189948195b9b1a5cdd195902604482015290519081900360640190fd5b6000818152600c602052604090205460ff16151560011461190b5760408051600160e51b62461bcd02815260206004820152601960248201527f4f70706f6e656e74206d75737420626520656e6c697374656400000000000000604482015290519081900360640190fd5b61194a826040518060400160405280601a81526020017f506c61796572206e6f74206d6174636820636f6e646974696f6e000000000000815250611ffa565b611989816040518060400160405280601c81526020017f4f70706f6e656e74206e6f74206d6174636820636f6e646974696f6e00000000815250611ffa565b6000611a66600a8481548110151561199d57fe5b906000526020600020906003020160020160069054906101000a900460ff1660ff16611a5a600a868154811015156119d157fe5b906000526020600020906003020160020160059054906101000a900460ff1660ff16611a5a600a88815481101515611a0557fe5b906000526020600020906003020160020160049054906101000a900460ff1660ff16600a89815481101515611a3657fe5b60009182526020909120600390910201600201546301000000900460ff1690612091565b9063ffffffff61209116565b90506000611a7c600a8481548110151561199d57fe5b600b54600a8054929350611ac592611ac09260ff16919088908110611a9d57fe5b600091825260209091206003909102016002015462010000900460ff16906120ee565b612130565b600a805486908110611ad357fe5b60009182526020909120600390910201600201805462ff000019166201000060ff93841602179055600b54600a8054611b1793611ac09316919087908110611a9d57fe5b600a805485908110611b2557fe5b906000526020600020906003020160020160026101000a81548160ff021916908360ff16021790555060008082841015611b60578486611b63565b85855b91509150611ba9600b60019054906101000a900460ff1660ff16600a84815481101515611b8c57fe5b60009182526020909120600390910201549063ffffffff61209116565b600a805484908110611bb757fe5b6000918252602090912060039091020155600b54600a8054611be89262010000900460ff16919084908110611b8c57fe5b600a805483908110611bf657fe5b600091825260208220600390910201919091556040518391879189917f9dcee82476e7972008ebee70c4c5b286d94d3dfa4fe0a715f8eec92c75cf54e991a4611c3e86612179565b50611c4885612179565b50505050505050565b6001600160a01b03918216600090815260046020908152604080832093909416825291909152205460ff1690565b611c8761139f565b1515611cdd5760408051600160e51b62461bcd02815260206004820181905260248201527f4f776e61626c653a2063616c6c6572206973206e6f7420746865206f776e6572604482015290519081900360640190fd5b611481816121cd565b600a805482908110611cf457fe5b9060005260206000209060030201600091509050806000015490806001018054600181600116156101000203166002900480601f016020809104026020016040519081016040528092919081815260200182805460018160011615610100020316600290048015611da65780601f10611d7b57610100808354040283529160200191611da6565b820191906000526020600020905b815481529060010190602001808311611d8957829003601f168201915b5050506002909301549192505060ff80821691610100810482169162010000820481169163010000008104821691600160201b8204811691650100000000008104821691600160301b9091041689565b600d54600160201b900460ff1681565b6000908152600160205260409020546001600160a01b0316151590565b3390565b6000611e42611ac060ff85811690851663ffffffff6120ee16565b9392505050565b6000611e428360ff841663ffffffff6120ee16565b6000611e42611ac060ff85811690851663ffffffff61209116565b6000611e8482611e06565b1515611ec457604051600160e51b62461bcd02815260040180806020018281038252602c815260200180612bc1602c913960400191505060405180910390fd5b6000611ecf836110a7565b9050806001600160a01b0316846001600160a01b03161480611f0a5750836001600160a01b0316611eff84610825565b6001600160a01b0316145b80611f1a5750611f1a8185611c51565b949350505050565b611f2d838383612273565b611f3783826123bf565b610dee82826124b6565b5490565b6000818152600c6020526040808220805460ff191690555182917f2c525dc2c086b9a2f3b902d229853b5b838fcedc22933c40ed7ebe4890a53a8291a250565b611f90848484611f22565b611f9c848484846124f4565b15156115fc57604051600160e51b62461bcd028152600401808060200182810382526032815260200180612aff6032913960400191505060405180910390fd5b611ff682826040518060200160405280600081525061273c565b5050565b61200382612179565b1515611ff65780604051600160e51b62461bcd0281526004018080602001828103825283818151815260200191508051906020019080838360005b8381101561205657818101518382015260200161203e565b50505050905090810190601f1680156120835780820380516001836020036101000a031916815260200191505b509250505060405180910390fd5b600082820183811015611e425760408051600160e51b62461bcd02815260206004820152601b60248201527f536166654d6174683a206164646974696f6e206f766572666c6f770000000000604482015290519081900360640190fd5b6000611e4283836040518060400160405280601e81526020017f536166654d6174683a207375627472616374696f6e206f766572666c6f770000815250612793565b6000610100821061217557604051600160e51b62461bcd028152600401808060200182810382526025815260200180612b576025913960400191505060405180910390fd5b5090565b600b54600a805460009260ff1691908490811061219257fe5b600091825260209091206003909102016002015462010000900460ff16116121c5576121bd82611f45565b506000610812565b506001919050565b6001600160a01b038116151561221757604051600160e51b62461bcd028152600401808060200182810382526026815260200180612b316026913960400191505060405180910390fd5b6009546040516001600160a01b038084169216907f8be0079c531659141344cd1fd0a4f28419497f9722a3daafe3b4186f6b6457e090600090a3600980546001600160a01b0319166001600160a01b0392909216919091179055565b826001600160a01b0316612286826110a7565b6001600160a01b0316146122ce57604051600160e51b62461bcd028152600401808060200182810382526029815260200180612ca46029913960400191505060405180910390fd5b6001600160a01b038216151561231857604051600160e51b62461bcd028152600401808060200182810382526024815260200180612b7c6024913960400191505060405180910390fd5b612321816127f1565b6001600160a01b03831660009081526003602052604090206123429061282c565b6001600160a01b038216600090815260036020526040902061236390612843565b60008181526001602052604080822080546001600160a01b0319166001600160a01b0386811691821790925591518493918716917fddf252ad1be2c89b69c2b068fc378daa952ba7f163c4a11628f55a4df523b3ef91a4505050565b6001600160a01b0382166000908152600560205260408120546123e990600163ffffffff6120ee16565b600083815260066020526040902054909150808214612486576001600160a01b038416600090815260056020526040812080548490811061242657fe5b906000526020600020015490508060056000876001600160a01b03166001600160a01b031681526020019081526020016000208381548110151561246657fe5b600091825260208083209091019290925591825260069052604090208190555b6001600160a01b03841660009081526005602052604090208054906124af906000198301612a99565b5050505050565b6001600160a01b0390911660009081526005602081815260408084208054868652600684529185208290559282526001810183559183529091200155565b6000612508846001600160a01b031661284c565b151561251657506001611f1a565b600060606001600160a01b038616600160e11b630a85bd0102612537611e23565b89888860405160240180856001600160a01b03166001600160a01b03168152602001846001600160a01b03166001600160a01b0316815260200183815260200180602001828103825283818151815260200191508051906020019080838360005b838110156125b0578181015183820152602001612598565b50505050905090810190601f1680156125dd5780820380516001836020036101000a031916815260200191505b5060408051601f198184030181529181526020820180516001600160e01b03166001600160e01b0319909a16999099178952518151919890975087965094509250829150849050835b602083106126455780518252601f199092019160209182019101612626565b6001836020036101000a0380198251168184511680821785525050505050509050019150506000604051808303816000865af19150503d80600081146126a7576040519150601f19603f3d011682016040523d82523d6000602084013e6126ac565b606091505b5091509150811515612702578051156126c85780518082602001fd5b604051600160e51b62461bcd028152600401808060200182810382526032815260200180612aff6032913960400191505060405180910390fd5b600081806020019051602081101561271957600080fd5b50516001600160e01b031916600160e11b630a85bd0102149350611f1a92505050565b6127468383612885565b61275360008484846124f4565b1515610dee57604051600160e51b62461bcd028152600401808060200182810382526032815260200180612aff6032913960400191505060405180910390fd5b600081848411156127e957604051600160e51b62461bcd0281526004018080602001828103825283818151815260200191508051906020019080838360008381101561205657818101518382015260200161203e565b505050900390565b6000818152600260205260409020546001600160a01b03161561148157600090815260026020526040902080546001600160a01b0319169055565b805461283f90600163ffffffff6120ee16565b9055565b80546001019055565b6000813f7fc5d2460186f7233c927e7db2dcc703c0e500b653ca82273b7bfad8045d85a470818114801590611f1a575050151592915050565b61288f82826128a2565b61289982826124b6565b611ff6816129db565b6001600160a01b03821615156129025760408051600160e51b62461bcd02815260206004820181905260248201527f4552433732313a206d696e7420746f20746865207a65726f2061646472657373604482015290519081900360640190fd5b61290b81611e06565b156129605760408051600160e51b62461bcd02815260206004820152601c60248201527f4552433732313a20746f6b656e20616c7265616479206d696e74656400000000604482015290519081900360640190fd5b600081815260016020908152604080832080546001600160a01b0319166001600160a01b03871690811790915583526003909152902061299f90612843565b60405181906001600160a01b038416906000907fddf252ad1be2c89b69c2b068fc378daa952ba7f163c4a11628f55a4df523b3ef908290a45050565b600780546000838152600860205260408120829055600182018355919091527fa66cc928b5edb82af9bd49922954155ab7b0942694bea4ce44661d9a8736c6880155565b828054600181600116156101000203166002900490600052602060002090601f016020900481019282601f10612a6057805160ff1916838001178555612a8d565b82800160010185558215612a8d579182015b82811115612a8d578251825591602001919060010190612a72565b50612175929150612ab9565b815481835581811115610dee57600083815260209020610dee9181019083015b610d7a91905b808211156121755760008155600101612abf56fe455243373231456e756d657261626c653a206f776e657220696e646578206f7574206f6620626f756e64734552433732313a207472616e7366657220746f206e6f6e20455243373231526563656976657220696d706c656d656e7465724f776e61626c653a206e6577206f776e657220697320746865207a65726f206164647265737353616665436173743a2076616c756520646f65736e27742066697420696e203820626974734552433732313a207472616e7366657220746f20746865207a65726f20616464726573734d757374206265206f776e6572206f6620706c6179657220746f20656e6c6973744552433732313a206f70657261746f7220717565727920666f72206e6f6e6578697374656e7420746f6b656e4552433732313a20617070726f76652063616c6c6572206973206e6f74206f776e6572206e6f7220617070726f76656420666f7220616c6c4552433732313a2062616c616e636520717565727920666f7220746865207a65726f20616464726573734552433732313a206f776e657220717565727920666f72206e6f6e6578697374656e7420746f6b656e4552433732313a20617070726f76656420717565727920666f72206e6f6e6578697374656e7420746f6b656e4552433732313a207472616e73666572206f6620746f6b656e2074686174206973206e6f74206f776e4552433732313a20617070726f76616c20746f2063757272656e74206f776e65724552433732313a207472616e736665722063616c6c6572206973206e6f74206f776e6572206e6f7220617070726f766564455243373231456e756d657261626c653a20676c6f62616c20696e646578206f7574206f6620626f756e6473a165627a7a723058204f94f165166503da7d032de64b60d1ca2c75af8da0b9b9e9b2b734b28bece41e0029",
  "source": "// Author: Alex Roan\npragma solidity ^0.5.5;\n\nimport \"./TennisPlayer.sol\";\nimport \"@openzeppelin/contracts/ownership/Ownable.sol\";\n\ncontract Game is Ownable {\n\n    address public playerTokenAddress;\n\n    uint private xp = 100;\n    uint8 private condition = 255;\n    uint8 private agility = 1;\n    uint8 private power = 1;\n    uint8 private stamina = 2;\n    uint8 private technique = 1;\n\n    constructor() public {\n        playerTokenAddress = address(new TennisPlayer());\n    }\n\n    function newPlayer(string memory _name, uint8 _age, uint8 _height) public returns (uint){\n        return TennisPlayer(playerTokenAddress).newPlayer(\n            xp, _name, _age, _height, condition, agility, power, stamina, technique, msg.sender\n        );\n    }\n\n}",
  "sourcePath": "/Users/alexroan/Documents/Projects/Blockchain/DApps/tennis-manager/contracts/Game.sol",
  "compiler": {
    "name": "solc",
    "version": "0.5.5+commit.47a71e8f.Emscripten.clang"
  },
  "schemaVersion": "3.0.23",
  "updatedAt": "2020-04-01T11:20:10.469Z",
  "networkType": "ethereum",
  "devdoc": {
    "methods": {
      "isOwner()": {
        "details": "Returns true if the caller is the current owner."
      },
      "owner()": {
        "details": "Returns the address of the current owner."
      },
      "renounceOwnership()": {
        "details": "Leaves the contract without owner. It will not be possible to call `onlyOwner` functions anymore. Can only be called by the current owner.     * NOTE: Renouncing ownership will leave the contract without an owner, thereby removing any functionality that is only available to the owner."
      },
      "transferOwnership(address)": {
        "details": "Transfers ownership of the contract to a new account (`newOwner`). Can only be called by the current owner."
      }
    }
  },
  "userdoc": {
    "methods": {}
  }
}