{
  "contractName": "TennisPlayer",
  "abi": [
    {
      "constant": true,
      "inputs": [
        {
          "name": "interfaceId",
          "type": "bytes4"
        }
      ],
      "name": "supportsInterface",
      "outputs": [
        {
          "name": "",
          "type": "bool"
        }
      ],
      "payable": false,
      "stateMutability": "view",
      "type": "function"
    },
    {
      "constant": true,
      "inputs": [],
      "name": "xpGainWin",
      "outputs": [
        {
          "name": "",
          "type": "uint8"
        }
      ],
      "payable": false,
      "stateMutability": "view",
      "type": "function"
    },
    {
      "constant": true,
      "inputs": [
        {
          "name": "tokenId",
          "type": "uint256"
        }
      ],
      "name": "getApproved",
      "outputs": [
        {
          "name": "",
          "type": "address"
        }
      ],
      "payable": false,
      "stateMutability": "view",
      "type": "function"
    },
    {
      "constant": false,
      "inputs": [
        {
          "name": "to",
          "type": "address"
        },
        {
          "name": "tokenId",
          "type": "uint256"
        }
      ],
      "name": "approve",
      "outputs": [],
      "payable": false,
      "stateMutability": "nonpayable",
      "type": "function"
    },
    {
      "constant": false,
      "inputs": [
        {
          "name": "_id",
          "type": "uint256"
        },
        {
          "name": "_attr",
          "type": "uint8"
        }
      ],
      "name": "train",
      "outputs": [],
      "payable": false,
      "stateMutability": "nonpayable",
      "type": "function"
    },
    {
      "constant": true,
      "inputs": [
        {
          "name": "",
          "type": "uint256"
        }
      ],
      "name": "enlistedPlayers",
      "outputs": [
        {
          "name": "",
          "type": "bool"
        }
      ],
      "payable": false,
      "stateMutability": "view",
      "type": "function"
    },
    {
      "constant": false,
      "inputs": [
        {
          "name": "from",
          "type": "address"
        },
        {
          "name": "to",
          "type": "address"
        },
        {
          "name": "tokenId",
          "type": "uint256"
        }
      ],
      "name": "transferFrom",
      "outputs": [],
      "payable": false,
      "stateMutability": "nonpayable",
      "type": "function"
    },
    {
      "constant": true,
      "inputs": [],
      "name": "conditionCostToTrain",
      "outputs": [
        {
          "name": "",
          "type": "uint8"
        }
      ],
      "payable": false,
      "stateMutability": "view",
      "type": "function"
    },
    {
      "constant": false,
      "inputs": [
        {
          "name": "_id",
          "type": "uint256"
        }
      ],
      "name": "enlist",
      "outputs": [],
      "payable": false,
      "stateMutability": "nonpayable",
      "type": "function"
    },
    {
      "constant": false,
      "inputs": [
        {
          "name": "from",
          "type": "address"
        },
        {
          "name": "to",
          "type": "address"
        },
        {
          "name": "tokenId",
          "type": "uint256"
        }
      ],
      "name": "safeTransferFrom",
      "outputs": [],
      "payable": false,
      "stateMutability": "nonpayable",
      "type": "function"
    },
    {
      "constant": true,
      "inputs": [],
      "name": "attributeGainOnTrain",
      "outputs": [
        {
          "name": "",
          "type": "uint8"
        }
      ],
      "payable": false,
      "stateMutability": "view",
      "type": "function"
    },
    {
      "constant": true,
      "inputs": [],
      "name": "xpGainLose",
      "outputs": [
        {
          "name": "",
          "type": "uint8"
        }
      ],
      "payable": false,
      "stateMutability": "view",
      "type": "function"
    },
    {
      "constant": true,
      "inputs": [
        {
          "name": "tokenId",
          "type": "uint256"
        }
      ],
      "name": "ownerOf",
      "outputs": [
        {
          "name": "",
          "type": "address"
        }
      ],
      "payable": false,
      "stateMutability": "view",
      "type": "function"
    },
    {
      "constant": false,
      "inputs": [
        {
          "name": "_id",
          "type": "uint256"
        }
      ],
      "name": "rest",
      "outputs": [],
      "payable": false,
      "stateMutability": "nonpayable",
      "type": "function"
    },
    {
      "constant": true,
      "inputs": [
        {
          "name": "owner",
          "type": "address"
        }
      ],
      "name": "balanceOf",
      "outputs": [
        {
          "name": "",
          "type": "uint256"
        }
      ],
      "payable": false,
      "stateMutability": "view",
      "type": "function"
    },
    {
      "constant": true,
      "inputs": [],
      "name": "xpCostToTrain",
      "outputs": [
        {
          "name": "",
          "type": "uint8"
        }
      ],
      "payable": false,
      "stateMutability": "view",
      "type": "function"
    },
    {
      "constant": false,
      "inputs": [],
      "name": "renounceOwnership",
      "outputs": [],
      "payable": false,
      "stateMutability": "nonpayable",
      "type": "function"
    },
    {
      "constant": true,
      "inputs": [],
      "name": "owner",
      "outputs": [
        {
          "name": "",
          "type": "address"
        }
      ],
      "payable": false,
      "stateMutability": "view",
      "type": "function"
    },
    {
      "constant": true,
      "inputs": [],
      "name": "isOwner",
      "outputs": [
        {
          "name": "",
          "type": "bool"
        }
      ],
      "payable": false,
      "stateMutability": "view",
      "type": "function"
    },
    {
      "constant": false,
      "inputs": [
        {
          "name": "_id",
          "type": "uint256"
        }
      ],
      "name": "delist",
      "outputs": [],
      "payable": false,
      "stateMutability": "nonpayable",
      "type": "function"
    },
    {
      "constant": true,
      "inputs": [],
      "name": "conditionCostToPlay",
      "outputs": [
        {
          "name": "",
          "type": "uint8"
        }
      ],
      "payable": false,
      "stateMutability": "view",
      "type": "function"
    },
    {
      "constant": false,
      "inputs": [
        {
          "name": "to",
          "type": "address"
        },
        {
          "name": "approved",
          "type": "bool"
        }
      ],
      "name": "setApprovalForAll",
      "outputs": [],
      "payable": false,
      "stateMutability": "nonpayable",
      "type": "function"
    },
    {
      "constant": true,
      "inputs": [],
      "name": "xpCostToRest",
      "outputs": [
        {
          "name": "",
          "type": "uint8"
        }
      ],
      "payable": false,
      "stateMutability": "view",
      "type": "function"
    },
    {
      "constant": false,
      "inputs": [
        {
          "name": "from",
          "type": "address"
        },
        {
          "name": "to",
          "type": "address"
        },
        {
          "name": "tokenId",
          "type": "uint256"
        },
        {
          "name": "_data",
          "type": "bytes"
        }
      ],
      "name": "safeTransferFrom",
      "outputs": [],
      "payable": false,
      "stateMutability": "nonpayable",
      "type": "function"
    },
    {
      "constant": false,
      "inputs": [
        {
          "name": "_xp",
          "type": "uint256"
        },
        {
          "name": "_name",
          "type": "string"
        },
        {
          "name": "_age",
          "type": "uint8"
        },
        {
          "name": "_height",
          "type": "uint8"
        },
        {
          "name": "_condition",
          "type": "uint8"
        },
        {
          "name": "_agility",
          "type": "uint8"
        },
        {
          "name": "_power",
          "type": "uint8"
        },
        {
          "name": "_stamina",
          "type": "uint8"
        },
        {
          "name": "_technique",
          "type": "uint8"
        },
        {
          "name": "_to",
          "type": "address"
        }
      ],
      "name": "newPlayer",
      "outputs": [
        {
          "name": "",
          "type": "uint256"
        }
      ],
      "payable": false,
      "stateMutability": "nonpayable",
      "type": "function"
    },
    {
      "constant": false,
      "inputs": [
        {
          "name": "_id",
          "type": "uint256"
        },
        {
          "name": "_opponentId",
          "type": "uint256"
        }
      ],
      "name": "playMatch",
      "outputs": [],
      "payable": false,
      "stateMutability": "nonpayable",
      "type": "function"
    },
    {
      "constant": true,
      "inputs": [
        {
          "name": "owner",
          "type": "address"
        },
        {
          "name": "operator",
          "type": "address"
        }
      ],
      "name": "isApprovedForAll",
      "outputs": [
        {
          "name": "",
          "type": "bool"
        }
      ],
      "payable": false,
      "stateMutability": "view",
      "type": "function"
    },
    {
      "constant": false,
      "inputs": [
        {
          "name": "newOwner",
          "type": "address"
        }
      ],
      "name": "transferOwnership",
      "outputs": [],
      "payable": false,
      "stateMutability": "nonpayable",
      "type": "function"
    },
    {
      "constant": true,
      "inputs": [
        {
          "name": "",
          "type": "uint256"
        }
      ],
      "name": "players",
      "outputs": [
        {
          "name": "xp",
          "type": "uint256"
        },
        {
          "name": "name",
          "type": "string"
        },
        {
          "name": "age",
          "type": "uint8"
        },
        {
          "name": "height",
          "type": "uint8"
        },
        {
          "name": "condition",
          "type": "uint8"
        },
        {
          "name": "agility",
          "type": "uint8"
        },
        {
          "name": "power",
          "type": "uint8"
        },
        {
          "name": "stamina",
          "type": "uint8"
        },
        {
          "name": "technique",
          "type": "uint8"
        }
      ],
      "payable": false,
      "stateMutability": "view",
      "type": "function"
    },
    {
      "constant": true,
      "inputs": [],
      "name": "conditionGainOnRest",
      "outputs": [
        {
          "name": "",
          "type": "uint8"
        }
      ],
      "payable": false,
      "stateMutability": "view",
      "type": "function"
    },
    {
      "anonymous": false,
      "inputs": [
        {
          "indexed": true,
          "name": "playerId",
          "type": "uint256"
        },
        {
          "indexed": false,
          "name": "attribute",
          "type": "uint8"
        }
      ],
      "name": "Train",
      "type": "event"
    },
    {
      "anonymous": false,
      "inputs": [
        {
          "indexed": true,
          "name": "playerId",
          "type": "uint256"
        }
      ],
      "name": "Rest",
      "type": "event"
    },
    {
      "anonymous": false,
      "inputs": [
        {
          "indexed": true,
          "name": "playerId",
          "type": "uint256"
        }
      ],
      "name": "Enlist",
      "type": "event"
    },
    {
      "anonymous": false,
      "inputs": [
        {
          "indexed": true,
          "name": "playerId",
          "type": "uint256"
        }
      ],
      "name": "Delist",
      "type": "event"
    },
    {
      "anonymous": false,
      "inputs": [
        {
          "indexed": true,
          "name": "playerId",
          "type": "uint256"
        },
        {
          "indexed": true,
          "name": "opponentId",
          "type": "uint256"
        },
        {
          "indexed": true,
          "name": "winner",
          "type": "uint256"
        }
      ],
      "name": "MatchPlayed",
      "type": "event"
    },
    {
      "anonymous": false,
      "inputs": [
        {
          "indexed": true,
          "name": "previousOwner",
          "type": "address"
        },
        {
          "indexed": true,
          "name": "newOwner",
          "type": "address"
        }
      ],
      "name": "OwnershipTransferred",
      "type": "event"
    },
    {
      "anonymous": false,
      "inputs": [
        {
          "indexed": true,
          "name": "from",
          "type": "address"
        },
        {
          "indexed": true,
          "name": "to",
          "type": "address"
        },
        {
          "indexed": true,
          "name": "tokenId",
          "type": "uint256"
        }
      ],
      "name": "Transfer",
      "type": "event"
    },
    {
      "anonymous": false,
      "inputs": [
        {
          "indexed": true,
          "name": "owner",
          "type": "address"
        },
        {
          "indexed": true,
          "name": "approved",
          "type": "address"
        },
        {
          "indexed": true,
          "name": "tokenId",
          "type": "uint256"
        }
      ],
      "name": "Approval",
      "type": "event"
    },
    {
      "anonymous": false,
      "inputs": [
        {
          "indexed": true,
          "name": "owner",
          "type": "address"
        },
        {
          "indexed": true,
          "name": "operator",
          "type": "address"
        },
        {
          "indexed": false,
          "name": "approved",
          "type": "bool"
        }
      ],
      "name": "ApprovalForAll",
      "type": "event"
    }
  ],
  "bytecode": "0x608060405260078054601460ff199182161761ff0019908116610a001762ff0000199081166205000017909355600980546201000060059190941617909116610800179092161763ff000000191663060000001764ff000000001916640f00000000179055620000967f01ffc9a70000000000000000000000000000000000000000000000000000000062000114602090811b901c565b620000ae6380ac58cd60e01b6200011460201b60201c565b6000620000c0620001e360201b60201c565b600580546001600160a01b0319166001600160a01b038316908117909155604051919250906000907f8be0079c531659141344cd1fd0a4f28419497f9722a3daafe3b4186f6b6457e0908290a350620001e7565b7fffffffff000000000000000000000000000000000000000000000000000000008082161415620001a657604080517f08c379a000000000000000000000000000000000000000000000000000000000815260206004820152601c60248201527f4552433136353a20696e76616c696420696e7465726661636520696400000000604482015290519081900360640190fd5b7fffffffff00000000000000000000000000000000000000000000000000000000166000908152602081905260409020805460ff19166001179055565b3390565b6129e080620001f76000396000f3fe608060405234801561001057600080fd5b50600436106101da5760003560e01c8063712b49c911610104578063a5cdbb2e116100a2578063e985e9c511610071578063e985e9c514610645578063f2fde38b14610673578063f71d96cb14610699578063fbfd1e8a1461077a576101da565b8063a5cdbb2e14610468578063b88d4fde14610470578063c6da6e2b14610534578063daf15ebd14610622576101da565b80638f32d59b116100de5780638f32d59b1461040d578063964bc33f14610415578063a18fc31614610432578063a22cb4651461043a576101da565b8063712b49c9146103f5578063715018a6146103fd5780638da5cb5b14610405576101da565b8063383778691161017c578063561dded11161014b578063561dded11461037b5780636352211e146103835780636e8eb222146103a057806370a08231146103bd576101da565b806338377869146103185780633d8b78941461032057806342842e0e1461033d57806352273b2d14610373576101da565b8063095ea7b3116101b8578063095ea7b31461027157806310b0d81e1461029f5780631fb94225146102c557806323b872dd146102e2576101da565b806301ffc9a7146101df578063050fae6a1461021a578063081812fc14610238575b600080fd5b610206600480360360208110156101f557600080fd5b50356001600160e01b031916610782565b604080519115158252519081900360200190f35b6102226107a5565b6040805160ff9092168252519081900360200190f35b6102556004803603602081101561024e57600080fd5b50356107b3565b604080516001600160a01b039092168252519081900360200190f35b61029d6004803603604081101561028757600080fd5b506001600160a01b03813516906020013561081a565b005b61029d600480360360408110156102b557600080fd5b508035906020013560ff16610944565b610206600480360360208110156102db57600080fd5b5035610d04565b61029d600480360360608110156102f857600080fd5b506001600160a01b03813581169160208101359091169060400135610d19565b610222610d7a565b61029d6004803603602081101561033657600080fd5b5035610d83565b61029d6004803603606081101561035357600080fd5b506001600160a01b03813581169160208101359091169060400135610f09565b610222610f24565b610222610f33565b6102556004803603602081101561039957600080fd5b5035610f42565b61029d600480360360208110156103b657600080fd5b5035610fa1565b6103e3600480360360208110156103d357600080fd5b50356001600160a01b0316611108565b60408051918252519081900360200190f35b610222611175565b61029d611183565b61025561122b565b61020661123b565b61029d6004803603602081101561042b57600080fd5b5035611261565b610222611320565b61029d6004803603604081101561045057600080fd5b506001600160a01b0381351690602001351515611329565b61022261142b565b61029d6004803603608081101561048657600080fd5b6001600160a01b03823581169260208101359091169160408201359190810190608081016060820135600160201b8111156104c057600080fd5b8201836020820111156104d257600080fd5b803590602001918460018302840111600160201b831117156104f357600080fd5b91908080601f01602080910402602001604051908101604052809392919081815260200183838082843760009201919091525092955061143b945050505050565b6103e3600480360361014081101561054b57600080fd5b81359190810190604081016020820135600160201b81111561056c57600080fd5b82018360208201111561057e57600080fd5b803590602001918460018302840111600160201b8311171561059f57600080fd5b91908080601f0160208091040260200160405190810160405280939291908181526020018383808284376000920191909152509295505050813560ff908116935060208301358116926040810135821692506060810135821691608082013581169160a081013582169160c0820135169060e001356001600160a01b031661149e565b61029d6004803603604081101561063857600080fd5b5080359060200135611689565b6102066004803603604081101561065b57600080fd5b506001600160a01b0381358116916020013516611aed565b61029d6004803603602081101561068957600080fd5b50356001600160a01b0316611b1b565b6106b6600480360360208110156106af57600080fd5b5035611b82565b604080518a815260ff808a16928201929092528782166060820152868216608082015285821660a082015284821660c082015283821660e082015290821661010082015261012060208083018281528b51928401929092528a516101408401918c019080838360005b8381101561073757818101518382015260200161071f565b50505050905090810190601f1680156107645780820380516001836020036101000a031916815260200191505b509a505050505050505050505060405180910390f35b610222611c92565b6001600160e01b0319811660009081526020819052604090205460ff165b919050565b600754610100900460ff1681565b60006107be82611ca2565b15156107fe57604051600160e51b62461bcd02815260040180806020018281038252602c81526020018061290e602c913960400191505060405180910390fd5b506000908152600260205260409020546001600160a01b031690565b600061082582610f42565b90506001600160a01b03838116908216141561087557604051600160e51b62461bcd0281526004018080602001828103825260218152602001806129636021913960400191505060405180910390fd5b806001600160a01b0316610887611cbf565b6001600160a01b031614806108a857506108a8816108a3611cbf565b611aed565b15156108e857604051600160e51b62461bcd0281526004018080602001828103825260388152602001806128836038913960400191505060405180910390fd5b60008281526002602052604080822080546001600160a01b0319166001600160a01b0387811691821790925591518593918516917f8c5be1e5ebec7d5bd14f71427d1e84f3dd0314c0f7b2291e5b200ac8c7c3b92591a4505050565b3361094e83610f42565b6001600160a01b0316146109ac5760408051600160e51b62461bcd02815260206004820181905260248201527f4d757374206265206f776e6572206f6620706c6179657220746f20747261696e604482015290519081900360640190fd5b6109e76006838154811015156109be57fe5b600091825260209091206002600390920201015460095460ff6201000090920482169116611cc3565b60068054849081106109f557fe5b906000526020600020906003020160020160026101000a81548160ff021916908360ff160217905550610a51600683815481101515610a3057fe5b6000918252602090912060039091020154600954610100900460ff16611ce5565b6006805484908110610a5f57fe5b60009182526020822060039091020191909155816003811115610a7e57fe5b1415610b0357610ac7600683815481101515610a9657fe5b600091825260209091206002600390920201015460095460ff63010000009092048216916201000090910416611cfa565b6006805484908110610ad557fe5b906000526020600020906003020160020160036101000a81548160ff021916908360ff160217905550610cba565b6001816003811115610b1157fe5b1415610b9657610b5a600683815481101515610b2957fe5b600091825260209091206002600390920201015460095460ff600160201b9092048216916201000090910416611cfa565b6006805484908110610b6857fe5b906000526020600020906003020160020160046101000a81548160ff021916908360ff160217905550610cba565b6002816003811115610ba457fe5b1415610c2b57610bef600683815481101515610bbc57fe5b600091825260209091206002600390920201015460095460ff650100000000009092048216916201000090910416611cfa565b6006805484908110610bfd57fe5b906000526020600020906003020160020160056101000a81548160ff021916908360ff160217905550610cba565b6003816003811115610c3957fe5b1415610cba57610c82600683815481101515610c5157fe5b600091825260209091206002600390920201015460095460ff600160301b9092048216916201000090910416611cfa565b6006805484908110610c9057fe5b906000526020600020906003020160020160066101000a81548160ff021916908360ff1602179055505b817f42076cc90b2fa42c50650fbbbab6c79184379df25c5254258e59154788f768d08260405180826003811115610ced57fe5b60ff16815260200191505060405180910390a25050565b60086020526000908152604090205460ff1681565b610d2a610d24611cbf565b82611d15565b1515610d6a57604051600160e51b62461bcd0281526004018080602001828103825260318152602001806129846031913960400191505060405180910390fd5b610d75838383611dbe565b505050565b60095460ff1681565b33610d8d82610f42565b6001600160a01b031614610dd557604051600160e51b62461bcd0281526004018080602001828103825260218152602001806128366021913960400191505060405180910390fd5b60008181526008602052604090205460ff1615610e3c5760408051600160e51b62461bcd02815260206004820152601c60248201527f4d757374206e6f7420616c726561647920626520656e6c697374656400000000604482015290519081900360640190fd5b6007546006805460ff9092169183908110610e5357fe5b600091825260209091206003909102016002015462010000900460ff161015610ec65760408051600160e51b62461bcd02815260206004820152601b60248201527f4d757374206265206d617463682066697420746f20656e6c6973740000000000604482015290519081900360640190fd5b600081815260086020526040808220805460ff191660011790555182917ff2ffc74f2561385e2dda97fd2fed03df7841a8aa26fdf1f5fb28c6cc4950dc0191a250565b610d758383836040518060200160405280600081525061143b565b60095462010000900460ff1681565b60075462010000900460ff1681565b6000818152600160205260408120546001600160a01b0316801515610f9b57604051600160e51b62461bcd0281526004018080602001828103825260298152602001806128e56029913960400191505060405180910390fd5b92915050565b33610fab82610f42565b6001600160a01b0316146110095760408051600160e51b62461bcd02815260206004820152601f60248201527f4d757374206265206f776e6572206f6620706c6179657220746f207265737400604482015290519081900360640190fd5b61103e60068281548110151561101b57fe5b60009182526020909120600390910201546009546301000000900460ff16611ce5565b600680548390811061104c57fe5b6000918252602090912060039091020155600680546110a191908390811061107057fe5b600091825260209091206002600390920201015460095460ff62010000909204821691600160201b90910416611cfa565b60068054839081106110af57fe5b600091825260208220600260039092020101805460ff93909316620100000262ff0000199093169290921790915560405182917f0594fec9b42ce38ee3c311c4bdd01add00de4138f3f35028275ed5ddcb0ccdf791a250565b60006001600160a01b038216151561115457604051600160e51b62461bcd02815260040180806020018281038252602a8152602001806128bb602a913960400191505060405180910390fd5b6001600160a01b0382166000908152600360205260409020610f9b90611f0a565b600954610100900460ff1681565b61118b61123b565b15156111e15760408051600160e51b62461bcd02815260206004820181905260248201527f4f776e61626c653a2063616c6c6572206973206e6f7420746865206f776e6572604482015290519081900360640190fd5b6005546040516000916001600160a01b0316907f8be0079c531659141344cd1fd0a4f28419497f9722a3daafe3b4186f6b6457e0908390a3600580546001600160a01b0319169055565b6005546001600160a01b03165b90565b6005546000906001600160a01b0316611252611cbf565b6001600160a01b031614905090565b3361126b82610f42565b6001600160a01b0316146112b357604051600160e51b62461bcd0281526004018080602001828103825260218152602001806128366021913960400191505060405180910390fd5b60008181526008602052604090205460ff1615156001146113145760408051600160e51b62461bcd0281526020600482015260106024820152600160821b6f135d5cdd08189948195b9b1a5cdd195902604482015290519081900360640190fd5b61131d81611f0e565b50565b60075460ff1681565b611331611cbf565b6001600160a01b03838116911614156113945760408051600160e51b62461bcd02815260206004820152601960248201527f4552433732313a20617070726f766520746f2063616c6c657200000000000000604482015290519081900360640190fd5b80600460006113a1611cbf565b6001600160a01b03908116825260208083019390935260409182016000908120918716808252919093529120805460ff1916921515929092179091556113e5611cbf565b60408051841515815290516001600160a01b0392909216917f17307eab39ab6107e8899845ad3d59bd9653f200f220920489ca2b5937696c319181900360200190a35050565b6009546301000000900460ff1681565b61144c611446611cbf565b83611d15565b151561148c57604051600160e51b62461bcd0281526004018080602001828103825260318152602001806129846031913960400191505060405180910390fd5b61149884848484611f4e565b50505050565b60006114a861123b565b15156114fe5760408051600160e51b62461bcd02815260206004820181905260248201527f4f776e61626c653a2063616c6c6572206973206e6f7420746865206f776e6572604482015290519081900360640190fd5b6000600680549050905060066040518061012001604052808e81526020018d81526020018c60ff1681526020018b60ff1681526020018a60ff1681526020018960ff1681526020018860ff1681526020018760ff1681526020018660ff16815250908060018154018082558091505090600182039060005260206000209060030201600090919290919091506000820151816000015560208201518160010190805190602001906115b0929190612706565b50604082015160029190910180546060840151608085015160a086015160c087015160e08801516101009889015160ff1990961660ff9889161761ff0019169488169098029390931762ff0000191662010000928716929092029190911763ff00000019166301000000918616919091021764ff000000001916600160201b918516919091021765ff0000000000191665010000000000948416949094029390931766ff0000000000001916600160301b92909316919091029190911790555061167a8382611fa5565b9b9a5050505050505050505050565b3361169383610f42565b6001600160a01b0316146116db57604051600160e51b62461bcd0281526004018080602001828103825260218152602001806128366021913960400191505060405180910390fd5b60008281526008602052604090205460ff16151560011461173c5760408051600160e51b62461bcd0281526020600482015260106024820152600160821b6f135d5cdd08189948195b9b1a5cdd195902604482015290519081900360640190fd5b60008181526008602052604090205460ff1615156001146117a75760408051600160e51b62461bcd02815260206004820152601960248201527f4f70706f6e656e74206d75737420626520656e6c697374656400000000000000604482015290519081900360640190fd5b6117e6826040518060400160405280601a81526020017f506c61796572206e6f74206d6174636820636f6e646974696f6e000000000000815250611fc3565b611825816040518060400160405280601c81526020017f4f70706f6e656e74206e6f74206d6174636820636f6e646974696f6e00000000815250611fc3565b600061190260068481548110151561183957fe5b906000526020600020906003020160020160069054906101000a900460ff1660ff166118f660068681548110151561186d57fe5b906000526020600020906003020160020160059054906101000a900460ff1660ff166118f66006888154811015156118a157fe5b906000526020600020906003020160020160049054906101000a900460ff1660ff166006898154811015156118d257fe5b60009182526020909120600390910201600201546301000000900460ff169061205a565b9063ffffffff61205a16565b9050600061191860068481548110151561183957fe5b600754600680549293506119619261195c9260ff1691908890811061193957fe5b600091825260209091206003909102016002015462010000900460ff16906120b7565b6120f9565b600680548690811061196f57fe5b60009182526020909120600390910201600201805462ff000019166201000060ff93841602179055600754600680546119b39361195c931691908790811061193957fe5b60068054859081106119c157fe5b906000526020600020906003020160020160026101000a81548160ff021916908360ff160217905550600080828410156119fc5784866119ff565b85855b91509150611a45600760019054906101000a900460ff1660ff16600684815481101515611a2857fe5b60009182526020909120600390910201549063ffffffff61205a16565b6006805484908110611a5357fe5b600091825260209091206003909102015560075460068054611a849262010000900460ff16919084908110611a2857fe5b6006805483908110611a9257fe5b600091825260208220600390910201919091556040518391879189917f9dcee82476e7972008ebee70c4c5b286d94d3dfa4fe0a715f8eec92c75cf54e991a4611ada86612142565b50611ae485612142565b50505050505050565b6001600160a01b03918216600090815260046020908152604080832093909416825291909152205460ff1690565b611b2361123b565b1515611b795760408051600160e51b62461bcd02815260206004820181905260248201527f4f776e61626c653a2063616c6c6572206973206e6f7420746865206f776e6572604482015290519081900360640190fd5b61131d81612196565b6006805482908110611b9057fe5b9060005260206000209060030201600091509050806000015490806001018054600181600116156101000203166002900480601f016020809104026020016040519081016040528092919081815260200182805460018160011615610100020316600290048015611c425780601f10611c1757610100808354040283529160200191611c42565b820191906000526020600020905b815481529060010190602001808311611c2557829003601f168201915b5050506002909301549192505060ff80821691610100810482169162010000820481169163010000008104821691600160201b8204811691650100000000008104821691600160301b9091041689565b600954600160201b900460ff1681565b6000908152600160205260409020546001600160a01b0316151590565b3390565b6000611cde61195c60ff85811690851663ffffffff6120b716565b9392505050565b6000611cde8360ff841663ffffffff6120b716565b6000611cde61195c60ff85811690851663ffffffff61205a16565b6000611d2082611ca2565b1515611d6057604051600160e51b62461bcd02815260040180806020018281038252602c815260200180612857602c913960400191505060405180910390fd5b6000611d6b83610f42565b9050806001600160a01b0316846001600160a01b03161480611da65750836001600160a01b0316611d9b846107b3565b6001600160a01b0316145b80611db65750611db68185611aed565b949350505050565b826001600160a01b0316611dd182610f42565b6001600160a01b031614611e1957604051600160e51b62461bcd02815260040180806020018281038252602981526020018061293a6029913960400191505060405180910390fd5b6001600160a01b0382161515611e6357604051600160e51b62461bcd0281526004018080602001828103825260248152602001806128126024913960400191505060405180910390fd5b611e6c8161223c565b6001600160a01b0383166000908152600360205260409020611e8d90612277565b6001600160a01b0382166000908152600360205260409020611eae9061228e565b60008181526001602052604080822080546001600160a01b0319166001600160a01b0386811691821790925591518493918716917fddf252ad1be2c89b69c2b068fc378daa952ba7f163c4a11628f55a4df523b3ef91a4505050565b5490565b600081815260086020526040808220805460ff191690555182917f2c525dc2c086b9a2f3b902d229853b5b838fcedc22933c40ed7ebe4890a53a8291a250565b611f59848484611dbe565b611f6584848484612297565b151561149857604051600160e51b62461bcd0281526004018080602001828103825260328152602001806127956032913960400191505060405180910390fd5b611fbf8282604051806020016040528060008152506124df565b5050565b611fcc82612142565b1515611fbf5780604051600160e51b62461bcd0281526004018080602001828103825283818151815260200191508051906020019080838360005b8381101561201f578181015183820152602001612007565b50505050905090810190601f16801561204c5780820380516001836020036101000a031916815260200191505b509250505060405180910390fd5b600082820183811015611cde5760408051600160e51b62461bcd02815260206004820152601b60248201527f536166654d6174683a206164646974696f6e206f766572666c6f770000000000604482015290519081900360640190fd5b6000611cde83836040518060400160405280601e81526020017f536166654d6174683a207375627472616374696f6e206f766572666c6f770000815250612536565b6000610100821061213e57604051600160e51b62461bcd0281526004018080602001828103825260258152602001806127ed6025913960400191505060405180910390fd5b5090565b6007546006805460009260ff1691908490811061215b57fe5b600091825260209091206003909102016002015462010000900460ff161161218e5761218682611f0e565b5060006107a0565b506001919050565b6001600160a01b03811615156121e057604051600160e51b62461bcd0281526004018080602001828103825260268152602001806127c76026913960400191505060405180910390fd5b6005546040516001600160a01b038084169216907f8be0079c531659141344cd1fd0a4f28419497f9722a3daafe3b4186f6b6457e090600090a3600580546001600160a01b0319166001600160a01b0392909216919091179055565b6000818152600260205260409020546001600160a01b03161561131d57600090815260026020526040902080546001600160a01b0319169055565b805461228a90600163ffffffff6120b716565b9055565b80546001019055565b60006122ab846001600160a01b0316612594565b15156122b957506001611db6565b600060606001600160a01b038616600160e11b630a85bd01026122da611cbf565b89888860405160240180856001600160a01b03166001600160a01b03168152602001846001600160a01b03166001600160a01b0316815260200183815260200180602001828103825283818151815260200191508051906020019080838360005b8381101561235357818101518382015260200161233b565b50505050905090810190601f1680156123805780820380516001836020036101000a031916815260200191505b5060408051601f198184030181529181526020820180516001600160e01b03166001600160e01b0319909a16999099178952518151919890975087965094509250829150849050835b602083106123e85780518252601f1990920191602091820191016123c9565b6001836020036101000a0380198251168184511680821785525050505050509050019150506000604051808303816000865af19150503d806000811461244a576040519150601f19603f3d011682016040523d82523d6000602084013e61244f565b606091505b50915091508115156124a55780511561246b5780518082602001fd5b604051600160e51b62461bcd0281526004018080602001828103825260328152602001806127956032913960400191505060405180910390fd5b60008180602001905160208110156124bc57600080fd5b50516001600160e01b031916600160e11b630a85bd0102149350611db692505050565b6124e983836125cd565b6124f66000848484612297565b1515610d7557604051600160e51b62461bcd0281526004018080602001828103825260328152602001806127956032913960400191505060405180910390fd5b6000818484111561258c57604051600160e51b62461bcd0281526004018080602001828103825283818151815260200191508051906020019080838360008381101561201f578181015183820152602001612007565b505050900390565b6000813f7fc5d2460186f7233c927e7db2dcc703c0e500b653ca82273b7bfad8045d85a470818114801590611db6575050151592915050565b6001600160a01b038216151561262d5760408051600160e51b62461bcd02815260206004820181905260248201527f4552433732313a206d696e7420746f20746865207a65726f2061646472657373604482015290519081900360640190fd5b61263681611ca2565b1561268b5760408051600160e51b62461bcd02815260206004820152601c60248201527f4552433732313a20746f6b656e20616c7265616479206d696e74656400000000604482015290519081900360640190fd5b600081815260016020908152604080832080546001600160a01b0319166001600160a01b0387169081179091558352600390915290206126ca9061228e565b60405181906001600160a01b038416906000907fddf252ad1be2c89b69c2b068fc378daa952ba7f163c4a11628f55a4df523b3ef908290a45050565b828054600181600116156101000203166002900490600052602060002090601f016020900481019282601f1061274757805160ff1916838001178555612774565b82800160010185558215612774579182015b82811115612774578251825591602001919060010190612759565b5061213e926112389250905b8082111561213e576000815560010161278056fe4552433732313a207472616e7366657220746f206e6f6e20455243373231526563656976657220696d706c656d656e7465724f776e61626c653a206e6577206f776e657220697320746865207a65726f206164647265737353616665436173743a2076616c756520646f65736e27742066697420696e203820626974734552433732313a207472616e7366657220746f20746865207a65726f20616464726573734d757374206265206f776e6572206f6620706c6179657220746f20656e6c6973744552433732313a206f70657261746f7220717565727920666f72206e6f6e6578697374656e7420746f6b656e4552433732313a20617070726f76652063616c6c6572206973206e6f74206f776e6572206e6f7220617070726f76656420666f7220616c6c4552433732313a2062616c616e636520717565727920666f7220746865207a65726f20616464726573734552433732313a206f776e657220717565727920666f72206e6f6e6578697374656e7420746f6b656e4552433732313a20617070726f76656420717565727920666f72206e6f6e6578697374656e7420746f6b656e4552433732313a207472616e73666572206f6620746f6b656e2074686174206973206e6f74206f776e4552433732313a20617070726f76616c20746f2063757272656e74206f776e65724552433732313a207472616e736665722063616c6c6572206973206e6f74206f776e6572206e6f7220617070726f766564a165627a7a72305820b25b74e15afd0e7bf6d5475f61ff3e5e3bf26f74f26ad4c07c8f386deb5f410d0029",
  "source": "// Author: Alex Roan\npragma solidity ^0.5.5;\n\nimport \"./CompetingTennisPlayer.sol\";\nimport \"./TrainableTennisPlayer.sol\";\n\ncontract TennisPlayer is CompetingTennisPlayer, TrainableTennisPlayer {\n\n}",
  "sourcePath": "/Users/alexroan/Documents/Projects/Blockchain/DApps/tennis-manager/contracts/TennisPlayer.sol",
  "compiler": {
    "name": "solc",
    "version": "0.5.5+commit.47a71e8f.Emscripten.clang"
  },
  "schemaVersion": "3.0.23",
  "updatedAt": "2020-04-01T10:13:55.002Z",
  "devdoc": {
    "methods": {
      "approve(address,uint256)": {
        "details": "Approves another address to transfer the given token ID The zero address indicates there is no approved address. There can only be one approved address per token at a given time. Can only be called by the token owner or an approved operator.",
        "params": {
          "to": "address to be approved for the given token ID",
          "tokenId": "uint256 ID of the token to be approved"
        }
      },
      "balanceOf(address)": {
        "details": "Gets the balance of the specified address.",
        "params": {
          "owner": "address to query the balance of"
        },
        "return": "uint256 representing the amount owned by the passed address"
      },
      "getApproved(uint256)": {
        "details": "Gets the approved address for a token ID, or zero if no address set Reverts if the token ID does not exist.",
        "params": {
          "tokenId": "uint256 ID of the token to query the approval of"
        },
        "return": "address currently approved for the given token ID"
      },
      "isApprovedForAll(address,address)": {
        "details": "Tells whether an operator is approved by a given owner.",
        "params": {
          "operator": "operator address which you want to query the approval of",
          "owner": "owner address which you want to query the approval of"
        },
        "return": "bool whether the given operator is approved by the given owner"
      },
      "isOwner()": {
        "details": "Returns true if the caller is the current owner."
      },
      "owner()": {
        "details": "Returns the address of the current owner."
      },
      "ownerOf(uint256)": {
        "details": "Gets the owner of the specified token ID.",
        "params": {
          "tokenId": "uint256 ID of the token to query the owner of"
        },
        "return": "address currently marked as the owner of the given token ID"
      },
      "renounceOwnership()": {
        "details": "Leaves the contract without owner. It will not be possible to call `onlyOwner` functions anymore. Can only be called by the current owner.     * NOTE: Renouncing ownership will leave the contract without an owner, thereby removing any functionality that is only available to the owner."
      },
      "safeTransferFrom(address,address,uint256)": {
        "details": "Safely transfers the ownership of a given token ID to another address If the target address is a contract, it must implement {IERC721Receiver-onERC721Received}, which is called upon a safe transfer, and return the magic value `bytes4(keccak256(\"onERC721Received(address,address,uint256,bytes)\"))`; otherwise, the transfer is reverted. Requires the msg.sender to be the owner, approved, or operator",
        "params": {
          "from": "current owner of the token",
          "to": "address to receive the ownership of the given token ID",
          "tokenId": "uint256 ID of the token to be transferred"
        }
      },
      "safeTransferFrom(address,address,uint256,bytes)": {
        "details": "Safely transfers the ownership of a given token ID to another address If the target address is a contract, it must implement {IERC721Receiver-onERC721Received}, which is called upon a safe transfer, and return the magic value `bytes4(keccak256(\"onERC721Received(address,address,uint256,bytes)\"))`; otherwise, the transfer is reverted. Requires the _msgSender() to be the owner, approved, or operator",
        "params": {
          "_data": "bytes data to send along with a safe transfer check",
          "from": "current owner of the token",
          "to": "address to receive the ownership of the given token ID",
          "tokenId": "uint256 ID of the token to be transferred"
        }
      },
      "setApprovalForAll(address,bool)": {
        "details": "Sets or unsets the approval of a given operator An operator is allowed to transfer all tokens of the sender on their behalf.",
        "params": {
          "approved": "representing the status of the approval to be set",
          "to": "operator address to set the approval"
        }
      },
      "supportsInterface(bytes4)": {
        "details": "See {IERC165-supportsInterface}.     * Time complexity O(1), guaranteed to always use less than 30 000 gas."
      },
      "transferFrom(address,address,uint256)": {
        "details": "Transfers the ownership of a given token ID to another address. Usage of this method is discouraged, use {safeTransferFrom} whenever possible. Requires the msg.sender to be the owner, approved, or operator.",
        "params": {
          "from": "current owner of the token",
          "to": "address to receive the ownership of the given token ID",
          "tokenId": "uint256 ID of the token to be transferred"
        }
      },
      "transferOwnership(address)": {
        "details": "Transfers ownership of the contract to a new account (`newOwner`). Can only be called by the current owner."
      }
    }
  },
  "userdoc": {
    "methods": {}
  }
}