{
  "contractName": "TennisPlayerBase",
  "abi": [
    {
      "constant": true,
      "inputs": [
        {
          "name": "interfaceId",
          "type": "bytes4"
        }
      ],
      "name": "supportsInterface",
      "outputs": [
        {
          "name": "",
          "type": "bool"
        }
      ],
      "payable": false,
      "stateMutability": "view",
      "type": "function"
    },
    {
      "constant": true,
      "inputs": [
        {
          "name": "tokenId",
          "type": "uint256"
        }
      ],
      "name": "getApproved",
      "outputs": [
        {
          "name": "",
          "type": "address"
        }
      ],
      "payable": false,
      "stateMutability": "view",
      "type": "function"
    },
    {
      "constant": false,
      "inputs": [
        {
          "name": "to",
          "type": "address"
        },
        {
          "name": "tokenId",
          "type": "uint256"
        }
      ],
      "name": "approve",
      "outputs": [],
      "payable": false,
      "stateMutability": "nonpayable",
      "type": "function"
    },
    {
      "constant": false,
      "inputs": [
        {
          "name": "from",
          "type": "address"
        },
        {
          "name": "to",
          "type": "address"
        },
        {
          "name": "tokenId",
          "type": "uint256"
        }
      ],
      "name": "transferFrom",
      "outputs": [],
      "payable": false,
      "stateMutability": "nonpayable",
      "type": "function"
    },
    {
      "constant": false,
      "inputs": [
        {
          "name": "from",
          "type": "address"
        },
        {
          "name": "to",
          "type": "address"
        },
        {
          "name": "tokenId",
          "type": "uint256"
        }
      ],
      "name": "safeTransferFrom",
      "outputs": [],
      "payable": false,
      "stateMutability": "nonpayable",
      "type": "function"
    },
    {
      "constant": true,
      "inputs": [
        {
          "name": "tokenId",
          "type": "uint256"
        }
      ],
      "name": "ownerOf",
      "outputs": [
        {
          "name": "",
          "type": "address"
        }
      ],
      "payable": false,
      "stateMutability": "view",
      "type": "function"
    },
    {
      "constant": true,
      "inputs": [
        {
          "name": "owner",
          "type": "address"
        }
      ],
      "name": "balanceOf",
      "outputs": [
        {
          "name": "",
          "type": "uint256"
        }
      ],
      "payable": false,
      "stateMutability": "view",
      "type": "function"
    },
    {
      "constant": false,
      "inputs": [],
      "name": "renounceOwnership",
      "outputs": [],
      "payable": false,
      "stateMutability": "nonpayable",
      "type": "function"
    },
    {
      "constant": true,
      "inputs": [],
      "name": "owner",
      "outputs": [
        {
          "name": "",
          "type": "address"
        }
      ],
      "payable": false,
      "stateMutability": "view",
      "type": "function"
    },
    {
      "constant": true,
      "inputs": [],
      "name": "isOwner",
      "outputs": [
        {
          "name": "",
          "type": "bool"
        }
      ],
      "payable": false,
      "stateMutability": "view",
      "type": "function"
    },
    {
      "constant": false,
      "inputs": [
        {
          "name": "to",
          "type": "address"
        },
        {
          "name": "approved",
          "type": "bool"
        }
      ],
      "name": "setApprovalForAll",
      "outputs": [],
      "payable": false,
      "stateMutability": "nonpayable",
      "type": "function"
    },
    {
      "constant": false,
      "inputs": [
        {
          "name": "from",
          "type": "address"
        },
        {
          "name": "to",
          "type": "address"
        },
        {
          "name": "tokenId",
          "type": "uint256"
        },
        {
          "name": "_data",
          "type": "bytes"
        }
      ],
      "name": "safeTransferFrom",
      "outputs": [],
      "payable": false,
      "stateMutability": "nonpayable",
      "type": "function"
    },
    {
      "constant": true,
      "inputs": [
        {
          "name": "owner",
          "type": "address"
        },
        {
          "name": "operator",
          "type": "address"
        }
      ],
      "name": "isApprovedForAll",
      "outputs": [
        {
          "name": "",
          "type": "bool"
        }
      ],
      "payable": false,
      "stateMutability": "view",
      "type": "function"
    },
    {
      "constant": false,
      "inputs": [
        {
          "name": "newOwner",
          "type": "address"
        }
      ],
      "name": "transferOwnership",
      "outputs": [],
      "payable": false,
      "stateMutability": "nonpayable",
      "type": "function"
    },
    {
      "constant": true,
      "inputs": [
        {
          "name": "",
          "type": "uint256"
        }
      ],
      "name": "players",
      "outputs": [
        {
          "name": "xp",
          "type": "uint256"
        },
        {
          "name": "name",
          "type": "string"
        },
        {
          "name": "age",
          "type": "uint8"
        },
        {
          "name": "height",
          "type": "uint8"
        },
        {
          "name": "condition",
          "type": "uint8"
        },
        {
          "name": "agility",
          "type": "uint8"
        },
        {
          "name": "power",
          "type": "uint8"
        },
        {
          "name": "stamina",
          "type": "uint8"
        },
        {
          "name": "technique",
          "type": "uint8"
        }
      ],
      "payable": false,
      "stateMutability": "view",
      "type": "function"
    },
    {
      "anonymous": false,
      "inputs": [
        {
          "indexed": true,
          "name": "previousOwner",
          "type": "address"
        },
        {
          "indexed": true,
          "name": "newOwner",
          "type": "address"
        }
      ],
      "name": "OwnershipTransferred",
      "type": "event"
    },
    {
      "anonymous": false,
      "inputs": [
        {
          "indexed": true,
          "name": "from",
          "type": "address"
        },
        {
          "indexed": true,
          "name": "to",
          "type": "address"
        },
        {
          "indexed": true,
          "name": "tokenId",
          "type": "uint256"
        }
      ],
      "name": "Transfer",
      "type": "event"
    },
    {
      "anonymous": false,
      "inputs": [
        {
          "indexed": true,
          "name": "owner",
          "type": "address"
        },
        {
          "indexed": true,
          "name": "approved",
          "type": "address"
        },
        {
          "indexed": true,
          "name": "tokenId",
          "type": "uint256"
        }
      ],
      "name": "Approval",
      "type": "event"
    },
    {
      "anonymous": false,
      "inputs": [
        {
          "indexed": true,
          "name": "owner",
          "type": "address"
        },
        {
          "indexed": true,
          "name": "operator",
          "type": "address"
        },
        {
          "indexed": false,
          "name": "approved",
          "type": "bool"
        }
      ],
      "name": "ApprovalForAll",
      "type": "event"
    },
    {
      "constant": false,
      "inputs": [
        {
          "name": "_xp",
          "type": "uint256"
        },
        {
          "name": "_name",
          "type": "string"
        },
        {
          "name": "_age",
          "type": "uint8"
        },
        {
          "name": "_height",
          "type": "uint8"
        },
        {
          "name": "_condition",
          "type": "uint8"
        },
        {
          "name": "_agility",
          "type": "uint8"
        },
        {
          "name": "_power",
          "type": "uint8"
        },
        {
          "name": "_stamina",
          "type": "uint8"
        },
        {
          "name": "_technique",
          "type": "uint8"
        },
        {
          "name": "_to",
          "type": "address"
        }
      ],
      "name": "newPlayer",
      "outputs": [
        {
          "name": "",
          "type": "uint256"
        }
      ],
      "payable": false,
      "stateMutability": "nonpayable",
      "type": "function"
    }
  ],
  "bytecode": "0x608060405261001a6301ffc9a760e01b61009360201b60201c565b6100306380ac58cd60e01b61009360201b60201c565b600061004061016160201b60201c565b600580546001600160a01b0319166001600160a01b038316908117909155604051919250906000907f8be0079c531659141344cd1fd0a4f28419497f9722a3daafe3b4186f6b6457e0908290a350610165565b7fffffffff00000000000000000000000000000000000000000000000000000000808216141561012457604080517f08c379a000000000000000000000000000000000000000000000000000000000815260206004820152601c60248201527f4552433136353a20696e76616c696420696e7465726661636520696400000000604482015290519081900360640190fd5b7fffffffff00000000000000000000000000000000000000000000000000000000166000908152602081905260409020805460ff19166001179055565b3390565b611991806101746000396000f3fe608060405234801561001057600080fd5b50600436106101005760003560e01c80638da5cb5b11610097578063c6da6e2b11610066578063c6da6e2b14610374578063e985e9c514610464578063f2fde38b14610492578063f71d96cb146104b857610100565b80638da5cb5b146102705780638f32d59b14610278578063a22cb46514610280578063b88d4fde146102ae57610100565b806342842e0e116100d357806342842e0e146101dd5780636352211e1461021357806370a0823114610230578063715018a61461026857610100565b806301ffc9a714610105578063081812fc14610140578063095ea7b31461017957806323b872dd146101a7575b600080fd5b61012c6004803603602081101561011b57600080fd5b50356001600160e01b031916610599565b604080519115158252519081900360200190f35b61015d6004803603602081101561015657600080fd5b50356105b8565b604080516001600160a01b039092168252519081900360200190f35b6101a56004803603604081101561018f57600080fd5b506001600160a01b03813516906020013561061f565b005b6101a5600480360360608110156101bd57600080fd5b506001600160a01b03813581169160208101359091169060400135610749565b6101a5600480360360608110156101f357600080fd5b506001600160a01b038135811691602081013590911690604001356107aa565b61015d6004803603602081101561022957600080fd5b50356107c5565b6102566004803603602081101561024657600080fd5b50356001600160a01b0316610824565b60408051918252519081900360200190f35b6101a5610891565b61015d610939565b61012c610949565b6101a56004803603604081101561029657600080fd5b506001600160a01b038135169060200135151561096f565b6101a5600480360360808110156102c457600080fd5b6001600160a01b038235811692602081013590911691604082013591908101906080810160608201356401000000008111156102ff57600080fd5b82018360208201111561031157600080fd5b8035906020019184600183028401116401000000008311171561033357600080fd5b91908080601f016020809104026020016040519081016040528093929190818152602001838380828437600092019190915250929550610a71945050505050565b610256600480360361014081101561038b57600080fd5b813591908101906040810160208201356401000000008111156103ad57600080fd5b8201836020820111156103bf57600080fd5b803590602001918460018302840111640100000000831117156103e157600080fd5b91908080601f0160208091040260200160405190810160405280939291908181526020018383808284376000920191909152509295505050813560ff908116935060208301358116926040810135821692506060810135821691608082013581169160a081013582169160c0820135169060e001356001600160a01b0316610ad4565b61012c6004803603604081101561047a57600080fd5b506001600160a01b0381358116916020013516610cc3565b6101a5600480360360208110156104a857600080fd5b50356001600160a01b0316610cf1565b6104d5600480360360208110156104ce57600080fd5b5035610d5b565b604080518a815260ff808a16928201929092528782166060820152868216608082015285821660a082015284821660c082015283821660e082015290821661010082015261012060208083018281528b51928401929092528a516101408401918c019080838360005b8381101561055657818101518382015260200161053e565b50505050905090810190601f1680156105835780820380516001836020036101000a031916815260200191505b509a505050505050505050505060405180910390f35b6001600160e01b03191660009081526020819052604090205460ff1690565b60006105c382610e6f565b151561060357604051600160e51b62461bcd02815260040180806020018281038252602c8152602001806118bf602c913960400191505060405180910390fd5b506000908152600260205260409020546001600160a01b031690565b600061062a826107c5565b90506001600160a01b03838116908216141561067a57604051600160e51b62461bcd0281526004018080602001828103825260218152602001806119146021913960400191505060405180910390fd5b806001600160a01b031661068c610e8c565b6001600160a01b031614806106ad57506106ad816106a8610e8c565b610cc3565b15156106ed57604051600160e51b62461bcd0281526004018080602001828103825260388152602001806118346038913960400191505060405180910390fd5b60008281526002602052604080822080546001600160a01b0319166001600160a01b0387811691821790925591518593918516917f8c5be1e5ebec7d5bd14f71427d1e84f3dd0314c0f7b2291e5b200ac8c7c3b92591a4505050565b61075a610754610e8c565b82610e90565b151561079a57604051600160e51b62461bcd0281526004018080602001828103825260318152602001806119356031913960400191505060405180910390fd5b6107a5838383610f39565b505050565b6107a583838360405180602001604052806000815250610a71565b6000818152600160205260408120546001600160a01b031680151561081e57604051600160e51b62461bcd0281526004018080602001828103825260298152602001806118966029913960400191505060405180910390fd5b92915050565b60006001600160a01b038216151561087057604051600160e51b62461bcd02815260040180806020018281038252602a81526020018061186c602a913960400191505060405180910390fd5b6001600160a01b038216600090815260036020526040902061081e90611085565b610899610949565b15156108ef5760408051600160e51b62461bcd02815260206004820181905260248201527f4f776e61626c653a2063616c6c6572206973206e6f7420746865206f776e6572604482015290519081900360640190fd5b6005546040516000916001600160a01b0316907f8be0079c531659141344cd1fd0a4f28419497f9722a3daafe3b4186f6b6457e0908390a3600580546001600160a01b0319169055565b6005546001600160a01b03165b90565b6005546000906001600160a01b0316610960610e8c565b6001600160a01b031614905090565b610977610e8c565b6001600160a01b03838116911614156109da5760408051600160e51b62461bcd02815260206004820152601960248201527f4552433732313a20617070726f766520746f2063616c6c657200000000000000604482015290519081900360640190fd5b80600460006109e7610e8c565b6001600160a01b03908116825260208083019390935260409182016000908120918716808252919093529120805460ff191692151592909217909155610a2b610e8c565b60408051841515815290516001600160a01b0392909216917f17307eab39ab6107e8899845ad3d59bd9653f200f220920489ca2b5937696c319181900360200190a35050565b610a82610a7c610e8c565b83610e90565b1515610ac257604051600160e51b62461bcd0281526004018080602001828103825260318152602001806119356031913960400191505060405180910390fd5b610ace84848484611089565b50505050565b6000610ade610949565b1515610b345760408051600160e51b62461bcd02815260206004820181905260248201527f4f776e61626c653a2063616c6c6572206973206e6f7420746865206f776e6572604482015290519081900360640190fd5b6000600680549050905060066040518061012001604052808e81526020018d81526020018c60ff1681526020018b60ff1681526020018a60ff1681526020018960ff1681526020018860ff1681526020018760ff1681526020018660ff1681525090806001815401808255809150509060018203906000526020600020906003020160009091929091909150600082015181600001556020820151816001019080519060200190610be69291906116f3565b50604082015160029190910180546060840151608085015160a086015160c087015160e08801516101009889015160ff1990961660ff9889161761ff0019169488169098029390931762ff0000191662010000928716929092029190911763ff00000019166301000000918616919091021764ff000000001916640100000000918516919091021765ff0000000000191665010000000000948416949094029390931766ff00000000000019166601000000000000929093169190910291909117905550610cb483826110e0565b9b9a5050505050505050505050565b6001600160a01b03918216600090815260046020908152604080832093909416825291909152205460ff1690565b610cf9610949565b1515610d4f5760408051600160e51b62461bcd02815260206004820181905260248201527f4f776e61626c653a2063616c6c6572206973206e6f7420746865206f776e6572604482015290519081900360640190fd5b610d58816110fe565b50565b6006805482908110610d6957fe5b9060005260206000209060030201600091509050806000015490806001018054600181600116156101000203166002900480601f016020809104026020016040519081016040528092919081815260200182805460018160011615610100020316600290048015610e1b5780601f10610df057610100808354040283529160200191610e1b565b820191906000526020600020905b815481529060010190602001808311610dfe57829003601f168201915b5050506002909301549192505060ff80821691610100810482169162010000820481169163010000008104821691640100000000820481169165010000000000810482169166010000000000009091041689565b6000908152600160205260409020546001600160a01b0316151590565b3390565b6000610e9b82610e6f565b1515610edb57604051600160e51b62461bcd02815260040180806020018281038252602c815260200180611808602c913960400191505060405180910390fd5b6000610ee6836107c5565b9050806001600160a01b0316846001600160a01b03161480610f215750836001600160a01b0316610f16846105b8565b6001600160a01b0316145b80610f315750610f318185610cc3565b949350505050565b826001600160a01b0316610f4c826107c5565b6001600160a01b031614610f9457604051600160e51b62461bcd0281526004018080602001828103825260298152602001806118eb6029913960400191505060405180910390fd5b6001600160a01b0382161515610fde57604051600160e51b62461bcd0281526004018080602001828103825260248152602001806117e46024913960400191505060405180910390fd5b610fe7816111a4565b6001600160a01b0383166000908152600360205260409020611008906111df565b6001600160a01b0382166000908152600360205260409020611029906111f6565b60008181526001602052604080822080546001600160a01b0319166001600160a01b0386811691821790925591518493918716917fddf252ad1be2c89b69c2b068fc378daa952ba7f163c4a11628f55a4df523b3ef91a4505050565b5490565b611094848484610f39565b6110a0848484846111ff565b1515610ace57604051600160e51b62461bcd02815260040180806020018281038252603281526020018061178c6032913960400191505060405180910390fd5b6110fa828260405180602001604052806000815250611447565b5050565b6001600160a01b038116151561114857604051600160e51b62461bcd0281526004018080602001828103825260268152602001806117be6026913960400191505060405180910390fd5b6005546040516001600160a01b038084169216907f8be0079c531659141344cd1fd0a4f28419497f9722a3daafe3b4186f6b6457e090600090a3600580546001600160a01b0319166001600160a01b0392909216919091179055565b6000818152600260205260409020546001600160a01b031615610d5857600090815260026020526040902080546001600160a01b0319169055565b80546111f290600163ffffffff61149e16565b9055565b80546001019055565b6000611213846001600160a01b03166114e7565b151561122157506001610f31565b600060606001600160a01b038616600160e11b630a85bd0102611242610e8c565b89888860405160240180856001600160a01b03166001600160a01b03168152602001846001600160a01b03166001600160a01b0316815260200183815260200180602001828103825283818151815260200191508051906020019080838360005b838110156112bb5781810151838201526020016112a3565b50505050905090810190601f1680156112e85780820380516001836020036101000a031916815260200191505b5060408051601f198184030181529181526020820180516001600160e01b03166001600160e01b0319909a16999099178952518151919890975087965094509250829150849050835b602083106113505780518252601f199092019160209182019101611331565b6001836020036101000a0380198251168184511680821785525050505050509050019150506000604051808303816000865af19150503d80600081146113b2576040519150601f19603f3d011682016040523d82523d6000602084013e6113b7565b606091505b509150915081151561140d578051156113d35780518082602001fd5b604051600160e51b62461bcd02815260040180806020018281038252603281526020018061178c6032913960400191505060405180910390fd5b600081806020019051602081101561142457600080fd5b50516001600160e01b031916600160e11b630a85bd0102149350610f3192505050565b6114518383611520565b61145e60008484846111ff565b15156107a557604051600160e51b62461bcd02815260040180806020018281038252603281526020018061178c6032913960400191505060405180910390fd5b60006114e083836040518060400160405280601e81526020017f536166654d6174683a207375627472616374696f6e206f766572666c6f770000815250611659565b9392505050565b6000813f7fc5d2460186f7233c927e7db2dcc703c0e500b653ca82273b7bfad8045d85a470818114801590610f31575050151592915050565b6001600160a01b03821615156115805760408051600160e51b62461bcd02815260206004820181905260248201527f4552433732313a206d696e7420746f20746865207a65726f2061646472657373604482015290519081900360640190fd5b61158981610e6f565b156115de5760408051600160e51b62461bcd02815260206004820152601c60248201527f4552433732313a20746f6b656e20616c7265616479206d696e74656400000000604482015290519081900360640190fd5b600081815260016020908152604080832080546001600160a01b0319166001600160a01b03871690811790915583526003909152902061161d906111f6565b60405181906001600160a01b038416906000907fddf252ad1be2c89b69c2b068fc378daa952ba7f163c4a11628f55a4df523b3ef908290a45050565b600081848411156116eb57604051600160e51b62461bcd0281526004018080602001828103825283818151815260200191508051906020019080838360005b838110156116b0578181015183820152602001611698565b50505050905090810190601f1680156116dd5780820380516001836020036101000a031916815260200191505b509250505060405180910390fd5b505050900390565b828054600181600116156101000203166002900490600052602060002090601f016020900481019282601f1061173457805160ff1916838001178555611761565b82800160010185558215611761579182015b82811115611761578251825591602001919060010190611746565b5061176d929150611771565b5090565b61094691905b8082111561176d576000815560010161177756fe4552433732313a207472616e7366657220746f206e6f6e20455243373231526563656976657220696d706c656d656e7465724f776e61626c653a206e6577206f776e657220697320746865207a65726f20616464726573734552433732313a207472616e7366657220746f20746865207a65726f20616464726573734552433732313a206f70657261746f7220717565727920666f72206e6f6e6578697374656e7420746f6b656e4552433732313a20617070726f76652063616c6c6572206973206e6f74206f776e6572206e6f7220617070726f76656420666f7220616c6c4552433732313a2062616c616e636520717565727920666f7220746865207a65726f20616464726573734552433732313a206f776e657220717565727920666f72206e6f6e6578697374656e7420746f6b656e4552433732313a20617070726f76656420717565727920666f72206e6f6e6578697374656e7420746f6b656e4552433732313a207472616e73666572206f6620746f6b656e2074686174206973206e6f74206f776e4552433732313a20617070726f76616c20746f2063757272656e74206f776e65724552433732313a207472616e736665722063616c6c6572206973206e6f74206f776e6572206e6f7220617070726f766564a165627a7a7230582064f9da25f5931924c6fb8d8455e42adaa552ef44c78dab54a736a54d357c9b280029",
  "source": "// Author: Alex Roan\npragma solidity ^0.5.5;\n\nimport \"@openzeppelin/contracts/token/ERC721/ERC721.sol\";\nimport \"@openzeppelin/contracts/ownership/Ownable.sol\";\nimport \"@openzeppelin/contracts/math/SafeMath.sol\";\nimport \"@openzeppelin/contracts/utils/SafeCast.sol\";\n\n// TennisPlayer ERC721 Token\ncontract TennisPlayerBase is ERC721, Ownable {\n\n    using SafeMath for uint;\n    using SafeCast for uint;\n\n\t// Player information\n\tstruct Player {\n\t\t// game details\n\t\tuint xp;\n\t\t// personal details\n\t\tstring name;\n\t\tuint8 age;\n\t\tuint8 height;\n\t\tuint8 condition;\n\t\t// attributes\n\t\tuint8 agility;\n\t\tuint8 power;\n\t\tuint8 stamina;\n\t\tuint8 technique;\n\t}\n\n\t// List of all players\n\tPlayer[] public players;\n\n\t// Create new player on behalf of manager\n\tfunction newPlayer(\n\t\tuint _xp,\n\t\tstring memory _name,\n\t\tuint8 _age,\n\t\tuint8 _height,\n\t\tuint8 _condition,\n\t\tuint8 _agility,\n\t\tuint8 _power,\n\t\tuint8 _stamina,\n\t\tuint8 _technique,\n\t\taddress _to\n\t) public onlyOwner returns (uint)\n\t{\n\t\tuint id = players.length;\n\t\tplayers.push(\n\t\t\tPlayer(_xp, _name, _age, _height, _condition,\n\t\t\t\t_agility, _power, _stamina, _technique)\n\t\t);\n\t\t_safeMint(_to, id);\n\t\treturn id;\n\t}\n\n\t// Cast and add a uint8 to a uint8\n    function castAdd8(uint8 _a, uint8 _b) internal pure returns (uint8) {\n        return uint(_a).add(uint(_b)).toUint8();\n    }\n\n    // Cast and subtract a uint8 from uint8\n    function castSubtract8(uint8 _a, uint8 _b) internal pure returns (uint8) {\n        return uint(_a).sub(uint(_b)).toUint8();\n    }\n\n    // Cast and subtract a uint8 from a uint\n    function castSubtract256(uint _a, uint8 _b) internal pure returns (uint) {\n        return _a.sub(uint(_b));\n    }\n}\n",
  "sourcePath": "/Users/alexroan/Documents/Projects/Blockchain/DApps/tennis-manager/contracts/TennisPlayerBase.sol",
  "compiler": {
    "name": "solc",
    "version": "0.5.5+commit.47a71e8f.Emscripten.clang"
  },
  "schemaVersion": "3.0.23",
  "updatedAt": "2020-04-01T10:13:55.003Z",
  "devdoc": {
    "methods": {
      "approve(address,uint256)": {
        "details": "Approves another address to transfer the given token ID The zero address indicates there is no approved address. There can only be one approved address per token at a given time. Can only be called by the token owner or an approved operator.",
        "params": {
          "to": "address to be approved for the given token ID",
          "tokenId": "uint256 ID of the token to be approved"
        }
      },
      "balanceOf(address)": {
        "details": "Gets the balance of the specified address.",
        "params": {
          "owner": "address to query the balance of"
        },
        "return": "uint256 representing the amount owned by the passed address"
      },
      "getApproved(uint256)": {
        "details": "Gets the approved address for a token ID, or zero if no address set Reverts if the token ID does not exist.",
        "params": {
          "tokenId": "uint256 ID of the token to query the approval of"
        },
        "return": "address currently approved for the given token ID"
      },
      "isApprovedForAll(address,address)": {
        "details": "Tells whether an operator is approved by a given owner.",
        "params": {
          "operator": "operator address which you want to query the approval of",
          "owner": "owner address which you want to query the approval of"
        },
        "return": "bool whether the given operator is approved by the given owner"
      },
      "isOwner()": {
        "details": "Returns true if the caller is the current owner."
      },
      "owner()": {
        "details": "Returns the address of the current owner."
      },
      "ownerOf(uint256)": {
        "details": "Gets the owner of the specified token ID.",
        "params": {
          "tokenId": "uint256 ID of the token to query the owner of"
        },
        "return": "address currently marked as the owner of the given token ID"
      },
      "renounceOwnership()": {
        "details": "Leaves the contract without owner. It will not be possible to call `onlyOwner` functions anymore. Can only be called by the current owner.     * NOTE: Renouncing ownership will leave the contract without an owner, thereby removing any functionality that is only available to the owner."
      },
      "safeTransferFrom(address,address,uint256)": {
        "details": "Safely transfers the ownership of a given token ID to another address If the target address is a contract, it must implement {IERC721Receiver-onERC721Received}, which is called upon a safe transfer, and return the magic value `bytes4(keccak256(\"onERC721Received(address,address,uint256,bytes)\"))`; otherwise, the transfer is reverted. Requires the msg.sender to be the owner, approved, or operator",
        "params": {
          "from": "current owner of the token",
          "to": "address to receive the ownership of the given token ID",
          "tokenId": "uint256 ID of the token to be transferred"
        }
      },
      "safeTransferFrom(address,address,uint256,bytes)": {
        "details": "Safely transfers the ownership of a given token ID to another address If the target address is a contract, it must implement {IERC721Receiver-onERC721Received}, which is called upon a safe transfer, and return the magic value `bytes4(keccak256(\"onERC721Received(address,address,uint256,bytes)\"))`; otherwise, the transfer is reverted. Requires the _msgSender() to be the owner, approved, or operator",
        "params": {
          "_data": "bytes data to send along with a safe transfer check",
          "from": "current owner of the token",
          "to": "address to receive the ownership of the given token ID",
          "tokenId": "uint256 ID of the token to be transferred"
        }
      },
      "setApprovalForAll(address,bool)": {
        "details": "Sets or unsets the approval of a given operator An operator is allowed to transfer all tokens of the sender on their behalf.",
        "params": {
          "approved": "representing the status of the approval to be set",
          "to": "operator address to set the approval"
        }
      },
      "supportsInterface(bytes4)": {
        "details": "See {IERC165-supportsInterface}.     * Time complexity O(1), guaranteed to always use less than 30 000 gas."
      },
      "transferFrom(address,address,uint256)": {
        "details": "Transfers the ownership of a given token ID to another address. Usage of this method is discouraged, use {safeTransferFrom} whenever possible. Requires the msg.sender to be the owner, approved, or operator.",
        "params": {
          "from": "current owner of the token",
          "to": "address to receive the ownership of the given token ID",
          "tokenId": "uint256 ID of the token to be transferred"
        }
      },
      "transferOwnership(address)": {
        "details": "Transfers ownership of the contract to a new account (`newOwner`). Can only be called by the current owner."
      }
    }
  },
  "userdoc": {
    "methods": {}
  }
}