{
  "contractName": "TennisPlayerBase",
  "abi": [
    {
      "constant": true,
      "inputs": [
        {
          "name": "interfaceId",
          "type": "bytes4"
        }
      ],
      "name": "supportsInterface",
      "outputs": [
        {
          "name": "",
          "type": "bool"
        }
      ],
      "payable": false,
      "stateMutability": "view",
      "type": "function"
    },
    {
      "constant": true,
      "inputs": [
        {
          "name": "tokenId",
          "type": "uint256"
        }
      ],
      "name": "getApproved",
      "outputs": [
        {
          "name": "",
          "type": "address"
        }
      ],
      "payable": false,
      "stateMutability": "view",
      "type": "function"
    },
    {
      "constant": false,
      "inputs": [
        {
          "name": "to",
          "type": "address"
        },
        {
          "name": "tokenId",
          "type": "uint256"
        }
      ],
      "name": "approve",
      "outputs": [],
      "payable": false,
      "stateMutability": "nonpayable",
      "type": "function"
    },
    {
      "constant": true,
      "inputs": [],
      "name": "totalSupply",
      "outputs": [
        {
          "name": "",
          "type": "uint256"
        }
      ],
      "payable": false,
      "stateMutability": "view",
      "type": "function"
    },
    {
      "constant": false,
      "inputs": [
        {
          "name": "from",
          "type": "address"
        },
        {
          "name": "to",
          "type": "address"
        },
        {
          "name": "tokenId",
          "type": "uint256"
        }
      ],
      "name": "transferFrom",
      "outputs": [],
      "payable": false,
      "stateMutability": "nonpayable",
      "type": "function"
    },
    {
      "constant": true,
      "inputs": [
        {
          "name": "owner",
          "type": "address"
        },
        {
          "name": "index",
          "type": "uint256"
        }
      ],
      "name": "tokenOfOwnerByIndex",
      "outputs": [
        {
          "name": "",
          "type": "uint256"
        }
      ],
      "payable": false,
      "stateMutability": "view",
      "type": "function"
    },
    {
      "constant": false,
      "inputs": [
        {
          "name": "from",
          "type": "address"
        },
        {
          "name": "to",
          "type": "address"
        },
        {
          "name": "tokenId",
          "type": "uint256"
        }
      ],
      "name": "safeTransferFrom",
      "outputs": [],
      "payable": false,
      "stateMutability": "nonpayable",
      "type": "function"
    },
    {
      "constant": true,
      "inputs": [
        {
          "name": "index",
          "type": "uint256"
        }
      ],
      "name": "tokenByIndex",
      "outputs": [
        {
          "name": "",
          "type": "uint256"
        }
      ],
      "payable": false,
      "stateMutability": "view",
      "type": "function"
    },
    {
      "constant": true,
      "inputs": [
        {
          "name": "tokenId",
          "type": "uint256"
        }
      ],
      "name": "ownerOf",
      "outputs": [
        {
          "name": "",
          "type": "address"
        }
      ],
      "payable": false,
      "stateMutability": "view",
      "type": "function"
    },
    {
      "constant": true,
      "inputs": [
        {
          "name": "owner",
          "type": "address"
        }
      ],
      "name": "balanceOf",
      "outputs": [
        {
          "name": "",
          "type": "uint256"
        }
      ],
      "payable": false,
      "stateMutability": "view",
      "type": "function"
    },
    {
      "constant": false,
      "inputs": [],
      "name": "renounceOwnership",
      "outputs": [],
      "payable": false,
      "stateMutability": "nonpayable",
      "type": "function"
    },
    {
      "constant": true,
      "inputs": [],
      "name": "owner",
      "outputs": [
        {
          "name": "",
          "type": "address"
        }
      ],
      "payable": false,
      "stateMutability": "view",
      "type": "function"
    },
    {
      "constant": true,
      "inputs": [],
      "name": "isOwner",
      "outputs": [
        {
          "name": "",
          "type": "bool"
        }
      ],
      "payable": false,
      "stateMutability": "view",
      "type": "function"
    },
    {
      "constant": false,
      "inputs": [
        {
          "name": "to",
          "type": "address"
        },
        {
          "name": "approved",
          "type": "bool"
        }
      ],
      "name": "setApprovalForAll",
      "outputs": [],
      "payable": false,
      "stateMutability": "nonpayable",
      "type": "function"
    },
    {
      "constant": false,
      "inputs": [
        {
          "name": "from",
          "type": "address"
        },
        {
          "name": "to",
          "type": "address"
        },
        {
          "name": "tokenId",
          "type": "uint256"
        },
        {
          "name": "_data",
          "type": "bytes"
        }
      ],
      "name": "safeTransferFrom",
      "outputs": [],
      "payable": false,
      "stateMutability": "nonpayable",
      "type": "function"
    },
    {
      "constant": true,
      "inputs": [
        {
          "name": "owner",
          "type": "address"
        },
        {
          "name": "operator",
          "type": "address"
        }
      ],
      "name": "isApprovedForAll",
      "outputs": [
        {
          "name": "",
          "type": "bool"
        }
      ],
      "payable": false,
      "stateMutability": "view",
      "type": "function"
    },
    {
      "constant": false,
      "inputs": [
        {
          "name": "newOwner",
          "type": "address"
        }
      ],
      "name": "transferOwnership",
      "outputs": [],
      "payable": false,
      "stateMutability": "nonpayable",
      "type": "function"
    },
    {
      "constant": true,
      "inputs": [
        {
          "name": "",
          "type": "uint256"
        }
      ],
      "name": "players",
      "outputs": [
        {
          "name": "xp",
          "type": "uint256"
        },
        {
          "name": "name",
          "type": "string"
        },
        {
          "name": "age",
          "type": "uint8"
        },
        {
          "name": "height",
          "type": "uint8"
        },
        {
          "name": "condition",
          "type": "uint8"
        },
        {
          "name": "agility",
          "type": "uint8"
        },
        {
          "name": "power",
          "type": "uint8"
        },
        {
          "name": "stamina",
          "type": "uint8"
        },
        {
          "name": "technique",
          "type": "uint8"
        }
      ],
      "payable": false,
      "stateMutability": "view",
      "type": "function"
    },
    {
      "anonymous": false,
      "inputs": [
        {
          "indexed": true,
          "name": "previousOwner",
          "type": "address"
        },
        {
          "indexed": true,
          "name": "newOwner",
          "type": "address"
        }
      ],
      "name": "OwnershipTransferred",
      "type": "event"
    },
    {
      "anonymous": false,
      "inputs": [
        {
          "indexed": true,
          "name": "from",
          "type": "address"
        },
        {
          "indexed": true,
          "name": "to",
          "type": "address"
        },
        {
          "indexed": true,
          "name": "tokenId",
          "type": "uint256"
        }
      ],
      "name": "Transfer",
      "type": "event"
    },
    {
      "anonymous": false,
      "inputs": [
        {
          "indexed": true,
          "name": "owner",
          "type": "address"
        },
        {
          "indexed": true,
          "name": "approved",
          "type": "address"
        },
        {
          "indexed": true,
          "name": "tokenId",
          "type": "uint256"
        }
      ],
      "name": "Approval",
      "type": "event"
    },
    {
      "anonymous": false,
      "inputs": [
        {
          "indexed": true,
          "name": "owner",
          "type": "address"
        },
        {
          "indexed": true,
          "name": "operator",
          "type": "address"
        },
        {
          "indexed": false,
          "name": "approved",
          "type": "bool"
        }
      ],
      "name": "ApprovalForAll",
      "type": "event"
    },
    {
      "constant": false,
      "inputs": [
        {
          "name": "_xp",
          "type": "uint256"
        },
        {
          "name": "_name",
          "type": "string"
        },
        {
          "name": "_age",
          "type": "uint8"
        },
        {
          "name": "_height",
          "type": "uint8"
        },
        {
          "name": "_condition",
          "type": "uint8"
        },
        {
          "name": "_agility",
          "type": "uint8"
        },
        {
          "name": "_power",
          "type": "uint8"
        },
        {
          "name": "_stamina",
          "type": "uint8"
        },
        {
          "name": "_technique",
          "type": "uint8"
        },
        {
          "name": "_to",
          "type": "address"
        }
      ],
      "name": "newPlayer",
      "outputs": [
        {
          "name": "",
          "type": "uint256"
        }
      ],
      "payable": false,
      "stateMutability": "nonpayable",
      "type": "function"
    }
  ],
  "bytecode": "0x60806040526200001c6301ffc9a760e01b620000b260201b60201c565b620000346380ac58cd60e01b620000b260201b60201c565b6200004c63780e9d6360e01b620000b260201b60201c565b60006200005e6200018160201b60201c565b600980546001600160a01b0319166001600160a01b038316908117909155604051919250906000907f8be0079c531659141344cd1fd0a4f28419497f9722a3daafe3b4186f6b6457e0908290a35062000185565b7fffffffff0000000000000000000000000000000000000000000000000000000080821614156200014457604080517f08c379a000000000000000000000000000000000000000000000000000000000815260206004820152601c60248201527f4552433136353a20696e76616c696420696e7465726661636520696400000000604482015290519081900360640190fd5b7fffffffff00000000000000000000000000000000000000000000000000000000166000908152602081905260409020805460ff19166001179055565b3390565b611d2180620001956000396000f3fe608060405234801561001057600080fd5b50600436106101215760003560e01c806370a08231116100ad578063b88d4fde11610071578063b88d4fde14610320578063c6da6e2b146103e6578063e985e9c5146104d6578063f2fde38b14610504578063f71d96cb1461052a57610121565b806370a08231146102b4578063715018a6146102da5780638da5cb5b146102e25780638f32d59b146102ea578063a22cb465146102f257610121565b806323b872dd116100f457806323b872dd146101e25780632f745c591461021857806342842e0e146102445780634f6ccce71461027a5780636352211e1461029757610121565b806301ffc9a714610126578063081812fc14610161578063095ea7b31461019a57806318160ddd146101c8575b600080fd5b61014d6004803603602081101561013c57600080fd5b50356001600160e01b03191661060b565b604080519115158252519081900360200190f35b61017e6004803603602081101561017757600080fd5b503561062a565b604080516001600160a01b039092168252519081900360200190f35b6101c6600480360360408110156101b057600080fd5b506001600160a01b038135169060200135610691565b005b6101d06107bb565b60408051918252519081900360200190f35b6101c6600480360360608110156101f857600080fd5b506001600160a01b038135811691602081013590911690604001356107c2565b6101d06004803603604081101561022e57600080fd5b506001600160a01b038135169060200135610823565b6101c66004803603606081101561025a57600080fd5b506001600160a01b038135811691602081013590911690604001356108a5565b6101d06004803603602081101561029057600080fd5b50356108c0565b61017e600480360360208110156102ad57600080fd5b503561092a565b6101d0600480360360208110156102ca57600080fd5b50356001600160a01b0316610989565b6101c66109f6565b61017e610a9e565b61014d610aad565b6101c66004803603604081101561030857600080fd5b506001600160a01b0381351690602001351515610ad3565b6101c66004803603608081101561033657600080fd5b6001600160a01b0382358116926020810135909116916040820135919081019060808101606082013564010000000081111561037157600080fd5b82018360208201111561038357600080fd5b803590602001918460018302840111640100000000831117156103a557600080fd5b91908080601f016020809104026020016040519081016040528093929190818152602001838380828437600092019190915250929550610bd5945050505050565b6101d060048036036101408110156103fd57600080fd5b8135919081019060408101602082013564010000000081111561041f57600080fd5b82018360208201111561043157600080fd5b8035906020019184600183028401116401000000008311171561045357600080fd5b91908080601f0160208091040260200160405190810160405280939291908181526020018383808284376000920191909152509295505050813560ff908116935060208301358116926040810135821692506060810135821691608082013581169160a081013582169160c0820135169060e001356001600160a01b0316610c38565b61014d600480360360408110156104ec57600080fd5b506001600160a01b0381358116916020013516610e27565b6101c66004803603602081101561051a57600080fd5b50356001600160a01b0316610e55565b6105476004803603602081101561054057600080fd5b5035610ebf565b604080518a815260ff808a16928201929092528782166060820152868216608082015285821660a082015284821660c082015283821660e082015290821661010082015261012060208083018281528b51928401929092528a516101408401918c019080838360005b838110156105c85781810151838201526020016105b0565b50505050905090810190601f1680156105f55780820380516001836020036101000a031916815260200191505b509a505050505050505050505060405180910390f35b6001600160e01b03191660009081526020819052604090205460ff1690565b600061063582610fd3565b151561067557604051600160e51b62461bcd02815260040180806020018281038252602c815260200180611c23602c913960400191505060405180910390fd5b506000908152600260205260409020546001600160a01b031690565b600061069c8261092a565b90506001600160a01b0383811690821614156106ec57604051600160e51b62461bcd028152600401808060200182810382526021815260200180611c786021913960400191505060405180910390fd5b806001600160a01b03166106fe610ff0565b6001600160a01b0316148061071f575061071f8161071a610ff0565b610e27565b151561075f57604051600160e51b62461bcd028152600401808060200182810382526038815260200180611b986038913960400191505060405180910390fd5b60008281526002602052604080822080546001600160a01b0319166001600160a01b0387811691821790925591518593918516917f8c5be1e5ebec7d5bd14f71427d1e84f3dd0314c0f7b2291e5b200ac8c7c3b92591a4505050565b6007545b90565b6107d36107cd610ff0565b82610ff4565b151561081357604051600160e51b62461bcd028152600401808060200182810382526031815260200180611c996031913960400191505060405180910390fd5b61081e83838361109d565b505050565b600061082e83610989565b821061086e57604051600160e51b62461bcd02815260040180806020018281038252602b815260200180611ac5602b913960400191505060405180910390fd5b6001600160a01b038316600090815260056020526040902080548390811061089257fe5b9060005260206000200154905092915050565b61081e83838360405180602001604052806000815250610bd5565b60006108ca6107bb565b821061090a57604051600160e51b62461bcd02815260040180806020018281038252602c815260200180611cca602c913960400191505060405180910390fd5b600780548390811061091857fe5b90600052602060002001549050919050565b6000818152600160205260408120546001600160a01b031680151561098357604051600160e51b62461bcd028152600401808060200182810382526029815260200180611bfa6029913960400191505060405180910390fd5b92915050565b60006001600160a01b03821615156109d557604051600160e51b62461bcd02815260040180806020018281038252602a815260200180611bd0602a913960400191505060405180910390fd5b6001600160a01b0382166000908152600360205260409020610983906110bc565b6109fe610aad565b1515610a545760408051600160e51b62461bcd02815260206004820181905260248201527f4f776e61626c653a2063616c6c6572206973206e6f7420746865206f776e6572604482015290519081900360640190fd5b6009546040516000916001600160a01b0316907f8be0079c531659141344cd1fd0a4f28419497f9722a3daafe3b4186f6b6457e0908390a3600980546001600160a01b0319169055565b6009546001600160a01b031690565b6009546000906001600160a01b0316610ac4610ff0565b6001600160a01b031614905090565b610adb610ff0565b6001600160a01b0383811691161415610b3e5760408051600160e51b62461bcd02815260206004820152601960248201527f4552433732313a20617070726f766520746f2063616c6c657200000000000000604482015290519081900360640190fd5b8060046000610b4b610ff0565b6001600160a01b03908116825260208083019390935260409182016000908120918716808252919093529120805460ff191692151592909217909155610b8f610ff0565b60408051841515815290516001600160a01b0392909216917f17307eab39ab6107e8899845ad3d59bd9653f200f220920489ca2b5937696c319181900360200190a35050565b610be6610be0610ff0565b83610ff4565b1515610c2657604051600160e51b62461bcd028152600401808060200182810382526031815260200180611c996031913960400191505060405180910390fd5b610c32848484846110c0565b50505050565b6000610c42610aad565b1515610c985760408051600160e51b62461bcd02815260206004820181905260248201527f4f776e61626c653a2063616c6c6572206973206e6f7420746865206f776e6572604482015290519081900360640190fd5b6000600a805490509050600a6040518061012001604052808e81526020018d81526020018c60ff1681526020018b60ff1681526020018a60ff1681526020018960ff1681526020018860ff1681526020018760ff1681526020018660ff1681525090806001815401808255809150509060018203906000526020600020906003020160009091929091909150600082015181600001556020820151816001019080519060200190610d4a929190611a0c565b50604082015160029190910180546060840151608085015160a086015160c087015160e08801516101009889015160ff1990961660ff9889161761ff0019169488169098029390931762ff0000191662010000928716929092029190911763ff00000019166301000000918616919091021764ff000000001916640100000000918516919091021765ff0000000000191665010000000000948416949094029390931766ff00000000000019166601000000000000929093169190910291909117905550610e188382611117565b9b9a5050505050505050505050565b6001600160a01b03918216600090815260046020908152604080832093909416825291909152205460ff1690565b610e5d610aad565b1515610eb35760408051600160e51b62461bcd02815260206004820181905260248201527f4f776e61626c653a2063616c6c6572206973206e6f7420746865206f776e6572604482015290519081900360640190fd5b610ebc81611135565b50565b600a805482908110610ecd57fe5b9060005260206000209060030201600091509050806000015490806001018054600181600116156101000203166002900480601f016020809104026020016040519081016040528092919081815260200182805460018160011615610100020316600290048015610f7f5780601f10610f5457610100808354040283529160200191610f7f565b820191906000526020600020905b815481529060010190602001808311610f6257829003601f168201915b5050506002909301549192505060ff80821691610100810482169162010000820481169163010000008104821691640100000000820481169165010000000000810482169166010000000000009091041689565b6000908152600160205260409020546001600160a01b0316151590565b3390565b6000610fff82610fd3565b151561103f57604051600160e51b62461bcd02815260040180806020018281038252602c815260200180611b6c602c913960400191505060405180910390fd5b600061104a8361092a565b9050806001600160a01b0316846001600160a01b031614806110855750836001600160a01b031661107a8461062a565b6001600160a01b0316145b8061109557506110958185610e27565b949350505050565b6110a88383836111db565b6110b28382611327565b61081e828261141e565b5490565b6110cb84848461109d565b6110d78484848461145c565b1515610c3257604051600160e51b62461bcd028152600401808060200182810382526032815260200180611af06032913960400191505060405180910390fd5b6111318282604051806020016040528060008152506116a4565b5050565b6001600160a01b038116151561117f57604051600160e51b62461bcd028152600401808060200182810382526026815260200180611b226026913960400191505060405180910390fd5b6009546040516001600160a01b038084169216907f8be0079c531659141344cd1fd0a4f28419497f9722a3daafe3b4186f6b6457e090600090a3600980546001600160a01b0319166001600160a01b0392909216919091179055565b826001600160a01b03166111ee8261092a565b6001600160a01b03161461123657604051600160e51b62461bcd028152600401808060200182810382526029815260200180611c4f6029913960400191505060405180910390fd5b6001600160a01b038216151561128057604051600160e51b62461bcd028152600401808060200182810382526024815260200180611b486024913960400191505060405180910390fd5b611289816116fb565b6001600160a01b03831660009081526003602052604090206112aa90611736565b6001600160a01b03821660009081526003602052604090206112cb9061174d565b60008181526001602052604080822080546001600160a01b0319166001600160a01b0386811691821790925591518493918716917fddf252ad1be2c89b69c2b068fc378daa952ba7f163c4a11628f55a4df523b3ef91a4505050565b6001600160a01b03821660009081526005602052604081205461135190600163ffffffff61175616565b6000838152600660205260409020549091508082146113ee576001600160a01b038416600090815260056020526040812080548490811061138e57fe5b906000526020600020015490508060056000876001600160a01b03166001600160a01b03168152602001908152602001600020838154811015156113ce57fe5b600091825260208083209091019290925591825260069052604090208190555b6001600160a01b0384166000908152600560205260409020805490611417906000198301611a8a565b5050505050565b6001600160a01b0390911660009081526005602081815260408084208054868652600684529185208290559282526001810183559183529091200155565b6000611470846001600160a01b031661179f565b151561147e57506001611095565b600060606001600160a01b038616600160e11b630a85bd010261149f610ff0565b89888860405160240180856001600160a01b03166001600160a01b03168152602001846001600160a01b03166001600160a01b0316815260200183815260200180602001828103825283818151815260200191508051906020019080838360005b83811015611518578181015183820152602001611500565b50505050905090810190601f1680156115455780820380516001836020036101000a031916815260200191505b5060408051601f198184030181529181526020820180516001600160e01b03166001600160e01b0319909a16999099178952518151919890975087965094509250829150849050835b602083106115ad5780518252601f19909201916020918201910161158e565b6001836020036101000a0380198251168184511680821785525050505050509050019150506000604051808303816000865af19150503d806000811461160f576040519150601f19603f3d011682016040523d82523d6000602084013e611614565b606091505b509150915081151561166a578051156116305780518082602001fd5b604051600160e51b62461bcd028152600401808060200182810382526032815260200180611af06032913960400191505060405180910390fd5b600081806020019051602081101561168157600080fd5b50516001600160e01b031916600160e11b630a85bd010214935061109592505050565b6116ae83836117d8565b6116bb600084848461145c565b151561081e57604051600160e51b62461bcd028152600401808060200182810382526032815260200180611af06032913960400191505060405180910390fd5b6000818152600260205260409020546001600160a01b031615610ebc57600090815260026020526040902080546001600160a01b0319169055565b805461174990600163ffffffff61175616565b9055565b80546001019055565b600061179883836040518060400160405280601e81526020017f536166654d6174683a207375627472616374696f6e206f766572666c6f7700008152506117f5565b9392505050565b6000813f7fc5d2460186f7233c927e7db2dcc703c0e500b653ca82273b7bfad8045d85a470818114801590611095575050151592915050565b6117e2828261188f565b6117ec828261141e565b611131816119c8565b6000818484111561188757604051600160e51b62461bcd0281526004018080602001828103825283818151815260200191508051906020019080838360005b8381101561184c578181015183820152602001611834565b50505050905090810190601f1680156118795780820380516001836020036101000a031916815260200191505b509250505060405180910390fd5b505050900390565b6001600160a01b03821615156118ef5760408051600160e51b62461bcd02815260206004820181905260248201527f4552433732313a206d696e7420746f20746865207a65726f2061646472657373604482015290519081900360640190fd5b6118f881610fd3565b1561194d5760408051600160e51b62461bcd02815260206004820152601c60248201527f4552433732313a20746f6b656e20616c7265616479206d696e74656400000000604482015290519081900360640190fd5b600081815260016020908152604080832080546001600160a01b0319166001600160a01b03871690811790915583526003909152902061198c9061174d565b60405181906001600160a01b038416906000907fddf252ad1be2c89b69c2b068fc378daa952ba7f163c4a11628f55a4df523b3ef908290a45050565b600780546000838152600860205260408120829055600182018355919091527fa66cc928b5edb82af9bd49922954155ab7b0942694bea4ce44661d9a8736c6880155565b828054600181600116156101000203166002900490600052602060002090601f016020900481019282601f10611a4d57805160ff1916838001178555611a7a565b82800160010185558215611a7a579182015b82811115611a7a578251825591602001919060010190611a5f565b50611a86929150611aaa565b5090565b81548183558181111561081e5760008381526020902061081e9181019083015b6107bf91905b80821115611a865760008155600101611ab056fe455243373231456e756d657261626c653a206f776e657220696e646578206f7574206f6620626f756e64734552433732313a207472616e7366657220746f206e6f6e20455243373231526563656976657220696d706c656d656e7465724f776e61626c653a206e6577206f776e657220697320746865207a65726f20616464726573734552433732313a207472616e7366657220746f20746865207a65726f20616464726573734552433732313a206f70657261746f7220717565727920666f72206e6f6e6578697374656e7420746f6b656e4552433732313a20617070726f76652063616c6c6572206973206e6f74206f776e6572206e6f7220617070726f76656420666f7220616c6c4552433732313a2062616c616e636520717565727920666f7220746865207a65726f20616464726573734552433732313a206f776e657220717565727920666f72206e6f6e6578697374656e7420746f6b656e4552433732313a20617070726f76656420717565727920666f72206e6f6e6578697374656e7420746f6b656e4552433732313a207472616e73666572206f6620746f6b656e2074686174206973206e6f74206f776e4552433732313a20617070726f76616c20746f2063757272656e74206f776e65724552433732313a207472616e736665722063616c6c6572206973206e6f74206f776e6572206e6f7220617070726f766564455243373231456e756d657261626c653a20676c6f62616c20696e646578206f7574206f6620626f756e6473a165627a7a72305820e411539cba5e1ebab4aad257d5013b9b3fca965529954986f9ae17171d8549640029",
  "source": "// Author: Alex Roan\npragma solidity ^0.5.5;\n\nimport \"@openzeppelin/contracts/token/ERC721/ERC721Enumerable.sol\";\nimport \"@openzeppelin/contracts/ownership/Ownable.sol\";\nimport \"@openzeppelin/contracts/math/SafeMath.sol\";\nimport \"@openzeppelin/contracts/utils/SafeCast.sol\";\n\n// TennisPlayer ERC721 Token\ncontract TennisPlayerBase is ERC721Enumerable, Ownable {\n\n    using SafeMath for uint;\n    using SafeCast for uint;\n\n\t// Player information\n\tstruct Player {\n\t\t// game details\n\t\tuint xp;\n\t\t// personal details\n\t\tstring name;\n\t\tuint8 age;\n\t\tuint8 height;\n\t\tuint8 condition;\n\t\t// attributes\n\t\tuint8 agility;\n\t\tuint8 power;\n\t\tuint8 stamina;\n\t\tuint8 technique;\n\t}\n\n\t// List of all players\n\tPlayer[] public players;\n\n\t// Create new player on behalf of manager\n\tfunction newPlayer(\n\t\tuint _xp,\n\t\tstring memory _name,\n\t\tuint8 _age,\n\t\tuint8 _height,\n\t\tuint8 _condition,\n\t\tuint8 _agility,\n\t\tuint8 _power,\n\t\tuint8 _stamina,\n\t\tuint8 _technique,\n\t\taddress _to\n\t) public onlyOwner returns (uint)\n\t{\n\t\tuint id = players.length;\n\t\tplayers.push(\n\t\t\tPlayer(_xp, _name, _age, _height, _condition,\n\t\t\t\t_agility, _power, _stamina, _technique)\n\t\t);\n\t\t_safeMint(_to, id);\n\t\treturn id;\n\t}\n\n\t// Cast and add a uint8 to a uint8\n    function castAdd8(uint8 _a, uint8 _b) internal pure returns (uint8) {\n        return uint(_a).add(uint(_b)).toUint8();\n    }\n\n    // Cast and subtract a uint8 from uint8\n    function castSubtract8(uint8 _a, uint8 _b) internal pure returns (uint8) {\n        return uint(_a).sub(uint(_b)).toUint8();\n    }\n\n    // Cast and subtract a uint8 from a uint\n    function castSubtract256(uint _a, uint8 _b) internal pure returns (uint) {\n        return _a.sub(uint(_b));\n    }\n}\n",
  "sourcePath": "/Users/alexroan/Documents/Projects/Blockchain/DApps/tennis-manager/contracts/TennisPlayerBase.sol",
  "compiler": {
    "name": "solc",
    "version": "0.5.5+commit.47a71e8f.Emscripten.clang"
  },
  "schemaVersion": "3.0.23",
  "updatedAt": "2020-04-01T11:20:07.617Z",
  "devdoc": {
    "methods": {
      "approve(address,uint256)": {
        "details": "Approves another address to transfer the given token ID The zero address indicates there is no approved address. There can only be one approved address per token at a given time. Can only be called by the token owner or an approved operator.",
        "params": {
          "to": "address to be approved for the given token ID",
          "tokenId": "uint256 ID of the token to be approved"
        }
      },
      "balanceOf(address)": {
        "details": "Gets the balance of the specified address.",
        "params": {
          "owner": "address to query the balance of"
        },
        "return": "uint256 representing the amount owned by the passed address"
      },
      "getApproved(uint256)": {
        "details": "Gets the approved address for a token ID, or zero if no address set Reverts if the token ID does not exist.",
        "params": {
          "tokenId": "uint256 ID of the token to query the approval of"
        },
        "return": "address currently approved for the given token ID"
      },
      "isApprovedForAll(address,address)": {
        "details": "Tells whether an operator is approved by a given owner.",
        "params": {
          "operator": "operator address which you want to query the approval of",
          "owner": "owner address which you want to query the approval of"
        },
        "return": "bool whether the given operator is approved by the given owner"
      },
      "isOwner()": {
        "details": "Returns true if the caller is the current owner."
      },
      "owner()": {
        "details": "Returns the address of the current owner."
      },
      "ownerOf(uint256)": {
        "details": "Gets the owner of the specified token ID.",
        "params": {
          "tokenId": "uint256 ID of the token to query the owner of"
        },
        "return": "address currently marked as the owner of the given token ID"
      },
      "renounceOwnership()": {
        "details": "Leaves the contract without owner. It will not be possible to call `onlyOwner` functions anymore. Can only be called by the current owner.     * NOTE: Renouncing ownership will leave the contract without an owner, thereby removing any functionality that is only available to the owner."
      },
      "safeTransferFrom(address,address,uint256)": {
        "details": "Safely transfers the ownership of a given token ID to another address If the target address is a contract, it must implement {IERC721Receiver-onERC721Received}, which is called upon a safe transfer, and return the magic value `bytes4(keccak256(\"onERC721Received(address,address,uint256,bytes)\"))`; otherwise, the transfer is reverted. Requires the msg.sender to be the owner, approved, or operator",
        "params": {
          "from": "current owner of the token",
          "to": "address to receive the ownership of the given token ID",
          "tokenId": "uint256 ID of the token to be transferred"
        }
      },
      "safeTransferFrom(address,address,uint256,bytes)": {
        "details": "Safely transfers the ownership of a given token ID to another address If the target address is a contract, it must implement {IERC721Receiver-onERC721Received}, which is called upon a safe transfer, and return the magic value `bytes4(keccak256(\"onERC721Received(address,address,uint256,bytes)\"))`; otherwise, the transfer is reverted. Requires the _msgSender() to be the owner, approved, or operator",
        "params": {
          "_data": "bytes data to send along with a safe transfer check",
          "from": "current owner of the token",
          "to": "address to receive the ownership of the given token ID",
          "tokenId": "uint256 ID of the token to be transferred"
        }
      },
      "setApprovalForAll(address,bool)": {
        "details": "Sets or unsets the approval of a given operator An operator is allowed to transfer all tokens of the sender on their behalf.",
        "params": {
          "approved": "representing the status of the approval to be set",
          "to": "operator address to set the approval"
        }
      },
      "supportsInterface(bytes4)": {
        "details": "See {IERC165-supportsInterface}.     * Time complexity O(1), guaranteed to always use less than 30 000 gas."
      },
      "tokenByIndex(uint256)": {
        "details": "Gets the token ID at a given index of all the tokens in this contract Reverts if the index is greater or equal to the total number of tokens.",
        "params": {
          "index": "uint256 representing the index to be accessed of the tokens list"
        },
        "return": "uint256 token ID at the given index of the tokens list"
      },
      "tokenOfOwnerByIndex(address,uint256)": {
        "details": "Gets the token ID at a given index of the tokens list of the requested owner.",
        "params": {
          "index": "uint256 representing the index to be accessed of the requested tokens list",
          "owner": "address owning the tokens list to be accessed"
        },
        "return": "uint256 token ID at the given index of the tokens list owned by the requested address"
      },
      "totalSupply()": {
        "details": "Gets the total amount of tokens stored by the contract.",
        "return": "uint256 representing the total amount of tokens"
      },
      "transferFrom(address,address,uint256)": {
        "details": "Transfers the ownership of a given token ID to another address. Usage of this method is discouraged, use {safeTransferFrom} whenever possible. Requires the msg.sender to be the owner, approved, or operator.",
        "params": {
          "from": "current owner of the token",
          "to": "address to receive the ownership of the given token ID",
          "tokenId": "uint256 ID of the token to be transferred"
        }
      },
      "transferOwnership(address)": {
        "details": "Transfers ownership of the contract to a new account (`newOwner`). Can only be called by the current owner."
      }
    }
  },
  "userdoc": {
    "methods": {}
  }
}