{
  "contractName": "TrainableTennisPlayer",
  "abi": [
    {
      "constant": true,
      "inputs": [
        {
          "name": "interfaceId",
          "type": "bytes4"
        }
      ],
      "name": "supportsInterface",
      "outputs": [
        {
          "name": "",
          "type": "bool"
        }
      ],
      "payable": false,
      "stateMutability": "view",
      "type": "function"
    },
    {
      "constant": true,
      "inputs": [
        {
          "name": "tokenId",
          "type": "uint256"
        }
      ],
      "name": "getApproved",
      "outputs": [
        {
          "name": "",
          "type": "address"
        }
      ],
      "payable": false,
      "stateMutability": "view",
      "type": "function"
    },
    {
      "constant": false,
      "inputs": [
        {
          "name": "to",
          "type": "address"
        },
        {
          "name": "tokenId",
          "type": "uint256"
        }
      ],
      "name": "approve",
      "outputs": [],
      "payable": false,
      "stateMutability": "nonpayable",
      "type": "function"
    },
    {
      "constant": false,
      "inputs": [
        {
          "name": "from",
          "type": "address"
        },
        {
          "name": "to",
          "type": "address"
        },
        {
          "name": "tokenId",
          "type": "uint256"
        }
      ],
      "name": "transferFrom",
      "outputs": [],
      "payable": false,
      "stateMutability": "nonpayable",
      "type": "function"
    },
    {
      "constant": true,
      "inputs": [],
      "name": "conditionCostToTrain",
      "outputs": [
        {
          "name": "",
          "type": "uint8"
        }
      ],
      "payable": false,
      "stateMutability": "view",
      "type": "function"
    },
    {
      "constant": false,
      "inputs": [
        {
          "name": "from",
          "type": "address"
        },
        {
          "name": "to",
          "type": "address"
        },
        {
          "name": "tokenId",
          "type": "uint256"
        }
      ],
      "name": "safeTransferFrom",
      "outputs": [],
      "payable": false,
      "stateMutability": "nonpayable",
      "type": "function"
    },
    {
      "constant": true,
      "inputs": [],
      "name": "attributeGainOnTrain",
      "outputs": [
        {
          "name": "",
          "type": "uint8"
        }
      ],
      "payable": false,
      "stateMutability": "view",
      "type": "function"
    },
    {
      "constant": true,
      "inputs": [
        {
          "name": "tokenId",
          "type": "uint256"
        }
      ],
      "name": "ownerOf",
      "outputs": [
        {
          "name": "",
          "type": "address"
        }
      ],
      "payable": false,
      "stateMutability": "view",
      "type": "function"
    },
    {
      "constant": true,
      "inputs": [
        {
          "name": "owner",
          "type": "address"
        }
      ],
      "name": "balanceOf",
      "outputs": [
        {
          "name": "",
          "type": "uint256"
        }
      ],
      "payable": false,
      "stateMutability": "view",
      "type": "function"
    },
    {
      "constant": true,
      "inputs": [],
      "name": "xpCostToTrain",
      "outputs": [
        {
          "name": "",
          "type": "uint8"
        }
      ],
      "payable": false,
      "stateMutability": "view",
      "type": "function"
    },
    {
      "constant": false,
      "inputs": [],
      "name": "renounceOwnership",
      "outputs": [],
      "payable": false,
      "stateMutability": "nonpayable",
      "type": "function"
    },
    {
      "constant": true,
      "inputs": [],
      "name": "owner",
      "outputs": [
        {
          "name": "",
          "type": "address"
        }
      ],
      "payable": false,
      "stateMutability": "view",
      "type": "function"
    },
    {
      "constant": true,
      "inputs": [],
      "name": "isOwner",
      "outputs": [
        {
          "name": "",
          "type": "bool"
        }
      ],
      "payable": false,
      "stateMutability": "view",
      "type": "function"
    },
    {
      "constant": false,
      "inputs": [
        {
          "name": "to",
          "type": "address"
        },
        {
          "name": "approved",
          "type": "bool"
        }
      ],
      "name": "setApprovalForAll",
      "outputs": [],
      "payable": false,
      "stateMutability": "nonpayable",
      "type": "function"
    },
    {
      "constant": true,
      "inputs": [],
      "name": "xpCostToRest",
      "outputs": [
        {
          "name": "",
          "type": "uint8"
        }
      ],
      "payable": false,
      "stateMutability": "view",
      "type": "function"
    },
    {
      "constant": false,
      "inputs": [
        {
          "name": "from",
          "type": "address"
        },
        {
          "name": "to",
          "type": "address"
        },
        {
          "name": "tokenId",
          "type": "uint256"
        },
        {
          "name": "_data",
          "type": "bytes"
        }
      ],
      "name": "safeTransferFrom",
      "outputs": [],
      "payable": false,
      "stateMutability": "nonpayable",
      "type": "function"
    },
    {
      "constant": false,
      "inputs": [
        {
          "name": "_xp",
          "type": "uint256"
        },
        {
          "name": "_name",
          "type": "string"
        },
        {
          "name": "_age",
          "type": "uint8"
        },
        {
          "name": "_height",
          "type": "uint8"
        },
        {
          "name": "_condition",
          "type": "uint8"
        },
        {
          "name": "_agility",
          "type": "uint8"
        },
        {
          "name": "_power",
          "type": "uint8"
        },
        {
          "name": "_stamina",
          "type": "uint8"
        },
        {
          "name": "_technique",
          "type": "uint8"
        },
        {
          "name": "_to",
          "type": "address"
        }
      ],
      "name": "newPlayer",
      "outputs": [
        {
          "name": "",
          "type": "uint256"
        }
      ],
      "payable": false,
      "stateMutability": "nonpayable",
      "type": "function"
    },
    {
      "constant": true,
      "inputs": [
        {
          "name": "owner",
          "type": "address"
        },
        {
          "name": "operator",
          "type": "address"
        }
      ],
      "name": "isApprovedForAll",
      "outputs": [
        {
          "name": "",
          "type": "bool"
        }
      ],
      "payable": false,
      "stateMutability": "view",
      "type": "function"
    },
    {
      "constant": false,
      "inputs": [
        {
          "name": "newOwner",
          "type": "address"
        }
      ],
      "name": "transferOwnership",
      "outputs": [],
      "payable": false,
      "stateMutability": "nonpayable",
      "type": "function"
    },
    {
      "constant": true,
      "inputs": [
        {
          "name": "",
          "type": "uint256"
        }
      ],
      "name": "players",
      "outputs": [
        {
          "name": "xp",
          "type": "uint256"
        },
        {
          "name": "name",
          "type": "string"
        },
        {
          "name": "age",
          "type": "uint8"
        },
        {
          "name": "height",
          "type": "uint8"
        },
        {
          "name": "condition",
          "type": "uint8"
        },
        {
          "name": "agility",
          "type": "uint8"
        },
        {
          "name": "power",
          "type": "uint8"
        },
        {
          "name": "stamina",
          "type": "uint8"
        },
        {
          "name": "technique",
          "type": "uint8"
        }
      ],
      "payable": false,
      "stateMutability": "view",
      "type": "function"
    },
    {
      "constant": true,
      "inputs": [],
      "name": "conditionGainOnRest",
      "outputs": [
        {
          "name": "",
          "type": "uint8"
        }
      ],
      "payable": false,
      "stateMutability": "view",
      "type": "function"
    },
    {
      "anonymous": false,
      "inputs": [
        {
          "indexed": true,
          "name": "playerId",
          "type": "uint256"
        },
        {
          "indexed": false,
          "name": "attribute",
          "type": "uint8"
        }
      ],
      "name": "Train",
      "type": "event"
    },
    {
      "anonymous": false,
      "inputs": [
        {
          "indexed": true,
          "name": "playerId",
          "type": "uint256"
        }
      ],
      "name": "Rest",
      "type": "event"
    },
    {
      "anonymous": false,
      "inputs": [
        {
          "indexed": true,
          "name": "previousOwner",
          "type": "address"
        },
        {
          "indexed": true,
          "name": "newOwner",
          "type": "address"
        }
      ],
      "name": "OwnershipTransferred",
      "type": "event"
    },
    {
      "anonymous": false,
      "inputs": [
        {
          "indexed": true,
          "name": "from",
          "type": "address"
        },
        {
          "indexed": true,
          "name": "to",
          "type": "address"
        },
        {
          "indexed": true,
          "name": "tokenId",
          "type": "uint256"
        }
      ],
      "name": "Transfer",
      "type": "event"
    },
    {
      "anonymous": false,
      "inputs": [
        {
          "indexed": true,
          "name": "owner",
          "type": "address"
        },
        {
          "indexed": true,
          "name": "approved",
          "type": "address"
        },
        {
          "indexed": true,
          "name": "tokenId",
          "type": "uint256"
        }
      ],
      "name": "Approval",
      "type": "event"
    },
    {
      "anonymous": false,
      "inputs": [
        {
          "indexed": true,
          "name": "owner",
          "type": "address"
        },
        {
          "indexed": true,
          "name": "operator",
          "type": "address"
        },
        {
          "indexed": false,
          "name": "approved",
          "type": "bool"
        }
      ],
      "name": "ApprovalForAll",
      "type": "event"
    },
    {
      "constant": false,
      "inputs": [
        {
          "name": "_id",
          "type": "uint256"
        },
        {
          "name": "_attr",
          "type": "uint8"
        }
      ],
      "name": "train",
      "outputs": [],
      "payable": false,
      "stateMutability": "nonpayable",
      "type": "function"
    },
    {
      "constant": false,
      "inputs": [
        {
          "name": "_id",
          "type": "uint256"
        }
      ],
      "name": "rest",
      "outputs": [],
      "payable": false,
      "stateMutability": "nonpayable",
      "type": "function"
    }
  ],
  "bytecode": "0x60806040526007805462010000600560ff199092169190911761ff0019166108001762ff000019161763ff000000191663060000001764ff000000001916640f00000000179055620000787f01ffc9a700000000000000000000000000000000000000000000000000000000620000f6602090811b901c565b620000906380ac58cd60e01b620000f660201b60201c565b6000620000a2620001c560201b60201c565b600580546001600160a01b0319166001600160a01b038316908117909155604051919250906000907f8be0079c531659141344cd1fd0a4f28419497f9722a3daafe3b4186f6b6457e0908290a350620001c9565b7fffffffff0000000000000000000000000000000000000000000000000000000080821614156200018857604080517f08c379a000000000000000000000000000000000000000000000000000000000815260206004820152601c60248201527f4552433136353a20696e76616c696420696e7465726661636520696400000000604482015290519081900360640190fd5b7fffffffff00000000000000000000000000000000000000000000000000000000166000908152602081905260409020805460ff19166001179055565b3390565b6120d180620001d96000396000f3fe608060405234801561001057600080fd5b506004361061014d5760003560e01c8063712b49c9116100c3578063b88d4fde1161007c578063b88d4fde14610374578063c6da6e2b14610438578063e985e9c514610526578063f2fde38b14610554578063f71d96cb1461057a578063fbfd1e8a1461065b5761014d565b8063712b49c91461031e578063715018a6146103265780638da5cb5b1461032e5780638f32d59b14610336578063a22cb4651461033e578063a5cdbb2e1461036c5761014d565b80633837786911610115578063383778691461025057806342842e0e1461026e57806352273b2d146102a45780636352211e146102ac5780636e8eb222146102c957806370a08231146102e65761014d565b806301ffc9a714610152578063081812fc1461018d578063095ea7b3146101c657806310b0d81e146101f457806323b872dd1461021a575b600080fd5b6101796004803603602081101561016857600080fd5b50356001600160e01b031916610663565b604080519115158252519081900360200190f35b6101aa600480360360208110156101a357600080fd5b5035610682565b604080516001600160a01b039092168252519081900360200190f35b6101f2600480360360408110156101dc57600080fd5b506001600160a01b0381351690602001356106e9565b005b6101f26004803603604081101561020a57600080fd5b508035906020013560ff16610813565b6101f26004803603606081101561023057600080fd5b506001600160a01b03813581169160208101359091169060400135610bd3565b610258610c34565b6040805160ff9092168252519081900360200190f35b6101f26004803603606081101561028457600080fd5b506001600160a01b03813581169160208101359091169060400135610c3d565b610258610c58565b6101aa600480360360208110156102c257600080fd5b5035610c67565b6101f2600480360360208110156102df57600080fd5b5035610cc6565b61030c600480360360208110156102fc57600080fd5b50356001600160a01b0316610e2d565b60408051918252519081900360200190f35b610258610e9a565b6101f2610ea8565b6101aa610f50565b610179610f60565b6101f26004803603604081101561035457600080fd5b506001600160a01b0381351690602001351515610f86565b610258611088565b6101f26004803603608081101561038a57600080fd5b6001600160a01b03823581169260208101359091169160408201359190810190608081016060820135600160201b8111156103c457600080fd5b8201836020820111156103d657600080fd5b803590602001918460018302840111600160201b831117156103f757600080fd5b91908080601f016020809104026020016040519081016040528093929190818152602001838380828437600092019190915250929550611098945050505050565b61030c600480360361014081101561044f57600080fd5b81359190810190604081016020820135600160201b81111561047057600080fd5b82018360208201111561048257600080fd5b803590602001918460018302840111600160201b831117156104a357600080fd5b91908080601f0160208091040260200160405190810160405280939291908181526020018383808284376000920191909152509295505050813560ff908116935060208301358116926040810135821692506060810135821691608082013581169160a081013582169160c0820135169060e001356001600160a01b03166110fb565b6101796004803603604081101561053c57600080fd5b506001600160a01b03813581169160200135166112e6565b6101f26004803603602081101561056a57600080fd5b50356001600160a01b0316611314565b6105976004803603602081101561059057600080fd5b503561137e565b604080518a815260ff808a16928201929092528782166060820152868216608082015285821660a082015284821660c082015283821660e082015290821661010082015261012060208083018281528b51928401929092528a516101408401918c019080838360005b83811015610618578181015183820152602001610600565b50505050905090810190601f1680156106455780820380516001836020036101000a031916815260200191505b509a505050505050505050505060405180910390f35b61025861148e565b6001600160e01b03191660009081526020819052604090205460ff1690565b600061068d8261149e565b15156106cd57604051600160e51b62461bcd02815260040180806020018281038252602c815260200180611fff602c913960400191505060405180910390fd5b506000908152600260205260409020546001600160a01b031690565b60006106f482610c67565b90506001600160a01b03838116908216141561074457604051600160e51b62461bcd0281526004018080602001828103825260218152602001806120546021913960400191505060405180910390fd5b806001600160a01b03166107566114bb565b6001600160a01b031614806107775750610777816107726114bb565b6112e6565b15156107b757604051600160e51b62461bcd028152600401808060200182810382526038815260200180611f746038913960400191505060405180910390fd5b60008281526002602052604080822080546001600160a01b0319166001600160a01b0387811691821790925591518593918516917f8c5be1e5ebec7d5bd14f71427d1e84f3dd0314c0f7b2291e5b200ac8c7c3b92591a4505050565b3361081d83610c67565b6001600160a01b03161461087b5760408051600160e51b62461bcd02815260206004820181905260248201527f4d757374206265206f776e6572206f6620706c6179657220746f20747261696e604482015290519081900360640190fd5b6108b660068381548110151561088d57fe5b600091825260209091206002600390920201015460075460ff62010000909204821691166114bf565b60068054849081106108c457fe5b906000526020600020906003020160020160026101000a81548160ff021916908360ff1602179055506109206006838154811015156108ff57fe5b6000918252602090912060039091020154600754610100900460ff166114e6565b600680548490811061092e57fe5b6000918252602082206003909102019190915581600381111561094d57fe5b14156109d25761099660068381548110151561096557fe5b600091825260209091206002600390920201015460075460ff630100000090920482169162010000909104166114fb565b60068054849081106109a457fe5b906000526020600020906003020160020160036101000a81548160ff021916908360ff160217905550610b89565b60018160038111156109e057fe5b1415610a6557610a296006838154811015156109f857fe5b600091825260209091206002600390920201015460075460ff600160201b90920482169162010000909104166114fb565b6006805484908110610a3757fe5b906000526020600020906003020160020160046101000a81548160ff021916908360ff160217905550610b89565b6002816003811115610a7357fe5b1415610afa57610abe600683815481101515610a8b57fe5b600091825260209091206002600390920201015460075460ff6501000000000090920482169162010000909104166114fb565b6006805484908110610acc57fe5b906000526020600020906003020160020160056101000a81548160ff021916908360ff160217905550610b89565b6003816003811115610b0857fe5b1415610b8957610b51600683815481101515610b2057fe5b600091825260209091206002600390920201015460075460ff600160301b90920482169162010000909104166114fb565b6006805484908110610b5f57fe5b906000526020600020906003020160020160066101000a81548160ff021916908360ff1602179055505b817f42076cc90b2fa42c50650fbbbab6c79184379df25c5254258e59154788f768d08260405180826003811115610bbc57fe5b60ff16815260200191505060405180910390a25050565b610be4610bde6114bb565b82611516565b1515610c2457604051600160e51b62461bcd0281526004018080602001828103825260318152602001806120756031913960400191505060405180910390fd5b610c2f8383836115bf565b505050565b60075460ff1681565b610c2f83838360405180602001604052806000815250611098565b60075462010000900460ff1681565b6000818152600160205260408120546001600160a01b0316801515610cc057604051600160e51b62461bcd028152600401808060200182810382526029815260200180611fd66029913960400191505060405180910390fd5b92915050565b33610cd082610c67565b6001600160a01b031614610d2e5760408051600160e51b62461bcd02815260206004820152601f60248201527f4d757374206265206f776e6572206f6620706c6179657220746f207265737400604482015290519081900360640190fd5b610d63600682815481101515610d4057fe5b60009182526020909120600390910201546007546301000000900460ff166114e6565b6006805483908110610d7157fe5b600091825260209091206003909102015560068054610dc6919083908110610d9557fe5b600091825260209091206002600390920201015460075460ff62010000909204821691600160201b909104166114fb565b6006805483908110610dd457fe5b600091825260208220600260039092020101805460ff93909316620100000262ff0000199093169290921790915560405182917f0594fec9b42ce38ee3c311c4bdd01add00de4138f3f35028275ed5ddcb0ccdf791a250565b60006001600160a01b0382161515610e7957604051600160e51b62461bcd02815260040180806020018281038252602a815260200180611fac602a913960400191505060405180910390fd5b6001600160a01b0382166000908152600360205260409020610cc09061170b565b600754610100900460ff1681565b610eb0610f60565b1515610f065760408051600160e51b62461bcd02815260206004820181905260248201527f4f776e61626c653a2063616c6c6572206973206e6f7420746865206f776e6572604482015290519081900360640190fd5b6005546040516000916001600160a01b0316907f8be0079c531659141344cd1fd0a4f28419497f9722a3daafe3b4186f6b6457e0908390a3600580546001600160a01b0319169055565b6005546001600160a01b03165b90565b6005546000906001600160a01b0316610f776114bb565b6001600160a01b031614905090565b610f8e6114bb565b6001600160a01b0383811691161415610ff15760408051600160e51b62461bcd02815260206004820152601960248201527f4552433732313a20617070726f766520746f2063616c6c657200000000000000604482015290519081900360640190fd5b8060046000610ffe6114bb565b6001600160a01b03908116825260208083019390935260409182016000908120918716808252919093529120805460ff1916921515929092179091556110426114bb565b60408051841515815290516001600160a01b0392909216917f17307eab39ab6107e8899845ad3d59bd9653f200f220920489ca2b5937696c319181900360200190a35050565b6007546301000000900460ff1681565b6110a96110a36114bb565b83611516565b15156110e957604051600160e51b62461bcd0281526004018080602001828103825260318152602001806120756031913960400191505060405180910390fd5b6110f58484848461170f565b50505050565b6000611105610f60565b151561115b5760408051600160e51b62461bcd02815260206004820181905260248201527f4f776e61626c653a2063616c6c6572206973206e6f7420746865206f776e6572604482015290519081900360640190fd5b6000600680549050905060066040518061012001604052808e81526020018d81526020018c60ff1681526020018b60ff1681526020018a60ff1681526020018960ff1681526020018860ff1681526020018760ff1681526020018660ff168152509080600181540180825580915050906001820390600052602060002090600302016000909192909190915060008201518160000155602082015181600101908051906020019061120d929190611e18565b50604082015160029190910180546060840151608085015160a086015160c087015160e08801516101009889015160ff1990961660ff9889161761ff0019169488169098029390931762ff0000191662010000928716929092029190911763ff00000019166301000000918616919091021764ff000000001916600160201b918516919091021765ff0000000000191665010000000000948416949094029390931766ff0000000000001916600160301b9290931691909102919091179055506112d78382611766565b9b9a5050505050505050505050565b6001600160a01b03918216600090815260046020908152604080832093909416825291909152205460ff1690565b61131c610f60565b15156113725760408051600160e51b62461bcd02815260206004820181905260248201527f4f776e61626c653a2063616c6c6572206973206e6f7420746865206f776e6572604482015290519081900360640190fd5b61137b81611784565b50565b600680548290811061138c57fe5b9060005260206000209060030201600091509050806000015490806001018054600181600116156101000203166002900480601f01602080910402602001604051908101604052809291908181526020018280546001816001161561010002031660029004801561143e5780601f106114135761010080835404028352916020019161143e565b820191906000526020600020905b81548152906001019060200180831161142157829003601f168201915b5050506002909301549192505060ff80821691610100810482169162010000820481169163010000008104821691600160201b8204811691650100000000008104821691600160301b9091041689565b600754600160201b900460ff1681565b6000908152600160205260409020546001600160a01b0316151590565b3390565b60006114df6114da60ff85811690851663ffffffff61182a16565b61186c565b9392505050565b60006114df8360ff841663ffffffff61182a16565b60006114df6114da60ff85811690851663ffffffff6118b516565b60006115218261149e565b151561156157604051600160e51b62461bcd02815260040180806020018281038252602c815260200180611f48602c913960400191505060405180910390fd5b600061156c83610c67565b9050806001600160a01b0316846001600160a01b031614806115a75750836001600160a01b031661159c84610682565b6001600160a01b0316145b806115b757506115b781856112e6565b949350505050565b826001600160a01b03166115d282610c67565b6001600160a01b03161461161a57604051600160e51b62461bcd02815260040180806020018281038252602981526020018061202b6029913960400191505060405180910390fd5b6001600160a01b038216151561166457604051600160e51b62461bcd028152600401808060200182810382526024815260200180611f246024913960400191505060405180910390fd5b61166d81611912565b6001600160a01b038316600090815260036020526040902061168e9061194d565b6001600160a01b03821660009081526003602052604090206116af90611964565b60008181526001602052604080822080546001600160a01b0319166001600160a01b0386811691821790925591518493918716917fddf252ad1be2c89b69c2b068fc378daa952ba7f163c4a11628f55a4df523b3ef91a4505050565b5490565b61171a8484846115bf565b6117268484848461196d565b15156110f557604051600160e51b62461bcd028152600401808060200182810382526032815260200180611ea76032913960400191505060405180910390fd5b611780828260405180602001604052806000815250611bb5565b5050565b6001600160a01b03811615156117ce57604051600160e51b62461bcd028152600401808060200182810382526026815260200180611ed96026913960400191505060405180910390fd5b6005546040516001600160a01b038084169216907f8be0079c531659141344cd1fd0a4f28419497f9722a3daafe3b4186f6b6457e090600090a3600580546001600160a01b0319166001600160a01b0392909216919091179055565b60006114df83836040518060400160405280601e81526020017f536166654d6174683a207375627472616374696f6e206f766572666c6f770000815250611c0c565b600061010082106118b157604051600160e51b62461bcd028152600401808060200182810382526025815260200180611eff6025913960400191505060405180910390fd5b5090565b6000828201838110156114df5760408051600160e51b62461bcd02815260206004820152601b60248201527f536166654d6174683a206164646974696f6e206f766572666c6f770000000000604482015290519081900360640190fd5b6000818152600260205260409020546001600160a01b03161561137b57600090815260026020526040902080546001600160a01b0319169055565b805461196090600163ffffffff61182a16565b9055565b80546001019055565b6000611981846001600160a01b0316611ca6565b151561198f575060016115b7565b600060606001600160a01b038616600160e11b630a85bd01026119b06114bb565b89888860405160240180856001600160a01b03166001600160a01b03168152602001846001600160a01b03166001600160a01b0316815260200183815260200180602001828103825283818151815260200191508051906020019080838360005b83811015611a29578181015183820152602001611a11565b50505050905090810190601f168015611a565780820380516001836020036101000a031916815260200191505b5060408051601f198184030181529181526020820180516001600160e01b03166001600160e01b0319909a16999099178952518151919890975087965094509250829150849050835b60208310611abe5780518252601f199092019160209182019101611a9f565b6001836020036101000a0380198251168184511680821785525050505050509050019150506000604051808303816000865af19150503d8060008114611b20576040519150601f19603f3d011682016040523d82523d6000602084013e611b25565b606091505b5091509150811515611b7b57805115611b415780518082602001fd5b604051600160e51b62461bcd028152600401808060200182810382526032815260200180611ea76032913960400191505060405180910390fd5b6000818060200190516020811015611b9257600080fd5b50516001600160e01b031916600160e11b630a85bd01021493506115b792505050565b611bbf8383611cdf565b611bcc600084848461196d565b1515610c2f57604051600160e51b62461bcd028152600401808060200182810382526032815260200180611ea76032913960400191505060405180910390fd5b60008184841115611c9e57604051600160e51b62461bcd0281526004018080602001828103825283818151815260200191508051906020019080838360005b83811015611c63578181015183820152602001611c4b565b50505050905090810190601f168015611c905780820380516001836020036101000a031916815260200191505b509250505060405180910390fd5b505050900390565b6000813f7fc5d2460186f7233c927e7db2dcc703c0e500b653ca82273b7bfad8045d85a4708181148015906115b7575050151592915050565b6001600160a01b0382161515611d3f5760408051600160e51b62461bcd02815260206004820181905260248201527f4552433732313a206d696e7420746f20746865207a65726f2061646472657373604482015290519081900360640190fd5b611d488161149e565b15611d9d5760408051600160e51b62461bcd02815260206004820152601c60248201527f4552433732313a20746f6b656e20616c7265616479206d696e74656400000000604482015290519081900360640190fd5b600081815260016020908152604080832080546001600160a01b0319166001600160a01b038716908117909155835260039091529020611ddc90611964565b60405181906001600160a01b038416906000907fddf252ad1be2c89b69c2b068fc378daa952ba7f163c4a11628f55a4df523b3ef908290a45050565b828054600181600116156101000203166002900490600052602060002090601f016020900481019282601f10611e5957805160ff1916838001178555611e86565b82800160010185558215611e86579182015b82811115611e86578251825591602001919060010190611e6b565b506118b192610f5d9250905b808211156118b15760008155600101611e9256fe4552433732313a207472616e7366657220746f206e6f6e20455243373231526563656976657220696d706c656d656e7465724f776e61626c653a206e6577206f776e657220697320746865207a65726f206164647265737353616665436173743a2076616c756520646f65736e27742066697420696e203820626974734552433732313a207472616e7366657220746f20746865207a65726f20616464726573734552433732313a206f70657261746f7220717565727920666f72206e6f6e6578697374656e7420746f6b656e4552433732313a20617070726f76652063616c6c6572206973206e6f74206f776e6572206e6f7220617070726f76656420666f7220616c6c4552433732313a2062616c616e636520717565727920666f7220746865207a65726f20616464726573734552433732313a206f776e657220717565727920666f72206e6f6e6578697374656e7420746f6b656e4552433732313a20617070726f76656420717565727920666f72206e6f6e6578697374656e7420746f6b656e4552433732313a207472616e73666572206f6620746f6b656e2074686174206973206e6f74206f776e4552433732313a20617070726f76616c20746f2063757272656e74206f776e65724552433732313a207472616e736665722063616c6c6572206973206e6f74206f776e6572206e6f7220617070726f766564a165627a7a723058208dc455a62546bfc1e78d91ddfd03effc65382064feea62689cd6facbda6dd91f0029",
  "source": "// Author: Alex Roan\npragma solidity ^0.5.5;\n\nimport \"./TennisPlayerBase.sol\";\n\ncontract TrainableTennisPlayer is TennisPlayerBase {\n\n    // TODO - xp costs to change depending on current attribute level?\n\n    // Training costs\n    uint8 public conditionCostToTrain = 5;\n    uint8 public xpCostToTrain = 8;\n    uint8 public attributeGainOnTrain = 1;\n\n    // Rest costs and gains\n    uint8 public xpCostToRest = 6;\n    uint8 public conditionGainOnRest = 15;\n\n    enum Attribute { agility, power, stamina, technique }\n\n    event Train(uint indexed playerId, Attribute attribute);\n    event Rest(uint indexed playerId);\n\n    // Train a player increasing an attribute\n    function train(uint _id, Attribute _attr) public {\n        // Only the owner of the player can train\n        require(ownerOf(_id) == msg.sender, \"Must be owner of player to train\");\n\n        // The player must be fit enough to train\n        players[_id].condition = castSubtract8(players[_id].condition, conditionCostToTrain);\n        // Must have enough XP\n        players[_id].xp = castSubtract256(players[_id].xp, xpCostToTrain);\n\n        // Increase the chosen attribute\n        if (_attr == Attribute.agility) {\n            players[_id].agility = castAdd8(players[_id].agility, attributeGainOnTrain);\n        }\n        else if (_attr == Attribute.power) {\n            players[_id].power = castAdd8(players[_id].power, attributeGainOnTrain);\n        }\n        else if (_attr == Attribute.stamina) {\n            players[_id].stamina = castAdd8(players[_id].stamina, attributeGainOnTrain);\n        }\n        else if (_attr == Attribute.technique) {\n            players[_id].technique = castAdd8(players[_id].technique, attributeGainOnTrain);\n        }\n        emit Train(_id, _attr);\n    }\n\n    // Rest player, increasing condition\n    function rest(uint _id) public {\n        // Only the owner of the player can rest\n        require(ownerOf(_id) == msg.sender, \"Must be owner of player to rest\");\n\n        // Must have enough XP\n        players[_id].xp = castSubtract256(players[_id].xp, xpCostToRest);\n        players[_id].condition = castAdd8(players[_id].condition, conditionGainOnRest);\n        emit Rest(_id);\n    }\n}",
  "sourcePath": "/Users/alexroan/Documents/Projects/Blockchain/DApps/tennis-manager/contracts/TrainableTennisPlayer.sol",
  "compiler": {
    "name": "solc",
    "version": "0.5.5+commit.47a71e8f.Emscripten.clang"
  },
  "schemaVersion": "3.0.23",
  "updatedAt": "2020-04-01T10:13:55.006Z",
  "devdoc": {
    "methods": {
      "approve(address,uint256)": {
        "details": "Approves another address to transfer the given token ID The zero address indicates there is no approved address. There can only be one approved address per token at a given time. Can only be called by the token owner or an approved operator.",
        "params": {
          "to": "address to be approved for the given token ID",
          "tokenId": "uint256 ID of the token to be approved"
        }
      },
      "balanceOf(address)": {
        "details": "Gets the balance of the specified address.",
        "params": {
          "owner": "address to query the balance of"
        },
        "return": "uint256 representing the amount owned by the passed address"
      },
      "getApproved(uint256)": {
        "details": "Gets the approved address for a token ID, or zero if no address set Reverts if the token ID does not exist.",
        "params": {
          "tokenId": "uint256 ID of the token to query the approval of"
        },
        "return": "address currently approved for the given token ID"
      },
      "isApprovedForAll(address,address)": {
        "details": "Tells whether an operator is approved by a given owner.",
        "params": {
          "operator": "operator address which you want to query the approval of",
          "owner": "owner address which you want to query the approval of"
        },
        "return": "bool whether the given operator is approved by the given owner"
      },
      "isOwner()": {
        "details": "Returns true if the caller is the current owner."
      },
      "owner()": {
        "details": "Returns the address of the current owner."
      },
      "ownerOf(uint256)": {
        "details": "Gets the owner of the specified token ID.",
        "params": {
          "tokenId": "uint256 ID of the token to query the owner of"
        },
        "return": "address currently marked as the owner of the given token ID"
      },
      "renounceOwnership()": {
        "details": "Leaves the contract without owner. It will not be possible to call `onlyOwner` functions anymore. Can only be called by the current owner.     * NOTE: Renouncing ownership will leave the contract without an owner, thereby removing any functionality that is only available to the owner."
      },
      "safeTransferFrom(address,address,uint256)": {
        "details": "Safely transfers the ownership of a given token ID to another address If the target address is a contract, it must implement {IERC721Receiver-onERC721Received}, which is called upon a safe transfer, and return the magic value `bytes4(keccak256(\"onERC721Received(address,address,uint256,bytes)\"))`; otherwise, the transfer is reverted. Requires the msg.sender to be the owner, approved, or operator",
        "params": {
          "from": "current owner of the token",
          "to": "address to receive the ownership of the given token ID",
          "tokenId": "uint256 ID of the token to be transferred"
        }
      },
      "safeTransferFrom(address,address,uint256,bytes)": {
        "details": "Safely transfers the ownership of a given token ID to another address If the target address is a contract, it must implement {IERC721Receiver-onERC721Received}, which is called upon a safe transfer, and return the magic value `bytes4(keccak256(\"onERC721Received(address,address,uint256,bytes)\"))`; otherwise, the transfer is reverted. Requires the _msgSender() to be the owner, approved, or operator",
        "params": {
          "_data": "bytes data to send along with a safe transfer check",
          "from": "current owner of the token",
          "to": "address to receive the ownership of the given token ID",
          "tokenId": "uint256 ID of the token to be transferred"
        }
      },
      "setApprovalForAll(address,bool)": {
        "details": "Sets or unsets the approval of a given operator An operator is allowed to transfer all tokens of the sender on their behalf.",
        "params": {
          "approved": "representing the status of the approval to be set",
          "to": "operator address to set the approval"
        }
      },
      "supportsInterface(bytes4)": {
        "details": "See {IERC165-supportsInterface}.     * Time complexity O(1), guaranteed to always use less than 30 000 gas."
      },
      "transferFrom(address,address,uint256)": {
        "details": "Transfers the ownership of a given token ID to another address. Usage of this method is discouraged, use {safeTransferFrom} whenever possible. Requires the msg.sender to be the owner, approved, or operator.",
        "params": {
          "from": "current owner of the token",
          "to": "address to receive the ownership of the given token ID",
          "tokenId": "uint256 ID of the token to be transferred"
        }
      },
      "transferOwnership(address)": {
        "details": "Transfers ownership of the contract to a new account (`newOwner`). Can only be called by the current owner."
      }
    }
  },
  "userdoc": {
    "methods": {}
  }
}