{
  "contractName": "TrainableTennisPlayer",
  "abi": [
    {
      "constant": true,
      "inputs": [
        {
          "name": "interfaceId",
          "type": "bytes4"
        }
      ],
      "name": "supportsInterface",
      "outputs": [
        {
          "name": "",
          "type": "bool"
        }
      ],
      "payable": false,
      "stateMutability": "view",
      "type": "function"
    },
    {
      "constant": true,
      "inputs": [
        {
          "name": "tokenId",
          "type": "uint256"
        }
      ],
      "name": "getApproved",
      "outputs": [
        {
          "name": "",
          "type": "address"
        }
      ],
      "payable": false,
      "stateMutability": "view",
      "type": "function"
    },
    {
      "constant": false,
      "inputs": [
        {
          "name": "to",
          "type": "address"
        },
        {
          "name": "tokenId",
          "type": "uint256"
        }
      ],
      "name": "approve",
      "outputs": [],
      "payable": false,
      "stateMutability": "nonpayable",
      "type": "function"
    },
    {
      "constant": true,
      "inputs": [],
      "name": "totalSupply",
      "outputs": [
        {
          "name": "",
          "type": "uint256"
        }
      ],
      "payable": false,
      "stateMutability": "view",
      "type": "function"
    },
    {
      "constant": false,
      "inputs": [
        {
          "name": "from",
          "type": "address"
        },
        {
          "name": "to",
          "type": "address"
        },
        {
          "name": "tokenId",
          "type": "uint256"
        }
      ],
      "name": "transferFrom",
      "outputs": [],
      "payable": false,
      "stateMutability": "nonpayable",
      "type": "function"
    },
    {
      "constant": true,
      "inputs": [
        {
          "name": "owner",
          "type": "address"
        },
        {
          "name": "index",
          "type": "uint256"
        }
      ],
      "name": "tokenOfOwnerByIndex",
      "outputs": [
        {
          "name": "",
          "type": "uint256"
        }
      ],
      "payable": false,
      "stateMutability": "view",
      "type": "function"
    },
    {
      "constant": true,
      "inputs": [],
      "name": "conditionCostToTrain",
      "outputs": [
        {
          "name": "",
          "type": "uint8"
        }
      ],
      "payable": false,
      "stateMutability": "view",
      "type": "function"
    },
    {
      "constant": false,
      "inputs": [
        {
          "name": "from",
          "type": "address"
        },
        {
          "name": "to",
          "type": "address"
        },
        {
          "name": "tokenId",
          "type": "uint256"
        }
      ],
      "name": "safeTransferFrom",
      "outputs": [],
      "payable": false,
      "stateMutability": "nonpayable",
      "type": "function"
    },
    {
      "constant": true,
      "inputs": [
        {
          "name": "index",
          "type": "uint256"
        }
      ],
      "name": "tokenByIndex",
      "outputs": [
        {
          "name": "",
          "type": "uint256"
        }
      ],
      "payable": false,
      "stateMutability": "view",
      "type": "function"
    },
    {
      "constant": true,
      "inputs": [],
      "name": "attributeGainOnTrain",
      "outputs": [
        {
          "name": "",
          "type": "uint8"
        }
      ],
      "payable": false,
      "stateMutability": "view",
      "type": "function"
    },
    {
      "constant": true,
      "inputs": [
        {
          "name": "tokenId",
          "type": "uint256"
        }
      ],
      "name": "ownerOf",
      "outputs": [
        {
          "name": "",
          "type": "address"
        }
      ],
      "payable": false,
      "stateMutability": "view",
      "type": "function"
    },
    {
      "constant": true,
      "inputs": [
        {
          "name": "owner",
          "type": "address"
        }
      ],
      "name": "balanceOf",
      "outputs": [
        {
          "name": "",
          "type": "uint256"
        }
      ],
      "payable": false,
      "stateMutability": "view",
      "type": "function"
    },
    {
      "constant": true,
      "inputs": [],
      "name": "xpCostToTrain",
      "outputs": [
        {
          "name": "",
          "type": "uint8"
        }
      ],
      "payable": false,
      "stateMutability": "view",
      "type": "function"
    },
    {
      "constant": false,
      "inputs": [],
      "name": "renounceOwnership",
      "outputs": [],
      "payable": false,
      "stateMutability": "nonpayable",
      "type": "function"
    },
    {
      "constant": true,
      "inputs": [],
      "name": "owner",
      "outputs": [
        {
          "name": "",
          "type": "address"
        }
      ],
      "payable": false,
      "stateMutability": "view",
      "type": "function"
    },
    {
      "constant": true,
      "inputs": [],
      "name": "isOwner",
      "outputs": [
        {
          "name": "",
          "type": "bool"
        }
      ],
      "payable": false,
      "stateMutability": "view",
      "type": "function"
    },
    {
      "constant": false,
      "inputs": [
        {
          "name": "to",
          "type": "address"
        },
        {
          "name": "approved",
          "type": "bool"
        }
      ],
      "name": "setApprovalForAll",
      "outputs": [],
      "payable": false,
      "stateMutability": "nonpayable",
      "type": "function"
    },
    {
      "constant": true,
      "inputs": [],
      "name": "xpCostToRest",
      "outputs": [
        {
          "name": "",
          "type": "uint8"
        }
      ],
      "payable": false,
      "stateMutability": "view",
      "type": "function"
    },
    {
      "constant": false,
      "inputs": [
        {
          "name": "from",
          "type": "address"
        },
        {
          "name": "to",
          "type": "address"
        },
        {
          "name": "tokenId",
          "type": "uint256"
        },
        {
          "name": "_data",
          "type": "bytes"
        }
      ],
      "name": "safeTransferFrom",
      "outputs": [],
      "payable": false,
      "stateMutability": "nonpayable",
      "type": "function"
    },
    {
      "constant": false,
      "inputs": [
        {
          "name": "_xp",
          "type": "uint256"
        },
        {
          "name": "_name",
          "type": "string"
        },
        {
          "name": "_age",
          "type": "uint8"
        },
        {
          "name": "_height",
          "type": "uint8"
        },
        {
          "name": "_condition",
          "type": "uint8"
        },
        {
          "name": "_agility",
          "type": "uint8"
        },
        {
          "name": "_power",
          "type": "uint8"
        },
        {
          "name": "_stamina",
          "type": "uint8"
        },
        {
          "name": "_technique",
          "type": "uint8"
        },
        {
          "name": "_to",
          "type": "address"
        }
      ],
      "name": "newPlayer",
      "outputs": [
        {
          "name": "",
          "type": "uint256"
        }
      ],
      "payable": false,
      "stateMutability": "nonpayable",
      "type": "function"
    },
    {
      "constant": true,
      "inputs": [
        {
          "name": "owner",
          "type": "address"
        },
        {
          "name": "operator",
          "type": "address"
        }
      ],
      "name": "isApprovedForAll",
      "outputs": [
        {
          "name": "",
          "type": "bool"
        }
      ],
      "payable": false,
      "stateMutability": "view",
      "type": "function"
    },
    {
      "constant": false,
      "inputs": [
        {
          "name": "newOwner",
          "type": "address"
        }
      ],
      "name": "transferOwnership",
      "outputs": [],
      "payable": false,
      "stateMutability": "nonpayable",
      "type": "function"
    },
    {
      "constant": true,
      "inputs": [
        {
          "name": "",
          "type": "uint256"
        }
      ],
      "name": "players",
      "outputs": [
        {
          "name": "xp",
          "type": "uint256"
        },
        {
          "name": "name",
          "type": "string"
        },
        {
          "name": "age",
          "type": "uint8"
        },
        {
          "name": "height",
          "type": "uint8"
        },
        {
          "name": "condition",
          "type": "uint8"
        },
        {
          "name": "agility",
          "type": "uint8"
        },
        {
          "name": "power",
          "type": "uint8"
        },
        {
          "name": "stamina",
          "type": "uint8"
        },
        {
          "name": "technique",
          "type": "uint8"
        }
      ],
      "payable": false,
      "stateMutability": "view",
      "type": "function"
    },
    {
      "constant": true,
      "inputs": [],
      "name": "conditionGainOnRest",
      "outputs": [
        {
          "name": "",
          "type": "uint8"
        }
      ],
      "payable": false,
      "stateMutability": "view",
      "type": "function"
    },
    {
      "anonymous": false,
      "inputs": [
        {
          "indexed": true,
          "name": "playerId",
          "type": "uint256"
        },
        {
          "indexed": false,
          "name": "attribute",
          "type": "uint8"
        }
      ],
      "name": "Train",
      "type": "event"
    },
    {
      "anonymous": false,
      "inputs": [
        {
          "indexed": true,
          "name": "playerId",
          "type": "uint256"
        }
      ],
      "name": "Rest",
      "type": "event"
    },
    {
      "anonymous": false,
      "inputs": [
        {
          "indexed": true,
          "name": "previousOwner",
          "type": "address"
        },
        {
          "indexed": true,
          "name": "newOwner",
          "type": "address"
        }
      ],
      "name": "OwnershipTransferred",
      "type": "event"
    },
    {
      "anonymous": false,
      "inputs": [
        {
          "indexed": true,
          "name": "from",
          "type": "address"
        },
        {
          "indexed": true,
          "name": "to",
          "type": "address"
        },
        {
          "indexed": true,
          "name": "tokenId",
          "type": "uint256"
        }
      ],
      "name": "Transfer",
      "type": "event"
    },
    {
      "anonymous": false,
      "inputs": [
        {
          "indexed": true,
          "name": "owner",
          "type": "address"
        },
        {
          "indexed": true,
          "name": "approved",
          "type": "address"
        },
        {
          "indexed": true,
          "name": "tokenId",
          "type": "uint256"
        }
      ],
      "name": "Approval",
      "type": "event"
    },
    {
      "anonymous": false,
      "inputs": [
        {
          "indexed": true,
          "name": "owner",
          "type": "address"
        },
        {
          "indexed": true,
          "name": "operator",
          "type": "address"
        },
        {
          "indexed": false,
          "name": "approved",
          "type": "bool"
        }
      ],
      "name": "ApprovalForAll",
      "type": "event"
    },
    {
      "constant": false,
      "inputs": [
        {
          "name": "_id",
          "type": "uint256"
        },
        {
          "name": "_attr",
          "type": "uint8"
        }
      ],
      "name": "train",
      "outputs": [],
      "payable": false,
      "stateMutability": "nonpayable",
      "type": "function"
    },
    {
      "constant": false,
      "inputs": [
        {
          "name": "_id",
          "type": "uint256"
        }
      ],
      "name": "rest",
      "outputs": [],
      "payable": false,
      "stateMutability": "nonpayable",
      "type": "function"
    }
  ],
  "bytecode": "0x6080604052600b805462010000600560ff199092169190911761ff0019166108001762ff000019161763ff000000191663060000001764ff000000001916640f00000000179055620000787f01ffc9a7000000000000000000000000000000000000000000000000000000006200010e602090811b901c565b620000906380ac58cd60e01b6200010e60201b60201c565b620000a863780e9d6360e01b6200010e60201b60201c565b6000620000ba620001dd60201b60201c565b600980546001600160a01b0319166001600160a01b038316908117909155604051919250906000907f8be0079c531659141344cd1fd0a4f28419497f9722a3daafe3b4186f6b6457e0908290a350620001e1565b7fffffffff000000000000000000000000000000000000000000000000000000008082161415620001a057604080517f08c379a000000000000000000000000000000000000000000000000000000000815260206004820152601c60248201527f4552433136353a20696e76616c696420696e7465726661636520696400000000604482015290519081900360640190fd5b7fffffffff00000000000000000000000000000000000000000000000000000000166000908152602081905260409020805460ff19166001179055565b3390565b61248780620001f16000396000f3fe608060405234801561001057600080fd5b506004361061018e5760003560e01c806370a08231116100de578063a5cdbb2e11610097578063e985e9c511610071578063e985e9c5146105b8578063f2fde38b146105e6578063f71d96cb1461060c578063fbfd1e8a146106ed5761018e565b8063a5cdbb2e146103fe578063b88d4fde14610406578063c6da6e2b146104ca5761018e565b806370a082311461038a578063712b49c9146103b0578063715018a6146103b85780638da5cb5b146103c05780638f32d59b146103c8578063a22cb465146103d05761018e565b80632f745c591161014b5780634f6ccce7116101255780634f6ccce71461032b57806352273b2d146103485780636352211e146103505780636e8eb2221461036d5761018e565b80632f745c59146102ab57806338377869146102d757806342842e0e146102f55761018e565b806301ffc9a714610193578063081812fc146101ce578063095ea7b31461020757806310b0d81e1461023557806318160ddd1461025b57806323b872dd14610275575b600080fd5b6101ba600480360360208110156101a957600080fd5b50356001600160e01b0319166106f5565b604080519115158252519081900360200190f35b6101eb600480360360208110156101e457600080fd5b5035610714565b604080516001600160a01b039092168252519081900360200190f35b6102336004803603604081101561021d57600080fd5b506001600160a01b03813516906020013561077b565b005b6102336004803603604081101561024b57600080fd5b508035906020013560ff166108a5565b610263610c65565b60408051918252519081900360200190f35b6102336004803603606081101561028b57600080fd5b506001600160a01b03813581169160208101359091169060400135610c6c565b610263600480360360408110156102c157600080fd5b506001600160a01b038135169060200135610ccd565b6102df610d4f565b6040805160ff9092168252519081900360200190f35b6102336004803603606081101561030b57600080fd5b506001600160a01b03813581169160208101359091169060400135610d58565b6102636004803603602081101561034157600080fd5b5035610d73565b6102df610ddd565b6101eb6004803603602081101561036657600080fd5b5035610dec565b6102336004803603602081101561038357600080fd5b5035610e4b565b610263600480360360208110156103a057600080fd5b50356001600160a01b0316610fb2565b6102df61101f565b61023361102d565b6101eb6110d5565b6101ba6110e4565b610233600480360360408110156103e657600080fd5b506001600160a01b038135169060200135151561110a565b6102df61120c565b6102336004803603608081101561041c57600080fd5b6001600160a01b03823581169260208101359091169160408201359190810190608081016060820135600160201b81111561045657600080fd5b82018360208201111561046857600080fd5b803590602001918460018302840111600160201b8311171561048957600080fd5b91908080601f01602080910402602001604051908101604052809392919081815260200183838082843760009201919091525092955061121c945050505050565b61026360048036036101408110156104e157600080fd5b81359190810190604081016020820135600160201b81111561050257600080fd5b82018360208201111561051457600080fd5b803590602001918460018302840111600160201b8311171561053557600080fd5b91908080601f0160208091040260200160405190810160405280939291908181526020018383808284376000920191909152509295505050813560ff908116935060208301358116926040810135821692506060810135821691608082013581169160a081013582169160c0820135169060e001356001600160a01b031661127f565b6101ba600480360360408110156105ce57600080fd5b506001600160a01b038135811691602001351661146a565b610233600480360360208110156105fc57600080fd5b50356001600160a01b0316611498565b6106296004803603602081101561062257600080fd5b5035611502565b604080518a815260ff808a16928201929092528782166060820152868216608082015285821660a082015284821660c082015283821660e082015290821661010082015261012060208083018281528b51928401929092528a516101408401918c019080838360005b838110156106aa578181015183820152602001610692565b50505050905090810190601f1680156106d75780820380516001836020036101000a031916815260200191505b509a505050505050505050505060405180910390f35b6102df611612565b6001600160e01b03191660009081526020819052604090205460ff1690565b600061071f82611622565b151561075f57604051600160e51b62461bcd02815260040180806020018281038252602c815260200180612389602c913960400191505060405180910390fd5b506000908152600260205260409020546001600160a01b031690565b600061078682610dec565b90506001600160a01b0383811690821614156107d657604051600160e51b62461bcd0281526004018080602001828103825260218152602001806123de6021913960400191505060405180910390fd5b806001600160a01b03166107e861163f565b6001600160a01b0316148061080957506108098161080461163f565b61146a565b151561084957604051600160e51b62461bcd0281526004018080602001828103825260388152602001806122fe6038913960400191505060405180910390fd5b60008281526002602052604080822080546001600160a01b0319166001600160a01b0387811691821790925591518593918516917f8c5be1e5ebec7d5bd14f71427d1e84f3dd0314c0f7b2291e5b200ac8c7c3b92591a4505050565b336108af83610dec565b6001600160a01b03161461090d5760408051600160e51b62461bcd02815260206004820181905260248201527f4d757374206265206f776e6572206f6620706c6179657220746f20747261696e604482015290519081900360640190fd5b610948600a8381548110151561091f57fe5b6000918252602090912060026003909202010154600b5460ff6201000090920482169116611643565b600a80548490811061095657fe5b906000526020600020906003020160020160026101000a81548160ff021916908360ff1602179055506109b2600a8381548110151561099157fe5b6000918252602090912060039091020154600b54610100900460ff1661166a565b600a8054849081106109c057fe5b600091825260208220600390910201919091558160038111156109df57fe5b1415610a6457610a28600a838154811015156109f757fe5b6000918252602090912060026003909202010154600b5460ff6301000000909204821691620100009091041661167f565b600a805484908110610a3657fe5b906000526020600020906003020160020160036101000a81548160ff021916908360ff160217905550610c1b565b6001816003811115610a7257fe5b1415610af757610abb600a83815481101515610a8a57fe5b6000918252602090912060026003909202010154600b5460ff600160201b909204821691620100009091041661167f565b600a805484908110610ac957fe5b906000526020600020906003020160020160046101000a81548160ff021916908360ff160217905550610c1b565b6002816003811115610b0557fe5b1415610b8c57610b50600a83815481101515610b1d57fe5b6000918252602090912060026003909202010154600b5460ff65010000000000909204821691620100009091041661167f565b600a805484908110610b5e57fe5b906000526020600020906003020160020160056101000a81548160ff021916908360ff160217905550610c1b565b6003816003811115610b9a57fe5b1415610c1b57610be3600a83815481101515610bb257fe5b6000918252602090912060026003909202010154600b5460ff600160301b909204821691620100009091041661167f565b600a805484908110610bf157fe5b906000526020600020906003020160020160066101000a81548160ff021916908360ff1602179055505b817f42076cc90b2fa42c50650fbbbab6c79184379df25c5254258e59154788f768d08260405180826003811115610c4e57fe5b60ff16815260200191505060405180910390a25050565b6007545b90565b610c7d610c7761163f565b8261169a565b1515610cbd57604051600160e51b62461bcd0281526004018080602001828103825260318152602001806123ff6031913960400191505060405180910390fd5b610cc8838383611743565b505050565b6000610cd883610fb2565b8210610d1857604051600160e51b62461bcd02815260040180806020018281038252602b815260200180612206602b913960400191505060405180910390fd5b6001600160a01b0383166000908152600560205260409020805483908110610d3c57fe5b9060005260206000200154905092915050565b600b5460ff1681565b610cc88383836040518060200160405280600081525061121c565b6000610d7d610c65565b8210610dbd57604051600160e51b62461bcd02815260040180806020018281038252602c815260200180612430602c913960400191505060405180910390fd5b6007805483908110610dcb57fe5b90600052602060002001549050919050565b600b5462010000900460ff1681565b6000818152600160205260408120546001600160a01b0316801515610e4557604051600160e51b62461bcd0281526004018080602001828103825260298152602001806123606029913960400191505060405180910390fd5b92915050565b33610e5582610dec565b6001600160a01b031614610eb35760408051600160e51b62461bcd02815260206004820152601f60248201527f4d757374206265206f776e6572206f6620706c6179657220746f207265737400604482015290519081900360640190fd5b610ee8600a82815481101515610ec557fe5b6000918252602090912060039091020154600b546301000000900460ff1661166a565b600a805483908110610ef657fe5b6000918252602090912060039091020155600a8054610f4b919083908110610f1a57fe5b6000918252602090912060026003909202010154600b5460ff62010000909204821691600160201b9091041661167f565b600a805483908110610f5957fe5b600091825260208220600260039092020101805460ff93909316620100000262ff0000199093169290921790915560405182917f0594fec9b42ce38ee3c311c4bdd01add00de4138f3f35028275ed5ddcb0ccdf791a250565b60006001600160a01b0382161515610ffe57604051600160e51b62461bcd02815260040180806020018281038252602a815260200180612336602a913960400191505060405180910390fd5b6001600160a01b0382166000908152600360205260409020610e4590611762565b600b54610100900460ff1681565b6110356110e4565b151561108b5760408051600160e51b62461bcd02815260206004820181905260248201527f4f776e61626c653a2063616c6c6572206973206e6f7420746865206f776e6572604482015290519081900360640190fd5b6009546040516000916001600160a01b0316907f8be0079c531659141344cd1fd0a4f28419497f9722a3daafe3b4186f6b6457e0908390a3600980546001600160a01b0319169055565b6009546001600160a01b031690565b6009546000906001600160a01b03166110fb61163f565b6001600160a01b031614905090565b61111261163f565b6001600160a01b03838116911614156111755760408051600160e51b62461bcd02815260206004820152601960248201527f4552433732313a20617070726f766520746f2063616c6c657200000000000000604482015290519081900360640190fd5b806004600061118261163f565b6001600160a01b03908116825260208083019390935260409182016000908120918716808252919093529120805460ff1916921515929092179091556111c661163f565b60408051841515815290516001600160a01b0392909216917f17307eab39ab6107e8899845ad3d59bd9653f200f220920489ca2b5937696c319181900360200190a35050565b600b546301000000900460ff1681565b61122d61122761163f565b8361169a565b151561126d57604051600160e51b62461bcd0281526004018080602001828103825260318152602001806123ff6031913960400191505060405180910390fd5b61127984848484611766565b50505050565b60006112896110e4565b15156112df5760408051600160e51b62461bcd02815260206004820181905260248201527f4f776e61626c653a2063616c6c6572206973206e6f7420746865206f776e6572604482015290519081900360640190fd5b6000600a805490509050600a6040518061012001604052808e81526020018d81526020018c60ff1681526020018b60ff1681526020018a60ff1681526020018960ff1681526020018860ff1681526020018760ff1681526020018660ff1681525090806001815401808255809150509060018203906000526020600020906003020160009091929091909150600082015181600001556020820151816001019080519060200190611391929190612151565b50604082015160029190910180546060840151608085015160a086015160c087015160e08801516101009889015160ff1990961660ff9889161761ff0019169488169098029390931762ff0000191662010000928716929092029190911763ff00000019166301000000918616919091021764ff000000001916600160201b918516919091021765ff0000000000191665010000000000948416949094029390931766ff0000000000001916600160301b92909316919091029190911790555061145b83826117bd565b9b9a5050505050505050505050565b6001600160a01b03918216600090815260046020908152604080832093909416825291909152205460ff1690565b6114a06110e4565b15156114f65760408051600160e51b62461bcd02815260206004820181905260248201527f4f776e61626c653a2063616c6c6572206973206e6f7420746865206f776e6572604482015290519081900360640190fd5b6114ff816117db565b50565b600a80548290811061151057fe5b9060005260206000209060030201600091509050806000015490806001018054600181600116156101000203166002900480601f0160208091040260200160405190810160405280929190818152602001828054600181600116156101000203166002900480156115c25780601f10611597576101008083540402835291602001916115c2565b820191906000526020600020905b8154815290600101906020018083116115a557829003601f168201915b5050506002909301549192505060ff80821691610100810482169162010000820481169163010000008104821691600160201b8204811691650100000000008104821691600160301b9091041689565b600b54600160201b900460ff1681565b6000908152600160205260409020546001600160a01b0316151590565b3390565b600061166361165e60ff85811690851663ffffffff61188116565b6118c3565b9392505050565b60006116638360ff841663ffffffff61188116565b600061166361165e60ff85811690851663ffffffff61190c16565b60006116a582611622565b15156116e557604051600160e51b62461bcd02815260040180806020018281038252602c8152602001806122d2602c913960400191505060405180910390fd5b60006116f083610dec565b9050806001600160a01b0316846001600160a01b0316148061172b5750836001600160a01b031661172084610714565b6001600160a01b0316145b8061173b575061173b818561146a565b949350505050565b61174e838383611969565b6117588382611ab5565b610cc88282611bac565b5490565b611771848484611743565b61177d84848484611bea565b151561127957604051600160e51b62461bcd0281526004018080602001828103825260328152602001806122316032913960400191505060405180910390fd5b6117d7828260405180602001604052806000815250611e32565b5050565b6001600160a01b038116151561182557604051600160e51b62461bcd0281526004018080602001828103825260268152602001806122636026913960400191505060405180910390fd5b6009546040516001600160a01b038084169216907f8be0079c531659141344cd1fd0a4f28419497f9722a3daafe3b4186f6b6457e090600090a3600980546001600160a01b0319166001600160a01b0392909216919091179055565b600061166383836040518060400160405280601e81526020017f536166654d6174683a207375627472616374696f6e206f766572666c6f770000815250611e89565b6000610100821061190857604051600160e51b62461bcd0281526004018080602001828103825260258152602001806122896025913960400191505060405180910390fd5b5090565b6000828201838110156116635760408051600160e51b62461bcd02815260206004820152601b60248201527f536166654d6174683a206164646974696f6e206f766572666c6f770000000000604482015290519081900360640190fd5b826001600160a01b031661197c82610dec565b6001600160a01b0316146119c457604051600160e51b62461bcd0281526004018080602001828103825260298152602001806123b56029913960400191505060405180910390fd5b6001600160a01b0382161515611a0e57604051600160e51b62461bcd0281526004018080602001828103825260248152602001806122ae6024913960400191505060405180910390fd5b611a1781611f23565b6001600160a01b0383166000908152600360205260409020611a3890611f5e565b6001600160a01b0382166000908152600360205260409020611a5990611f75565b60008181526001602052604080822080546001600160a01b0319166001600160a01b0386811691821790925591518493918716917fddf252ad1be2c89b69c2b068fc378daa952ba7f163c4a11628f55a4df523b3ef91a4505050565b6001600160a01b038216600090815260056020526040812054611adf90600163ffffffff61188116565b600083815260066020526040902054909150808214611b7c576001600160a01b0384166000908152600560205260408120805484908110611b1c57fe5b906000526020600020015490508060056000876001600160a01b03166001600160a01b0316815260200190815260200160002083815481101515611b5c57fe5b600091825260208083209091019290925591825260069052604090208190555b6001600160a01b0384166000908152600560205260409020805490611ba59060001983016121cb565b5050505050565b6001600160a01b0390911660009081526005602081815260408084208054868652600684529185208290559282526001810183559183529091200155565b6000611bfe846001600160a01b0316611f7e565b1515611c0c5750600161173b565b600060606001600160a01b038616600160e11b630a85bd0102611c2d61163f565b89888860405160240180856001600160a01b03166001600160a01b03168152602001846001600160a01b03166001600160a01b0316815260200183815260200180602001828103825283818151815260200191508051906020019080838360005b83811015611ca6578181015183820152602001611c8e565b50505050905090810190601f168015611cd35780820380516001836020036101000a031916815260200191505b5060408051601f198184030181529181526020820180516001600160e01b03166001600160e01b0319909a16999099178952518151919890975087965094509250829150849050835b60208310611d3b5780518252601f199092019160209182019101611d1c565b6001836020036101000a0380198251168184511680821785525050505050509050019150506000604051808303816000865af19150503d8060008114611d9d576040519150601f19603f3d011682016040523d82523d6000602084013e611da2565b606091505b5091509150811515611df857805115611dbe5780518082602001fd5b604051600160e51b62461bcd0281526004018080602001828103825260328152602001806122316032913960400191505060405180910390fd5b6000818060200190516020811015611e0f57600080fd5b50516001600160e01b031916600160e11b630a85bd010214935061173b92505050565b611e3c8383611fb7565b611e496000848484611bea565b1515610cc857604051600160e51b62461bcd0281526004018080602001828103825260328152602001806122316032913960400191505060405180910390fd5b60008184841115611f1b57604051600160e51b62461bcd0281526004018080602001828103825283818151815260200191508051906020019080838360005b83811015611ee0578181015183820152602001611ec8565b50505050905090810190601f168015611f0d5780820380516001836020036101000a031916815260200191505b509250505060405180910390fd5b505050900390565b6000818152600260205260409020546001600160a01b0316156114ff57600090815260026020526040902080546001600160a01b0319169055565b8054611f7190600163ffffffff61188116565b9055565b80546001019055565b6000813f7fc5d2460186f7233c927e7db2dcc703c0e500b653ca82273b7bfad8045d85a47081811480159061173b575050151592915050565b611fc18282611fd4565b611fcb8282611bac565b6117d78161210d565b6001600160a01b03821615156120345760408051600160e51b62461bcd02815260206004820181905260248201527f4552433732313a206d696e7420746f20746865207a65726f2061646472657373604482015290519081900360640190fd5b61203d81611622565b156120925760408051600160e51b62461bcd02815260206004820152601c60248201527f4552433732313a20746f6b656e20616c7265616479206d696e74656400000000604482015290519081900360640190fd5b600081815260016020908152604080832080546001600160a01b0319166001600160a01b0387169081179091558352600390915290206120d190611f75565b60405181906001600160a01b038416906000907fddf252ad1be2c89b69c2b068fc378daa952ba7f163c4a11628f55a4df523b3ef908290a45050565b600780546000838152600860205260408120829055600182018355919091527fa66cc928b5edb82af9bd49922954155ab7b0942694bea4ce44661d9a8736c6880155565b828054600181600116156101000203166002900490600052602060002090601f016020900481019282601f1061219257805160ff19168380011785556121bf565b828001600101855582156121bf579182015b828111156121bf5782518255916020019190600101906121a4565b506119089291506121eb565b815481835581811115610cc857600083815260209020610cc89181019083015b610c6991905b8082111561190857600081556001016121f156fe455243373231456e756d657261626c653a206f776e657220696e646578206f7574206f6620626f756e64734552433732313a207472616e7366657220746f206e6f6e20455243373231526563656976657220696d706c656d656e7465724f776e61626c653a206e6577206f776e657220697320746865207a65726f206164647265737353616665436173743a2076616c756520646f65736e27742066697420696e203820626974734552433732313a207472616e7366657220746f20746865207a65726f20616464726573734552433732313a206f70657261746f7220717565727920666f72206e6f6e6578697374656e7420746f6b656e4552433732313a20617070726f76652063616c6c6572206973206e6f74206f776e6572206e6f7220617070726f76656420666f7220616c6c4552433732313a2062616c616e636520717565727920666f7220746865207a65726f20616464726573734552433732313a206f776e657220717565727920666f72206e6f6e6578697374656e7420746f6b656e4552433732313a20617070726f76656420717565727920666f72206e6f6e6578697374656e7420746f6b656e4552433732313a207472616e73666572206f6620746f6b656e2074686174206973206e6f74206f776e4552433732313a20617070726f76616c20746f2063757272656e74206f776e65724552433732313a207472616e736665722063616c6c6572206973206e6f74206f776e6572206e6f7220617070726f766564455243373231456e756d657261626c653a20676c6f62616c20696e646578206f7574206f6620626f756e6473a165627a7a72305820de49f23d5cb81f5a9410849771ce091dca766559059b94e70bdaa72dbb2415c10029",
  "source": "// Author: Alex Roan\npragma solidity ^0.5.5;\n\nimport \"./TennisPlayerBase.sol\";\n\ncontract TrainableTennisPlayer is TennisPlayerBase {\n\n    // TODO - xp costs to change depending on current attribute level?\n\n    // Training costs\n    uint8 public conditionCostToTrain = 5;\n    uint8 public xpCostToTrain = 8;\n    uint8 public attributeGainOnTrain = 1;\n\n    // Rest costs and gains\n    uint8 public xpCostToRest = 6;\n    uint8 public conditionGainOnRest = 15;\n\n    enum Attribute { agility, power, stamina, technique }\n\n    event Train(uint indexed playerId, Attribute attribute);\n    event Rest(uint indexed playerId);\n\n    // Train a player increasing an attribute\n    function train(uint _id, Attribute _attr) public {\n        // Only the owner of the player can train\n        require(ownerOf(_id) == msg.sender, \"Must be owner of player to train\");\n\n        // The player must be fit enough to train\n        players[_id].condition = castSubtract8(players[_id].condition, conditionCostToTrain);\n        // Must have enough XP\n        players[_id].xp = castSubtract256(players[_id].xp, xpCostToTrain);\n\n        // Increase the chosen attribute\n        if (_attr == Attribute.agility) {\n            players[_id].agility = castAdd8(players[_id].agility, attributeGainOnTrain);\n        }\n        else if (_attr == Attribute.power) {\n            players[_id].power = castAdd8(players[_id].power, attributeGainOnTrain);\n        }\n        else if (_attr == Attribute.stamina) {\n            players[_id].stamina = castAdd8(players[_id].stamina, attributeGainOnTrain);\n        }\n        else if (_attr == Attribute.technique) {\n            players[_id].technique = castAdd8(players[_id].technique, attributeGainOnTrain);\n        }\n        emit Train(_id, _attr);\n    }\n\n    // Rest player, increasing condition\n    function rest(uint _id) public {\n        // Only the owner of the player can rest\n        require(ownerOf(_id) == msg.sender, \"Must be owner of player to rest\");\n\n        // Must have enough XP\n        players[_id].xp = castSubtract256(players[_id].xp, xpCostToRest);\n        players[_id].condition = castAdd8(players[_id].condition, conditionGainOnRest);\n        emit Rest(_id);\n    }\n}",
  "sourcePath": "/Users/alexroan/Documents/Projects/Blockchain/DApps/tennis-manager/contracts/TrainableTennisPlayer.sol",
  "compiler": {
    "name": "solc",
    "version": "0.5.5+commit.47a71e8f.Emscripten.clang"
  },
  "schemaVersion": "3.0.23",
  "updatedAt": "2020-04-01T11:20:07.619Z",
  "devdoc": {
    "methods": {
      "approve(address,uint256)": {
        "details": "Approves another address to transfer the given token ID The zero address indicates there is no approved address. There can only be one approved address per token at a given time. Can only be called by the token owner or an approved operator.",
        "params": {
          "to": "address to be approved for the given token ID",
          "tokenId": "uint256 ID of the token to be approved"
        }
      },
      "balanceOf(address)": {
        "details": "Gets the balance of the specified address.",
        "params": {
          "owner": "address to query the balance of"
        },
        "return": "uint256 representing the amount owned by the passed address"
      },
      "getApproved(uint256)": {
        "details": "Gets the approved address for a token ID, or zero if no address set Reverts if the token ID does not exist.",
        "params": {
          "tokenId": "uint256 ID of the token to query the approval of"
        },
        "return": "address currently approved for the given token ID"
      },
      "isApprovedForAll(address,address)": {
        "details": "Tells whether an operator is approved by a given owner.",
        "params": {
          "operator": "operator address which you want to query the approval of",
          "owner": "owner address which you want to query the approval of"
        },
        "return": "bool whether the given operator is approved by the given owner"
      },
      "isOwner()": {
        "details": "Returns true if the caller is the current owner."
      },
      "owner()": {
        "details": "Returns the address of the current owner."
      },
      "ownerOf(uint256)": {
        "details": "Gets the owner of the specified token ID.",
        "params": {
          "tokenId": "uint256 ID of the token to query the owner of"
        },
        "return": "address currently marked as the owner of the given token ID"
      },
      "renounceOwnership()": {
        "details": "Leaves the contract without owner. It will not be possible to call `onlyOwner` functions anymore. Can only be called by the current owner.     * NOTE: Renouncing ownership will leave the contract without an owner, thereby removing any functionality that is only available to the owner."
      },
      "safeTransferFrom(address,address,uint256)": {
        "details": "Safely transfers the ownership of a given token ID to another address If the target address is a contract, it must implement {IERC721Receiver-onERC721Received}, which is called upon a safe transfer, and return the magic value `bytes4(keccak256(\"onERC721Received(address,address,uint256,bytes)\"))`; otherwise, the transfer is reverted. Requires the msg.sender to be the owner, approved, or operator",
        "params": {
          "from": "current owner of the token",
          "to": "address to receive the ownership of the given token ID",
          "tokenId": "uint256 ID of the token to be transferred"
        }
      },
      "safeTransferFrom(address,address,uint256,bytes)": {
        "details": "Safely transfers the ownership of a given token ID to another address If the target address is a contract, it must implement {IERC721Receiver-onERC721Received}, which is called upon a safe transfer, and return the magic value `bytes4(keccak256(\"onERC721Received(address,address,uint256,bytes)\"))`; otherwise, the transfer is reverted. Requires the _msgSender() to be the owner, approved, or operator",
        "params": {
          "_data": "bytes data to send along with a safe transfer check",
          "from": "current owner of the token",
          "to": "address to receive the ownership of the given token ID",
          "tokenId": "uint256 ID of the token to be transferred"
        }
      },
      "setApprovalForAll(address,bool)": {
        "details": "Sets or unsets the approval of a given operator An operator is allowed to transfer all tokens of the sender on their behalf.",
        "params": {
          "approved": "representing the status of the approval to be set",
          "to": "operator address to set the approval"
        }
      },
      "supportsInterface(bytes4)": {
        "details": "See {IERC165-supportsInterface}.     * Time complexity O(1), guaranteed to always use less than 30 000 gas."
      },
      "tokenByIndex(uint256)": {
        "details": "Gets the token ID at a given index of all the tokens in this contract Reverts if the index is greater or equal to the total number of tokens.",
        "params": {
          "index": "uint256 representing the index to be accessed of the tokens list"
        },
        "return": "uint256 token ID at the given index of the tokens list"
      },
      "tokenOfOwnerByIndex(address,uint256)": {
        "details": "Gets the token ID at a given index of the tokens list of the requested owner.",
        "params": {
          "index": "uint256 representing the index to be accessed of the requested tokens list",
          "owner": "address owning the tokens list to be accessed"
        },
        "return": "uint256 token ID at the given index of the tokens list owned by the requested address"
      },
      "totalSupply()": {
        "details": "Gets the total amount of tokens stored by the contract.",
        "return": "uint256 representing the total amount of tokens"
      },
      "transferFrom(address,address,uint256)": {
        "details": "Transfers the ownership of a given token ID to another address. Usage of this method is discouraged, use {safeTransferFrom} whenever possible. Requires the msg.sender to be the owner, approved, or operator.",
        "params": {
          "from": "current owner of the token",
          "to": "address to receive the ownership of the given token ID",
          "tokenId": "uint256 ID of the token to be transferred"
        }
      },
      "transferOwnership(address)": {
        "details": "Transfers ownership of the contract to a new account (`newOwner`). Can only be called by the current owner."
      }
    }
  },
  "userdoc": {
    "methods": {}
  }
}